:100000000C94F1010C9435020C9435020C943502D9
:100010000C9435020C9435020C9435020C94350284
:100020000C9435020C9435020C9407090C94D709F2
:100030000C94761A0C9435020C9435020C9435020B
:100040000C9435020C94331D0C9435020C9435023B
:100050000C9435020C94951A0C9435020C943502CC
:100060000C9435020C9435020C9435020C94350234
:100070000C9435020C9435020C9435020C94350224
:100080000C9435020C9435020C9435020C94350214
:100090000C9435020C9435020C9435020C94350204
:1000A0000C9435020C9435020C9435023F0B610B15
:1000B0004D0C610B4D0CA30BC70B4D0C1C0C2F0CE6
:1000C000380F380F660F660F081208120812081250
:1000D000BB0F0812B210B2106E1182110812F61185
:1000E000016202620162026200F1A100D100D2004D
:1000F000D0291E1F20212223242526272D2E2A2BFE
:10010000141A0815171C180C12132F303139041645
:1001100007090A0B0D0E0F33340028E1001D1B06E2
:1001200019051110363738C0E5E0E3E200002C0075
:10013000000000E6C0E7E4353A3B3C3D3E3F40412D
:10014000424344454C010152010101B201490146BB
:100150004748010150514F0101010101014A4B0083
:100160000101000165C1C2C3AAA9A84D4E01010148
:10017000010100000100000000010101010A002549
:1001800030313662003A200025303258000A722F92
:1001900063203031323334353637383941424344C5
:1001A00045460A000A002530325800626F756E63BA
:1001B00065213A2000001080FF012300204B657963
:1001C000626F6172642073746172742E0A005553F9
:1001D0004220636F6E666967757265642E0A000C53
:1001E0000341006D006A0036003000000012036712
:1001F00000650065006B006800610063006B000033
:10020000000403090409024200020100A0320904AB
:1002100000000103010100092111010001223F003A
:100220000705810308000A09040100020300000019
:10023000092111010001222000070582032000018D
:10024000070502032000011201100100000008ED63
:10025000FE66600100010200010631FF0974A10180
:100260000975150025FF952075088102097615008E
:1002700025FF952075089102C005010906A1010519
:100280000719E029E71500250195087501810295F8
:100290000175088101050819012905950575019168
:1002A000029501750391010507190029FF15002525
:1002B000FF950675088100C00A00253032582000DD
:1002C0006B6579626F6172645F7265706F72743AA8
:1002D00020000A0025303258006B6579626F617228
:1002E000645F7365745F6C65643A2000646F6E656B
:1002F0002E0A00626F6F676D6167696320736361C7
:100300006E3A202E2E2E200000000000000000007B
:1003100000000101010202020303040405050606B0
:10032000070808090A0B0B0C0D0E0F1011121315FC
:100330001617191A1B1D1E2022232527292B2D2FA6
:10034000313335383A3D3F4244474A4D5053565970
:100350005C5F6266696C7074777B7E82868A8E9140
:1003600095999DA1A5A9ADB0B4B8BCC0C3C7CBCE6B
:10037000D2D5D8DBDFE2E4E7EAECEFF1F3F5F7F80A
:10038000FAFBFCFDFEFFFFFF6261636B6C6967684F
:100390007420737465703A2025750A006261636B7E
:1003A0006C6967687420746F67676C653A2025759F
:1003B0000A006261636B6C696768742064656372CC
:1003C000656173653A2025750A006261636B6C692B
:1003D00067687420696E6372656173653A2025757C
:1003E0000A0011241FBECFEFDAE0DEBFCDBF04B696
:1003F00003FE24C08091BF019091C001A091C10172
:10040000B091C2018730904BA740B04BB9F4109225
:10041000BF011092C0011092C1011092C20114BE1E
:1004200084B7877F84BF88E10FB6F894809360001B
:10043000109260000FBEE0E0F8E3099511E0A0E043
:10044000B1E0E4E2F4E402C005900D92AE30B107F1
:10045000D9F711E0AEE0B1E001C01D92AF3BB107AA
:10046000E1F70E9456070C9410220C940000FF93B1
:10047000EF93E0918F01F0919001309709F0099589
:10048000EF91FF910895FC018591803011F0EFDF2D
:10049000FBCF0895FF27E0E230E247FF0CC0419513
:1004A00097FF09C0EDE26095709580959095611D6C
:1004B000711D811D911D27FF02C0219530E350E27F
:1004C000AA27660F771F881F991FAA1FA41710F06D
:1004D000A41B63955A95A9F7AA3008F0A95FA05DFF
:1004E000AF93F395611571058105910541F7ED32E3
:1004F00011F4EF93F395F21718F43F93F395FBCFB4
:100500008F91B5DFFA95E1F70895E991F991859119
:10051000803021F0853219F0AADFF9CF089520E06C
:10052000E89455915532C1F3503311F468945591C4
:100530005A3348F4505390F3220F022E220F220F09
:10054000200D250FF4CF0EF4219589919991533602
:1005500019F3533729F1533559F1BC0188279927ED
:10056000E8945C3621F489919991689455915436B8
:1005700039F446EF7EF077FF0DC08FEF9FEF0AC092
:1005800055374AE039F0583540E121F0523642E023
:1005900009F00895FF93EF937DDFEF91FF91B7CFBF
:1005A000FF93EF93FC0181918030B9F360DFFBCFC3
:1005B000FF93EF9368DFF1CFDF93CF93CDB7DEB733
:1005C0002596A3DFCF91DF910895089508958CE8D3
:1005D00090E0089584E090E00895611107C0FC0167
:1005E0008281882319F080EE90E0089580E090E009
:1005F0000895611118C0FC018281882371F00E9466
:10060000C418827211F085E301C089E280930E0163
:1006100080910E010E94D70D04C080910E010E94AE
:10062000940E0C947C170895462F672F0C9401218B
:10063000805C0E94F520089581EF90E0089589EE96
:1006400090E0089555985D9880B38F7080BB81B31A
:100650008F7081BB089585E008958EE0089580E84D
:1006600085BF85BF0E94220380B38C7F80BB81B38E
:10067000836081BB6E98769A8AB18F728AB98BB18A
:10068000806D8BB987B18F7387B988B1806C88B959
:1006900084B1847484B985B18B6B85B9E9E1F1E0EB
:1006A000AFE0B1E0119211921D921D9281E0E33210
:1006B000F807C1F70895AF92BF92CF92EF92FF92E1
:1006C0000F931F93CF93DF93CFE0D1E010E001E0D1
:1006D000A5E0CA2EB6EAEB2EB1E0FB2E123071F087
:1006E00018F4113041F004C0133059F0143061F0A7
:1006F000879A8F980BC0869A8E9808C0859A8D9895
:1007000005C0849A8C9802C0559A5D9880EA8A95B3
:10071000F1F78FB18695802780FBAA24A0F8B12C31
:10072000789B03C020E030E002C022E030E02A29BC
:100730003B29669B03C080E090E002C084E090E02B
:10074000282B392B86B1992787FD90958095909518
:100750008827990F881F9927F3E0880F991FFA952A
:10076000E1F7282B392B369B03C040E050E002C054
:1007700040E150E0242B352B189B03C040E050E0B3
:1007800002C040E250E0242B352B4C9B03C080E09C
:1007900090E002C080E490E0282B392B199B03C025
:1007A00080E090E002C080E890E0282B392B83B1F4
:1007B000992787FD9095809590958827990F881F98
:1007C0009927982F8827282B392B1D9B03C080E061
:1007D00090E002C080E092E0282B392B1C9B03C0E4
:1007E00080E090E002C080E094E0282B392B89B1B2
:1007F000992787FD9095809590958827990F881F58
:100800009927982F8827990F990F990F282B392B03
:100810004E9B03C080E090E002C080E090E1282B76
:10082000392B1B9B03C080E090E002C080E090E287
:10083000282B392B888199818217930741F13983BD
:10084000288380910001882301F180918E0180FF2F
:1008500004C08BEA91E00E94430280918E0180FFE8
:100860000CC0809100011F928F93FF92EF920E9423
:10087000DC020F900F900F900F9080918E0180FFFF
:1008800004C084EA91E00E944302C09200010E94E9
:1008900022031F5F2296153009F020CF80910001BE
:1008A0008823C1F0815080930001882339F08FE9BB
:1008B0009FE00197F1F700C000000CC0A9E1B1E092
:1008C000EFE0F1E0819191918D939D9391E0E93179
:1008D000F907C1F781E0DF91CF911F910F91FF9050
:1008E000EF90CF90BF90AF900895E82FF0E0EE0F1B
:1008F000FF1FE75EFE4F808191810895CF92DF92C6
:10090000EF92FF920F931F93CF93DF938DE891E0C7
:100910000E94430289E1E82E81E0F82EC0E0D0E099
:1009200098E8C92E91E0D92E0FE711E0DF93CF931D
:10093000DF92CF920E94DC0285E891E00E944302A0
:10094000F701819191917F010E94191A9F938F93D2
:100950001F930F930E94DC028DE791E00E944302F7
:1009600021968DB79EB708960FB6F8949EBF0FBE1E
:100970008DBFC530D105D1F6DF91CF911F910F9179
:10098000FF90EF90DF90CF900895CF93C82F809382
:1009900023018730C0F4843010F58130C0F10E940B
:1009A000BE1C0E941E1D0E942D1DEC2FF0E0EB547A
:1009B000FE4FC4916C2F80E00E94D91C6C2F81E007
:1009C000CF910C94D91C8730A9F0883001F50E9492
:1009D000BE1C0E94181D0E942D1D81E012C00E94A5
:1009E000BE1C0E94271D0E941E1D86E08C1BCF91FD
:1009F0000C94301D0E94BE1C0E94181D0E942D1DCB
:100A000080E00E94211D83E0CF910C94241D0E9460
:100A10001E1D0E942D1DCF910C94C81C1F93CF93B7
:100A2000DF9300D000D01F92CDB7DEB7162F809194
:100A30002301873029F4662319F080E20E940A1D01
:100A400080912301883069F4112359F080E20F90DE
:100A50000F900F900F900F90DF91CF911F910C94FA
:100A6000F31C0F900F900F900F900F90DF91CF918C
:100A70001F910895E82FF0E0EE0FFF1FE754FE4F9F
:100A8000859194910895229A2A9A269A2E980895EB
:100A9000882319F0813019F008952A9808952E9A24
:100AA0000895882319F0813019F008952A9A08953D
:100AB0002E98089580912E01089508959091B50182
:100AC000943009F05AC09091E9009F702091EC0099
:100AD00020FF02C020E801C020E0922B22E02093FA
:100AE000E9002091EB0020FF29C02091EE0027FFB4
:100AF00025C020912501222321F02091E80025FF27
:100B00001DC0109225012091E4003091E50066E0BF
:100B100007C04091E4005091E5002417350791F497
:100B20004091E80045FD19C04091B501442329F1E9
:100B3000453019F14091EB0045FFEBCF9F7090934A
:100B4000E9001BC0615021F481E080932501F6CFBC
:100B50002091E4003091E500E3CF8093F100809193
:100B6000E80085FD05C08091E8008E778093E8005D
:100B70009F709093E90080E008958FEF0895CF93E0
:100B8000DF9300D01F92CDB7DEB72091B50124309E
:100B900021F523E029839B838A8381E08093E90008
:100BA0008FEF9091E800815095FD06C095ED9A95E4
:100BB000F1F700008111F5CF8091E80085FF0DC0AD
:100BC00040E050E063E070E0CE0101960E94130A1D
:100BD0008091E8008E778093E8000F900F900F903F
:100BE000DF91CF910895CF93DF9300D01F92CDB7BF
:100BF000DEB72091B501243021F522E029839B83C3
:100C00008A8381E08093E9008FEF9091E800815022
:100C100095FD06C095ED9A95F1F700008111F5CF8D
:100C20008091E80085FF0DC040E050E063E070E097
:100C3000CE0101960E94130A8091E8008E7780937E
:100C4000E8000F900F900F90DF91CF910895CF9310
:100C5000DF93EC018091B501843039F581E0809318
:100C6000E9008FEF9091E800815095FD06C095ED69
:100C70009A95F1F700008111F5CF8091E80085FF8A
:100C800014C040E050E068E070E0CE010E94130A1A
:100C90008091E8008E778093E80088E0FE01A6E26C
:100CA000B1E001900D928A95E1F7DF91CF9108951F
:100CB0008091B401811107C00E94EE088091E2008A
:100CC00084608093E20008950895089508950C9437
:100CD000721A8091B501843049F58091E9008F70D6
:100CE0009091EC0090FF02C090E801C090E0982B3A
:100CF00082E08093E9008091EB0080FF14C0809136
:100D0000EE0087FF10C08091E80085FF03C01092BD
:100D1000F100F9CF8091E80080FF05C08091E800E4
:100D20008E778093E8009F709093E900089542E0E9
:100D300061EC81E00E940B0846E261EC82E00C94D9
:100D40000B088091B701833009F453C030F481302F
:100D500071F0823009F491C008958A3009F47DC0A1
:100D60008B3009F45EC0893009F09FC020C08091AB
:100D7000B601813A09F099C08091E800877F80939D
:100D8000E8008091BA019091BB01892B21F060E0CD
:100D900080E090E003C068E086E291E070E00E94AD
:100DA0005C0A8091E8008B778093E8000895809139
:100DB000B601813209F079C08091BA019091BB01EE
:100DC000892B09F072C08091E800877F8093E8004A
:100DD0008091E80082FD05C08091B5018111F8CFB6
:100DE00064C08091F10080932E018091E8008B77A0
:100DF00058C08091B601813A09F057C08091BA017C
:100E00009091BB01892B09F050C08091E800877F49
:100E10008093E8008091E80080FFFCCF80910B0177
:100E20003BC08091B601813209F03FC08091BA0188
:100E30009091BB01892BC9F58091E800877F809351
:100E4000E8000E9440089091B80181E0911101C032
:100E500080E080930B010C941D128091B6018132C9
:100E600021F58091E800877F8093E8000E94400888
:100E70008091B9018093240108958091B601813A4F
:100E8000A1F48091E800877F8093E8008091E800DA
:100E900080FFFCCF809124018093F1008091E800D5
:100EA0008E778093E8000C944008089584B7877F7C
:100EB00084BF88E10FB6F8948093600010926000C0
:100EC0000FBE90E080E80FB6F89480936100909395
:100ED00061000FBE0E9491080E94EE088091E2001E
:100EE00084608093E2008EE595E00E94021A789477
:100EF0008091B5018430E1F78EEC91E00E944302CD
:100F00000E94E80C81E091E00E94660C8DEB91E07C
:100F10000E9443028091B501853071F483E00E9404
:100F2000331A8091B3018823A9F30E945D1A8823A4
:100F300089F30E94F507EECF0E94200DEBCF292FF9
:100F400033272330310599F05CF421303105B1F1BC
:100F500022303105C1F582E490E025E032E041C065
:100F600021323105C9F022323105F9F02CC0992720
:100F70008130910541F08230910541F0892B19F5BE
:100F8000E1E0F2E005C0EDEEF1E002C0EFEDF1E0EE
:100F9000849190E09F0125C06623D1F0613099F4DF
:100FA00089E090E020E332E01CC06623B1F06130BC
:100FB00051F480E290E029E532E013C082E190E054
:100FC00027E432E00EC080E090E020E030E009C08D
:100FD00089E090E027E132E004C08FE390E029E768
:100FE00032E0FA0131832083089580E189BD82E1F6
:100FF00089BD09B400FEFDCF8091D8008F7D80931C
:10100000D8008091E00082608093E0008091E00051
:1010100081FDFCCF0895982F973058F59093E90003
:10102000981739F07091EC002091ED005091F0008C
:1010300003C0242F762F50E021FF19C03091EB0020
:101040003E7F3093EB003091ED003D7F3093ED001B
:101050003091EB0031603093EB007093EC00209303
:10106000ED005093F0002091EE0027FF07C09F5F36
:10107000D3CF8F708093E90081E0089580E00895D8
:101080008091B60187FD05C08091E80080FF0EC009
:1010900012C08091E80082FD05C08091B5018111E8
:1010A000F8CF08958091E8008B7708C08091B50152
:1010B0008111EACF08958091E8008E778093E8004F
:1010C00008958091E4009091E50045E62091EC00C0
:1010D00020FF21C02091E80020FD21C02091B50112
:1010E000222389F0253089F02091EB0025FD0FC0E7
:1010F0002091E4003091E5002817390739F3415079
:1011000041F0C901E3CF82E0089583E0089581E0D2
:10111000089584E008952091E80022FFDFCF80E069
:1011200008950E94FA080E940209E0EEF0E0808132
:1011300081608083E8EDF0E080818F77808319BC47
:10114000A7EDB0E08C918E7F8C9380818F7E808321
:101150001092B40108950F931F93CF93DF930E94D1
:10116000FA080E940209C8EDD0E088818F77888351
:1011700088818068888388818F7D888319BC1092DC
:10118000B5011092B1011092B3011092B20100EEBC
:1011900010E0F80180818B7F808388818160888363
:1011A00042E060E080E00E940B08E1EEF0E0808128
:1011B0008E7F8083E2EEF0E0808181608083808199
:1011C00088608083F80180818E7F80838881806140
:1011D0008883DF91CF911F910F910895E7EDF0E0A3
:1011E00080818160808384E082BF81E08093B4014C
:1011F0000C94AB08E8EDF0E080818E7F8083109244
:10120000E20008951092DA001092E10008951F9212
:101210000F920FB60F9211242F933F934F935F932A
:101220006F937F938F939F93AF93BF93EF93FF93AE
:101230008091E10082FF0BC08091E20082FF07C035
:101240008091E1008B7F8093E1000E94690680918C
:10125000DA0080FF1FC08091D80080FF1BC0809102
:10126000DA008E7F8093DA008091D90080FF0DC074
:1012700080E189BD82E189BD09B400FEFDCF81E036
:101280008093B5010E94580605C019BC1092B501A3
:101290000E9464068091E10080FF19C08091E20005
:1012A00080FF15C08091E2008E7F8093E2008091E4
:1012B000E20080618093E2008091D8008062809398
:1012C000D80019BC85E08093B5010E946606809124
:1012D000E10084FF2EC08091E20084FF2AC080E1FB
:1012E00089BD82E189BD09B400FEFDCF8091D8009F
:1012F0008F7D8093D8008091E1008F7E8093E10004
:101300008091E2008F7E8093E2008091E200816014
:101310008093E2008091B101811104C08091E300CB
:1013200087FF02C084E001C081E08093B5010E9484
:1013300067068091E10083FF29C08091E20083FF6E
:1013400025C08091E100877F8093E10082E0809357
:10135000B5011092B1018091E1008E7F8093E10090
:101360008091E2008E7F8093E2008091E2008061B4
:101370008093E20042E060E080E00E940B088091F0
:10138000F00088608093F0000E946506FF91EF9165
:10139000BF91AF919F918F917F916F915F914F918D
:1013A0003F912F910F900FBE0F901F9018951F9295
:1013B0000F920FB60F9211242F933F934F935F9389
:1013C0006F937F938F939F93AF93BF93CF93EF933D
:1013D000FF93C091E900CF708091EC001092E9007A
:1013E0008091F000877F8093F00078940E94150B25
:1013F0001092E9008091F00088608093F000C09323
:10140000E900FF91EF91CF91BF91AF919F918F91A3
:101410007F916F915F914F913F912F910F900FBEF0
:101420000F901F901895CF92DF92EF92FF920F933B
:101430001F93CF93DF937C018B01EA010E94610827
:10144000811131C0209731F088819981081B190BD7
:10145000E80EF91EC12CD12C0115110519F180914E
:10146000E80085FD14C08091E8008E778093E80045
:10147000209741F0888199818C0D9D1D99838883E7
:1014800085E011C00E946108882331F30CC0F70188
:1014900081917F018093F10001501109FFEFCF1A74
:1014A000DF0ADACF80E0DF91CF911F910F91FF909B
:1014B000EF90DF90CF9008952091BC013091BD0155
:1014C0002617370748F06115710539F42091E800B7
:1014D0002E772093E80001C0B901FC0120E06115DE
:1014E0007105A9F18091B5018823E9F18530E9F111
:1014F0008091E80083FD35C08091E80082FF06C03E
:101500008091E80082FF26C080E008958091E80085
:1015100080FFE5CF2091F3008091F20090E0922BC4
:101520006115710551F08830910538F421912093AF
:10153000F100615071090196F3CF21E0089709F09D
:1015400020E08091E8008E778093E800C8CF2111D9
:10155000C9CFD6CF8091B501882329F0853081F697
:1015600004C081E0089582E0089583E00895209109
:10157000BC013091BD012617370748F06115710590
:1015800039F42091E8002E772093E80001C0B901DA
:10159000FC0120E061157105C1F18091B50188233E
:1015A00009F43FC0853009F43EC08091E80083FD16
:1015B00036C08091E80082FF06C08091E80082FF7B
:1015C00027C080E008958091E80080FFE3CF20915C
:1015D000F3008091F20090E0922B6115710559F0B3
:1015E0008830910540F424912093F10031966150A8
:1015F00071090196F2CF21E0089709F020E080916F
:10160000E8008E778093E800C5CF2111C6CFD5CFF3
:101610008091B501882329F0853079F604C081E0F6
:10162000089582E0089583E008950F931F93CF9368
:10163000DF93CDB7DEB7AA970FB6F894DEBF0FBE23
:10164000CDBFE6EBF1E08091F100819321E0EE3B2C
:10165000F207C9F70E94A1068091E80083FF1DC12F
:101660002091B6013091B701832F90E08A30910527
:1016700008F013C1FC01EA5AFF4F0C94C521203831
:1016800081F0223809F009C18091BA018F708093EE
:10169000E9008091EB0085FB882780F91092E90032
:1016A00006C08091B2019091B30191118260909136
:1016B000E800977F9093E8008093F1001092F1008A
:1016C000C6C0822F8D7F09F0E8C0222319F0223096
:1016D00061F0E3C08091B801813009F0DEC03330A1
:1016E00009F080E08093B30128C08091B801811196
:1016F00024C02091BA012F7009F4CFC02093E900D3
:101700008091EB0080FF19C08091EB00333011F421
:10171000806211C080618093EB0081E090E0022E36
:1017200001C0880F0A94EAF78093EA001092EA0059
:101730008091EB0088608093EB001092E90080912B
:10174000E800877F87C02111A8C01091B8011F77DA
:101750000FB7F8948091E800877F8093E8000E949B
:1017600040088091E80080FFFCCF8091E300807802
:10177000812B8093E30080688093E300112311F0B4
:1017800083E001C082E08093B5010FBF86C020587E
:10179000223008F082C08091B8019091B9018C3D4F
:1017A00023E0920779F583E08A838AE289834FB741
:1017B000F894DE01139620E03EE051E2E32FF0E0E2
:1017C00050935700E49120FF03C0E295EF703F5F14
:1017D000EF708E2F90E0EA3010F0C79601C0C096EF
:1017E0008D939D932F5F243149F74FBF8091E8007F
:1017F000877F8093E8006AE270E0CE0101960E9444
:101800005C0A14C0AE014F5F5F4F6091BA010E9445
:101810009F07009709F441C02091E800277F20939B
:10182000E800BC0189819A810E94B70A8091E80092
:101830008B778093E80031C0203879F58091E800FB
:10184000877F8093E8008091B1018093F1008091BF
:10185000E8008E778093E8000E9440081EC02111A6
:101860001CC09091B8019230C0F48091E800877F4D
:101870008093E8009093B1010E9440088091B101EB
:10188000811104C08091E30087FF02C084E001C0A1
:1018900081E08093B5010E9497068091E80083FF64
:1018A0000AC08091EB0080628093EB008091E80099
:1018B000877F8093E800AA960FB6F894DEBF0FBE2C
:1018C000CDBFDF91CF911F910F9108959093340177
:1018D000809333010895E0913301F0913401309702
:1018E00021F00190F081E02D099480E00895FF92AD
:1018F0000F931F93CF93DF938C01E0913301F0910D
:101900003401309799F10280F381E02D099580919F
:101910008E0182FF2BC080FF04C080EC92E00E9409
:101920004302E80188E0F82E0AEB12E080918E0174
:1019300080FF0BC088811F928F931F930F930E948B
:10194000DC020F900F900F900F90FA942196F110F7
:10195000EDCF80918E0180FF09C088EB92E0DF918E
:10196000CF911F910F91FF900C944302DF91CF9183
:101970001F910F91FF900895209131013091320114
:101980008217930771F09093320180933101E091B7
:101990003301F0913401309721F00680F781E02D7A
:1019A0000994089520912F013091300182179307F7
:1019B00071F09093300180932F01E0913301F09109
:1019C0003401309721F00084F185E02D09940895C9
:1019D0000E94801A0E942F030E94241B0E947120E3
:1019E0000E942E1F0E94AB1C0E94F51D0C94AA2180
:1019F000CF93C82F80918E0182FF1EC080FF04C04C
:101A000089ED92E00E94430280918E0180FF0CC01C
:101A10001F92CF9324ED32E03F932F930E94DC027C
:101A20000F900F900F900F9080918E0180FF04C057
:101A300082ED92E00E9443028C2FCF910C94901F74
:101A40005F926F927F928F929F92AF92BF92CF924E
:101A5000DF92EF92FF920F931F93CF93DF93CDB757
:101A6000DEB72A970FB6F894DEBF0FBECDBF0E9437
:101A70005B0396E3C92E91E0D92E00E010E0AA2482
:101A8000A394B12C502E802F0E9475043C01F601C6
:101A9000E190F1906F01E826F926E114F104B1F428
:101AA0000F5F1F4F0530110569F78FEF89838A8318
:101AB0001B820E94891A8160782F9D838C834981C3
:101AC0005A816B818D810E9461123AC080918E0192
:101AD00081FD0E947E0420E030E04501022E02C01C
:101AE000880C991C0A94E2F7C4018E219F21892B4E
:101AF00009F12E835F826820792081E0672809F44C
:101B000080E088870E94891A8160782F9A87898768
:101B10004E815F8168858A850E946112F801EE0F0F
:101B2000FF1FEA5CFE4F8081918188259925918372
:101B3000808306C02F5F3F4F2E30310571F6B0CF46
:101B4000109135010E946B0C1817D9F00E946B0C94
:101B5000809335012A960FB6F894DEBF0FBECDBF35
:101B6000DF91CF911F910F91FF90EF90DF90CF9079
:101B7000BF90AF909F908F907F906F905F900C94EC
:101B8000F80C2A960FB6F894DEBF0FBECDBFDF91DA
:101B9000CF911F910F91FF90EF90DF90CF90BF906A
:101BA000AF909F908F907F906F905F900895882363
:101BB00009F4B9C0823859F40E946B0C81FDB3C09E
:101BC00089E30E94A2170E947C1789E30CC0833826
:101BD00071F40E946B0C80FDA6C083E50E94A217E1
:101BE0000E947C1783E50E944B180C947C17843864
:101BF00059F40E946B0C82FD96C087E40E94A217E4
:101C00000E947C1787E4EFCF9CEF980F913A18F46D
:101C10000E94A217EACF90E2980F983050F4877094
:101C200091E001C0990F8A95EAF7892F0E94C718A1
:101C3000DCCF9BE5980F933070F4853A29F0863A13
:101C400031F482E890E005C081E890E002C083E8CA
:101C500090E00C94BC0C98E5980F933108F063C0A9
:101C6000883A39F1893A41F18A3A49F18B3A51F18E
:101C70008C3A59F18D3A61F1803B69F18E3A71F1FC
:101C80008F3A79F1813B81F1823B89F1833B91F17C
:101C9000843B99F1853BA1F1863BA9F1873BB1F1EA
:101CA000883BB9F1893BC1F18A3BC9F58AE292E0F0
:101CB00038C082EE90E035C089EE90E032C08AEE06
:101CC00090E02FC085EB90E02CC086EB90E029C01F
:101CD00087EB90E026C08CEC90E023C08DEC90E088
:101CE00020C083E891E01DC08AE891E01AC082E933
:101CF00091E017C084E991E014C081E292E011C044
:101D000083E292E00EC084E292E00BC085E292E0B2
:101D100008C086E292E005C087E292E002C080E05F
:101D200090E00C94D20C0895882309F44BC08238BB
:101D300059F40E946B0C81FF45C089E30E94A217F1
:101D40000E947C1789E30CC0833871F40E946B0CED
:101D500080FF38C083E50E94A2170E947C1783E5AC
:101D60000E944B180C947C17843859F40E946B0C19
:101D700082FF28C087E40E94A2170E947C1787E494
:101D8000EFCF9CEF980F913A58F390E2980F98306C
:101D900050F4877091E001C0990F8A95EAF7892F76
:101DA0000E94CD18DFCF9BE5980F933020F480E0A0
:101DB00090E00C94BC0C885A833120F480E090E0D1
:101DC0000C94D20C0895882321F00E94C7180C941B
:101DD0007C170895882321F00E94CD180C947C175D
:101DE0000895CF92DF92EF92FF920F931F93CF93BC
:101DF000DF93CDB7DEB728970FB6F894DEBF0FBEDE
:101E0000CDBF8C0185E0F801DE01119601900D92A5
:101E10008A95E1F7F80140813181F2802581229590
:101E20002F7083819481892B31F03F3F31F481E021
:101E30004F3F19F403C081E001C080E080FDE8C29B
:101E400049833A8389819A812F830E943A179E831E
:101E500088870E9439170E9461164E81E42FE2950F
:101E6000EF70F0E0E05AFF4F2F8168850C94C52198
:101E7000842F807F142F1F70882311F01295107FFC
:101E8000FF2059F0112309F404C2812F68870E94B2
:101E9000D7180E947C176885FCC1862F0E94940E7B
:101EA000112309F4B5C2812F0E94DD1828960FB6C0
:101EB000F894DEBF0FBECDBFDF91CF911F910F9180
:101EC000FF90EF90DF90CF900C947C17342F307FF1
:101ED000842F8F70303211F08295807F662319F045
:101EE000613009F12AC0FF20A1F0222381F12130C5
:101EF00071F528960FB6F894DEBF0FBECDBFDF9107
:101F0000CF911F910F91FF90EF90DF90CF900C94A5
:101F1000E718222319F0213009F47AC28E830E9437
:101F2000EA188E813AC1FF2021F0263008F070C2F5
:101F30000EC0253008F06CC230C1FF20C1F0222352
:101F400031F0F801958190FFA4C19F709583289688
:101F50000FB6F894DEBF0FBECDBFDF91CF911F91BA
:101F60000F91FF90EF90DF90CF900C94E30E22231F
:101F700009F413C1A2C1842F837009F076C0F11057
:101F800047C2262F229526952770220F220F862FD3
:101F90008F70C82ED12CE12CF12C022E04C0CC0C59
:101FA000DD1CEE1CFF1C0A94D2F764FF10C06FE02A
:101FB00070E080E090E004C0660F771F881F991FD3
:101FC0002A95D2F7609570958095909503C060E052
:101FD00070E0CB01242F269526952370422F50E0E8
:101FE00042305105D1F04330510559F16C297D291A
:101FF0008E299F294130510541F128960FB6F8945A
:10200000DEBF0FBECDBFDF91CF911F910F91FF902B
:10201000EF90DF90CF900C9476166C297D298E2955
:102020009F2928960FB6F894DEBF0FBECDBFDF9173
:10203000CF911F910F91FF90EF90DF90CF900C9474
:1020400088160E947616C701B60128960FB6F89436
:10205000DEBF0FBECDBFDF91CF911F910F91FF90DB
:10206000EF90DF90CF900C946416FF2019F0842F2E
:10207000817001C08695882309F4CAC1262F229554
:1020800026952770220F220F862F8F70C82ED12CF5
:10209000E12CF12C022E04C0CC0CDD1CEE1CFF1C2C
:1020A0000A94D2F764FF10C06FE070E080E090E027
:1020B00004C0660F771F881F991F2A95D2F7609575
:1020C00070958095909503C060E070E0CB01242F5F
:1020D000269526952370422F50E042305105D1F0CD
:1020E0004330510559F16C297D298E299F294130B2
:1020F000510541F128960FB6F894DEBF0FBECDBF53
:10210000DF91CF911F910F91FF90EF90DF90CF90D3
:102110000C9415176C297D298E299F2928960FB6B6
:10212000F894DEBF0FBECDBFDF91CF911F910F910D
:10213000FF90EF90DF90CF900C9427170E94151717
:10214000C701B60128960FB6F894DEBF0FBECDBF0B
:10215000DF91CF911F910F91FF90EF90DF90CF9083
:102160000C940317603F49F118F4603E48F48CC0AA
:10217000623F09F451C0E0F1633F09F461C084C0DB
:10218000162F1F70842F8F71FF2021F00E94AE1632
:10219000812FDDCE0E94C916812F28960FB6F894A4
:1021A000DEBF0FBECDBFDF91CF911F910F91FF908A
:1021B000EF90DF90CF900C94EA0EFF20A9F025302D
:1021C00008F026C1842F8F7128960FB6F894DEBFD1
:1021D0000FBECDBFDF91CF911F910F91FF90EF9078
:1021E000DF90CF900C94E816263008F011C1EACFAA
:1021F000FF20A1F0842F8F7128960FB6F894DEBFD0
:102200000FBECDBFDF91CF911F910F91FF90EF9047
:10221000DF90CF900C94AE16FF2061F3842F8F7166
:1022200028960FB6F894DEBF0FBECDBFDF91CF91D9
:102230001F910F91FF90EF90DF90CF900C94C916F3
:10224000FF2091F0842F8F7128960FB6F894DEBF8F
:102250000FBECDBFDF91CF911F910F91FF90EF90F7
:10226000DF90CF900C949F1628960FB6F894DEBF9F
:102270000FBECDBFDF91CF911F910F91FF90EF90D7
:10228000DF90CF900C949A16FF20A1F0222309F43E
:10229000B1CF862F28960FB6F894DEBF0FBECDBF04
:1022A000DF91CF911F910F91FF90EF90DF90CF9032
:1022B0000C94D70D222309F4B1CF862F28960FB6A0
:1022C000F894DEBF0FBECDBFDF91CF911F910F916C
:1022D000FF90EF90DF90CF900C94940E4F70C80158
:1022E0000E94ED0228960FB6F894DEBF0FBECDBF58
:1022F000DF91CF911F910F91FF90EF90DF90CF90E2
:102300000C94C915F11084C0662341F0842F8F709E
:10231000843021F0407F862F8F70482B942F9F7040
:10232000492F50E04230510509F440C0BCF441153A
:10233000510561F14130510509F06AC028960FB688
:10234000F894DEBF0FBECDBFDF91CF911F910F91EB
:10235000FF90EF90DF90CF900C94301E43305105EA
:10236000A9F14430510509F053C0862F28960FB6C5
:10237000F894DEBF0FBECDBFDF91CF911F910F91BB
:10238000FF90EF90DF90CF900C94C91E28960FB667
:10239000F894DEBF0FBECDBFDF91CF911F910F919B
:1023A000FF90EF90DF90CF900C94061E28960FB60A
:1023B000F894DEBF0FBECDBFDF91CF911F910F917B
:1023C000FF90EF90DF90CF900C945F1E28960FB691
:1023D000F894DEBF0FBECDBFDF91CF911F910F915B
:1023E000FF90EF90DF90CF900C94911E4F70C8013A
:1023F00028960FB6F894DEBF0FBECDBFDF91CF9108
:102400001F910F91FF90EF90DF90CF900C94F90205
:1024100028960FB6F894DEBF0FBECDBFDF91CF91E7
:102420001F910F91FF90EF90DF90CF9008950E9441
:10243000E4180E94B6180C947C170E94D4180C94CF
:1024400017120E943A17292F22952F7030E02C3056
:1024500031054CF42A3031056CF422503109223018
:10246000310570F407C02C30310531F02F303105C3
:1024700019F006C081E0089593FB882780F908953C
:1024800080E00895CF93DF9300D000D01F92CDB7A6
:10249000DEB70F900F900F900F900F90DF91CF91BC
:1024A0000895CF93DF9300D000D000D0CDB7DEB732
:1024B00026960FB6F894DEBF0FBECDBFDF91CF9149
:1024C0000895CF93DF93CDB7DEB72B970FB6F8946F
:1024D000DEBF0FBECDBF4F83588769877A878B8752
:1024E000DE01119686E0FD0111928A95E9F785E0FB
:1024F000FE01379601900D928A95E1F74F8158853C
:1025000069857A858B850E940E0549815A816B8188
:102510007C818D819E810E941A152B960FB6F894AE
:10252000DEBF0FBECDBFDF91CF9108951F93CF9334
:10253000DF93C091400116E080914101C81799F0E6
:10254000D0E01C9FF0011D9FF00D1124EE5BFE4FAB
:102550004081518162817381848195810E945112F1
:102560002196C770E9CFDF91CF911F9108954091D7
:1025700072015091730160917401709175018091A5
:102580007601909177010C945112CF93809177014D
:1025900082958F7009F05FC080917401882309F4DF
:1025A0005AC020914001A091410160917201709147
:1025B0007301809175019091760131E06F3F09F0D0
:1025C00030E0B32FC6E02A1709F445C0009721F088
:1025D0007F3F21F44B2F03C041E001C040E030E0D9
:1025E00040FD35C0C29FF001C39FF00D1124EE5B8A
:1025F000FE4F418174132BC04081641328C0428177
:10260000411125C0438154814817590710F44150A6
:102610005109481B590B483C5105C8F4809177017A
:102620008F7080618093770186E0829FF001839FA5
:10263000F00D1124E95BFE4F80818F7080618083F3
:1026400082E791E00E94F10ECF910C9496122F5FD9
:102650003F4F2770B8CFCF910895CF92DF92EF927E
:10266000FF920F931F93CF93DF93CDB7DEB762979F
:102670000FB6F894DEBF0FBECDBF8C0185E0F80128
:10268000DE011D9601900D928A95E1F7D8014C91DB
:1026900011965C91119712966C9112971396ED908A
:1026A000FC90149770917201E09173012091750173
:1026B000309176012115310531F0EF3F31F481E0A1
:1026C0007F3F19F403C081E001C080E0B82FB170F2
:1026D000CB2E80FD6CC1D0907401DD2009F4F5C0D3
:1026E000F0917701E216F30638F0C701821B930BD5
:1026F000883C910548F09BC0209530952E0D3F1DDC
:10270000283C310508F093C08F2F807F09F052C01C
:10271000E51314C0741312C0D62E61110FC0FF70E0
:10272000F061F09377010E94B71282E791E00E9476
:10273000F10E80917701F80185836CC1EF2831F0AB
:102740005F3F31F481E04F3F19F403C081E001C0E5
:1027500080E080FD03C081E0862701C080E0F82F83
:10276000F170FF2E80FF1CC080914001209141013B
:1027700036E0821709F428C190E0389FF001399FB4
:10278000F00D1124EE5BFE4F7181571306C070816E
:10279000471303C07281671303C001968770E9CFA6
:1027A000D62E662309F436C180917701816080932B
:1027B000770153C0E51308C0741306C0611104C04B
:1027C000D8011596FC93AEC04D875E878D859E859A
:1027D0006A8B0E9421126A89882329F1D62E6623EA
:1027E00011F120917701822F82958F7090E00297EE
:1027F0000CF460C0809172019091730198878F836F
:102800001986FB86EA862C87CE01079651C0E5170C
:1028100031F14D875E878D859E856A8B0E942112DE
:102820006A8981112EC0C8010E94F10EA4C08F2FA9
:10283000807F69F77E2DF98AE88A89890E94421291
:1028400082E791E00E94F10EE2E7F1E086E0DF012D
:102850001D928A95E9F70E94B712D12CDBC0741340
:10286000D8CF6111D6CFD8011596FC93C8010E942C
:10287000F10EE2E7F1E086E0DF011D928A95E9F7CB
:10288000C9C0D62E662379F220917701822F8295D6
:102890008F7090E0029774F08091720190917301B3
:1028A0009A8389831B82FD82EC822E83CE0101965E
:1028B0000E94F10E86E0F801A2E7B1E001900D92CE
:1028C0008A95E1F70E94C5126FC0E216F30628F060
:1028D000C701821B930B9C0104C0209530952E0DDF
:1028E0003F1D283C310508F052C0D62E662309F45E
:1028F0009ACFE5132CC074132AC08091770180FD14
:102900001DC0982F92959F70C9F0D80115968C9391
:1029100015979F3039F09F5F9295907F8F70892B2C
:1029200015968C93C8010E94F10E86E0F801A2E78B
:10293000B1E001900D928A95E1F736C086E0F8018A
:10294000A2E7B1E001900D928A95E1F763C04D874F
:102950005E878D859E850E942112882379F086E00E
:10296000F801A2E7B1E001900D928A95E1F70E948B
:10297000C5120E94B712DD24D3944CC08091770118
:10298000816080937701C8010E94F10E43C07E2DC3
:10299000F98AE88A89890E944212E2E7F1E086E03A
:1029A000DF011D928A95E9F70E94B71233C06623B2
:1029B00009F439CF4D875E878D859E850E9421124F
:1029C000882309F430CFCBCF4D875E878D859E85D8
:1029D0000E943A17292F22952F7030E022303105BE
:1029E0002CF49F7041F0811106C00CC024303105D9
:1029F0002CF49F7049F4805E883020F0C8010E945A
:102A0000F10ECF2CDC2C06C0D80115969C91907F3E
:102A100091F7F8CF8D2D62960FB6F894DEBF0FBEFA
:102A2000CDBFDF91CF911F910F91FF90EF90DF907D
:102A3000CF9008951F93CF93DF93CDB7DEB72C9738
:102A40000FB6F894DEBF0FBECDBF4F83588769879E
:102A50007A878B879C87CE0107960E942D13882347
:102A6000D1F02F8138858A859B85892B31F03F3FB6
:102A700031F481E02F3F19F403C081E001C080E010
:102A800080FD47C04F81588569857A858B859C85F7
:102A90000E9451123EC086E0FE013796DE0111967B
:102AA00001900D928A95E1F7FF81E8854A855B8563
:102AB0004115510531F0EF3F31F481E0FF3F19F44A
:102AC00003C081E001C080E080FD23C0209141016E
:102AD00030E0C9010196877099276091400170E04C
:102AE00086179707F1F1F983EA835D834C8396E0BB
:102AF000929FD001939FB00D1124AE5BBE4FFE019B
:102B0000319601900D929A95E1F7809341010E94D0
:102B1000961216E08091400190914101891779F158
:102B2000189FC00111248E5B9E4F0E942D13882395
:102B300031F1E09140011E9FF0011124EE5BFE4F48
:102B40004081518162817381848195810E945112FB
:102B50008091400190E00196877099278093400111
:102B6000D9CF0E941D121092410110924001E2E75C
:102B7000F1E086E0DF011D928A95E9F7CACF2C9635
:102B80000FB6F894DEBF0FBECDBFDF91CF911F917E
:102B90000895EF92FF920F931F93CF93DF939C01C1
:102BA000009709F46FC0F12CEE24E394E90121961B
:102BB000F9018491843740F4843008F054C08130A6
:102BC00081F0823021F15EC0853709F447C0B0F151
:102BD0009CE7980F903708F055C08F770E94940EAD
:102BE00044C089010E5F1F4FFE01849190E2980F4F
:102BF000983050F48770FE2D01C0FF0F8A95EAF7D8
:102C00008F2F0E94D71815C00E94D70D12C08901BE
:102C10000E5F1F4FFE01849190E2980F983058F498
:102C20008770FE2D01C0FF0F8A95EAF78F2F0E9453
:102C3000DD18E8011AC00E94940EFBCF2E5F3F4FB3
:102C4000FE01C491CC2341F08FE99FE00197F1F799
:102C500000C00000C150F6CFE90107C0FE01F490AA
:102C6000E901229602C00E94D70D8F2D882341F0E2
:102C7000EFE9FFE03197F1F700C000008150F6CF97
:102C80009E0194CFDF91CF911F910F91FF90EF9014
:102C9000089560937C0170937D0180937E019093F1
:102CA0007F010E94C61F0C941712609378017093E5
:102CB000790180937A0190937B010E940A200C9401
:102CC000171208950C9449160F931F9300917C01DD
:102CD00010917D0120917E0130917F01602B712B3D
:102CE000822B932B1F910F910C9449160F931F93D6
:102CF00000917C0110917D0120917E0130917F0136
:102D000060237123822393231F910F910C94491602
:102D10000F931F9300917C0110917D0120917E0102
:102D200030917F0160277127822793271F910F9190
:102D30000C94491660E070E0CB010C94551641E00C
:102D400050E060E070E004C0440F551F661F771F1D
:102D50008A95D2F7CB01BA010C94551641E050E0A8
:102D600060E070E004C0440F551F661F771F8A950E
:102D7000D2F78091780190917901A0917A01B09178
:102D80007B01482B592B6A2B7B2BCB01BA010C946E
:102D9000551641E050E060E070E004C0440F551F5C
:102DA000661F771F8A95D2F740955095609570956C
:102DB0008091780190917901A0917A01B0917B0185
:102DC000482359236A237B23CB01BA010C9455165F
:102DD00041E050E060E070E004C0440F551F661F02
:102DE000771F8A95D2F78091780190917901A0910F
:102DF0007A01B0917B01482759276A277B27CB01AD
:102E0000BA010C9455160F931F93009178011091FD
:102E1000790120917A0130917B01602B712B822BFB
:102E2000932B1F910F910C9455160F931F930091A4
:102E300078011091790120917A0130917B01602312
:102E40007123822393231F910F910C9455160F9396
:102E50001F93009178011091790120917A013091AE
:102E60007B0160277127822793271F910F910C9474
:102E700055160895CF92DF92EF92FF920F931F9312
:102E8000CF93DF93EC01C0907C01D0907D01E09066
:102E90007E01F0907F018091780190917901A0915D
:102EA0007A01B0917B01C82AD92AEA2AFB2A0FE1CC
:102EB00010E0B701A601002E04C0769567955795DE
:102EC00047950A94D2F740FF07C0BE01802F0E94A9
:102ED0008F198130910539F40150110950F7BE0165
:102EE00080E00E948F19DF91CF911F910F91FF9089
:102EF000EF90DF90CF900895E0910C01F0910D01DB
:102F000080918D018083E0910C01F0910D01808111
:102F100090918C01892B808390918001992361F09D
:102F2000E0910C01F0910D018081892B80838091CB
:102F3000890181111092800180910C0190910D0105
:102F40000C94770CCF92DF92EF92FF920F931F9326
:102F5000CF93DF93182FE0908B014091890120914E
:102F60000C0130910D01442309F476C000918A01CF
:102F70008E2DFF24FA94C6E0D0E0E82FFF27E7FD6E
:102F8000F095D901AE0FBF1F12969C91911709F4CD
:102F900079C05FEFF51203C0911101C0F82ECF0187
:102FA0000196E6E0F0E0BE010E94B1218013E5CF7A
:102FB0000E1152C08FEFF8120EC0802F992787FD97
:102FC00090950196BF010E94B12180938B014150E1
:102FD0004093890141C08F2D992787FD90950196D7
:102FE000BF010E94B121EE24E394E6E0F0E0C82F97
:102FF000DD27C7FDD0956901CC0EDD1ED6011296E6
:103000006C916623A1F04F2D552747FD5095C901BE
:10301000840F951FDC0112966C93D60112961C92B8
:10302000CA010196BF010E94B121F82E01C0E394AC
:10303000CE010196BF010E94B1218013D8CF802F0D
:10304000992787FD90958E199109069666E070E0A4
:103050000E94B12180938A0140918A01552747FD42
:103060005095F901E40FF51F1283CA01019666E03D
:1030700070E00E94B12180938A01809189018F5F65
:1030800080938901DF91CF911F910F91FF90EF9075
:10309000DF90CF900895EF92FF920F931F93CF93FD
:1030A000DF93E82EE0918B01F0908901FF2009F475
:1030B00056C0C0910C01D0910D0120918A01332797
:1030C00027FD309506E010E0F0E0DE01AE0FBF1FF7
:1030D000AD014E5F5F4F12968C918E1136C0DA01B2
:1030E0001C92FA94F0928901F11004C010928B01A5
:1030F00010928A0120918A01822F992787FD90954D
:10310000059666E070E00E94B121E817F90739F5ED
:1031100040918B01E6E0F0E0822F992787FD9095A2
:103120000596BF010E94B1219C010596BF010E9436
:10313000B1218C0F9D1FDC0112968C91811102C070
:103140002413EACF20938A010AC0CF010196B80167
:103150000E94B121E82F8217930709F0B5CFDF91C4
:10316000CF911F910F91FF90EF90089581E090E033
:10317000E0910C01F0910D01E80FF91F108201960A
:1031800088309105A9F7089580918D010895909157
:103190008D01982B90938D010895809590918D01CC
:1031A000982390938D01089510928D010895909128
:1031B0008C01982B90938C010895809590918C01AF
:1031C000982390938C01089510928C010895809318
:1031D000800108951092800108958B3B60F4883A35
:1031E00000F5853AA8F4843088F4813009F055C0A0
:1031F00081E090E00895803E08F44FC0883E30F0B2
:10320000803F08F44AC090E09065089590E00895EA
:10321000853A09F445C0863A09F045C082E890E451
:103220000895883A09F442C0893A09F442C08A3ABA
:1032300009F442C08B3A09F442C08C3A09F442C006
:103240008D3A09F442C0803B09F442C08E3A09F439
:1032500042C08F3A09F442C0813B09F442C0823B2C
:1032600009F442C0833B09F442C0843B09F442C0E4
:10327000853B09F442C0863B09F442C0873B09F410
:1032800042C0883B09F442C0893B09F442C08A3BF2
:1032900009F042C08AE296E4089580E090E0089543
:1032A00081E890E4089583E890E4089582EE94E440
:1032B000089589EE94E408958AEE94E4089585EBE8
:1032C00094E4089586EB94E4089587EB94E40895DC
:1032D0008CEC94E408958DEC94E4089583E895E4EF
:1032E00008958AE895E4089582E995E4089584E9CB
:1032F00095E4089581E296E4089583E296E40895C2
:1033000084E296E4089585E296E4089586E296E4E0
:10331000089587E296E4089580E094E408950E9479
:103320001403803EA8F4803C00F5813309F45CC0AE
:1033300038F4893209F452C08A3209F45BC05FC0A4
:103340008933B1F08238A1F0853309F441C057C008
:10335000833E41F128F4803E99F0823EB9F04FC09F
:10336000863E31F1873E71F14AC00E9418030895EC
:103370009091B00190FD02C091FF41C080EE3FC02E
:103380008091B00180FFFACF89E339C08091B0010C
:1033900082FF0CC08091B00184FF02C080E02FC08A
:1033A00083EE2DC08091B00182FFF4CF82EE27C062
:1033B0008091B00183FF0AC08091B00184FDEECFFF
:1033C00087EE1DC08091B00183FFF6CF86EE17C057
:1033D0008091B00185FF06C089E211C08091B001E3
:1033E00085FFFACF85E30BC08091B00186FF06C050
:1033F0008AE205C08091B00186FFFACF81E30E9486
:10340000ED1808959093900180938F01089582950F
:10341000982F9C7C96959695837344E0849F9001A9
:103420001124922B892F8A7A86959575990F892B6D
:1034300008951F93CF93DF931F92CDB7DEB7998383
:103440000E94071A182F9981892F0E94071A212F8D
:1034500030E0322F2227A901482BCA010F90DF91BB
:10346000CF911F9108959091B501943029F183FF78
:1034700002C090E601C090E48770892B28E130E01B
:103480000FB6F894A895209360000FBE809360005B
:1034900083B7817F846083BF83B7816083BF789463
:1034A000889583B78E7F83BF88E10FB6F8948093A9
:1034B0006000109260000FBE0895CF930E94E50255
:1034C0000E945B030E94E602C0E08C2F0E947504FC
:1034D000892B29F4CF5FC530C1F780E001C081E0BE
:1034E000CF9108950E941D120C94F51D1F920F920A
:1034F0000FB60F9211240F900FBE0F901F901895CA
:1035000082E084BD93E095BD9AEF97BD80936E00F5
:1035100008952FB7F8948091910190919201A09114
:103520009301B09194012FBF08951F920F920FB68F
:103530000F9211248F939F93AF93BF93809191012A
:1035400090919201A0919301B09194010196A11DD7
:10355000B11D8093910190939201A0939301B09338
:103560009401BF91AF919F918F910F900FBE0F90DB
:103570001F9018950E949108F8942FEF87EA91E622
:10358000215080409040E1F700C0000087E090EBC0
:10359000DC018093BF019093C001A093C101B0935F
:1035A000C2012CE088E190E00FB6F894A8958093D2
:1035B00060000FBE20936000FFCFCF92DF92EF92AA
:1035C000FF920F931F93CF93DF93C82ED12C01E06E
:1035D00010E08D2D0E9475047C01C0E0D0E09801C0
:1035E0000C2E02C0220F331F0A94E2F72E213F2136
:1035F000232B29F42196CE30D10589F709C06C2FF1
:103600007D2D80E00E941403C812F4CF81E005C034
:10361000D39485E0D812DDCF80E0DF91CF911F9168
:103620000F91FF90EF90DF90CF900895CF93C82F28
:103630008CE20E94DD1A882321F08C2FCF910C940C
:10364000DD1A80E0CF910895CF930E947C1C8111F8
:1036500002C00E94571C83EF92E00E944302C5E61D
:10366000C15049F00E945B038FE39CE90197F1F799
:1036700000C00000F5CF8CEE92E00E94430289E288
:103680000E94161B811111C18AE20E94161B882319
:1036900041F00E94761C0E94571C0E9435210E9416
:1036A0009E2085E00E94161B81110E94BA1A0E947A
:1036B000871C80938E0187E00E94161B882399F156
:1036C0008BE10E94161B882351F090918E0191FB93
:1036D000882780F921E0822780FB91F922C08EE0C3
:1036E0000E94161B882351F090918E0192FB88272F
:1036F00080F921E0822780FB92F913C080E10E94CB
:10370000161B90918E01882341F093FB882780F946
:1037100021E0822780FB93F904C0892F809580FBEC
:1037200090F990938E0180918E010E948B1C0E94D3
:10373000991C8093B00180EE0E94161B882341F0F3
:103740008091B001982F909590FB80F98093B00103
:1037500089E30E94161B882359F09091B00191FBD8
:10376000882780F921E0822780FB91F99093B001AE
:1037700082EE0E94161B882359F09091B00192FBB3
:10378000882780F921E0822780FB92F99093B0018D
:1037900086EE0E94161B882359F09091B00193FB8E
:1037A000882780F921E0822780FB93F99093B0016C
:1037B00083EE0E94161B882359F09091B00194FB70
:1037C000882780F921E0822780FB94F99093B0014B
:1037D00085E30E94161B882359F09091B00195FB58
:1037E000882780F921E0822780FB95F99093B0012A
:1037F00081E30E94161B882359F09091B00196FB3B
:10380000882780F921E0822780FB96F99093B00108
:1038100081E10E94161B882359F09091B00197FB1B
:10382000882780F921E0822780FB97F99093B001E7
:103830008091B0010E949D1C87E20E94161BC82F38
:103840008EE10E94161B8111C2608FE10E94161B3F
:103850008111C46080E20E94161B8111C86081E260
:103860000E94161B8111C06182E20E94161B811109
:10387000C06283E20E94161B8111C06484E20E9430
:10388000161B882311F0C06802C0CC2329F08C2FAE
:103890000E94941C6C2F03C00E94901C682F70E043
:1038A00080E090E0CF910C946216CF9108956DEE78
:1038B0007EEF80E090E00E94FB2160E082E090E0FB
:1038C0000E94ED2160E083E090E00E94ED2160E045
:1038D00084E090E00E94ED2160E085E090E00E94AD
:1038E000ED2160E086E090E00C94ED216FEF7FEF3A
:1038F00080E090E00C94FB2180E090E00E94E721C2
:1039000021E08D3E9E4F09F020E0822F089582E055
:1039100090E00C94DF21682F82E090E00C94ED2180
:1039200083E090E00C94DF21682F83E090E00C941A
:10393000ED2184E090E00C94DF21682F84E090E09A
:103940000C94ED2186E090E00C94DF21682F86E056
:1039500090E00C94ED21E1E8F0E0808188608083C4
:103960008081816080838FB7F89493E09093890081
:1039700090ED909388008FBF0C944E20EFE6F0E01E
:1039800080818260808381E08093A5010C9469200E
:10399000EFE6F0E080818D7F80831092A50180E0CA
:1039A0000E945C2081E00E945C208091A5010C9423
:1039B0006920E82FF0E0EF55FE4F60830895E82F6F
:1039C000F0E0EF55FE4F4081242F30E08FEF90E084
:1039D000861B9109821793071CF48FEF808308954B
:1039E000640F60830895CF93C82F682F80E00E94F2
:1039F000DF1C6C2F81E0CF910C94DF1CE82FF0E0EE
:103A0000EF55FE4F8081861710F410820895861BB3
:103A100080830895CF93C82F682F80E00E94FE1CFA
:103A20006C2F81E0CF910C94FE1C8091A50108952C
:103A30008091A00183608093A00108951092A0015D
:103A4000089580939F01089580939E010895809129
:103A50009D01836080939D01089510929D010895BA
:103A600080939C0108951F920F920FB60F9211241C
:103A70000F931F932F933F934F935F936F937F9376
:103A80008F939F93AF93BF93CF93DF93EF93FF9366
:103A900080919B018F5F80939B0181110DC00E94DB
:103AA0004F208091A1018093A30181E00E944F20CB
:103AB0008091A2018093A40190919B018091A30128
:103AC000981303C080E00E945C2090919B0180913C
:103AD000A401981303C081E00E945C200091A00122
:103AE000011105C030919D01311133C069C0809131
:103AF0009A018F5F813418F480939A01F3CF10926A
:103B00009A01809199018F5F8093990190919E0114
:103B1000981740F710929901C0E0D0E010E0C8017A
:103B20000C2E02C0969587950A94E2F780FF0CC090
:103B300080919F0161E0882321F08C2F0E94FE1C60
:103B400003C08C2F0E94DF1C2196C230D10551F298
:103B5000E6CF809198018F5F813418F480939801AB
:103B60002FC010929801809197018F5F80939701E9
:103B700090919C01981720F5109297012091960141
:103B8000E22FF0E0E85FFC4FE491832F30FDE093FB
:103B9000A10181FDE093A20180919501882339F074
:103BA000211103C0109295010BC0215007C02F377F
:103BB00021F481E08093950103C02F5F209396014B
:103BC000FF91EF91DF91CF91BF91AF919F918F9135
:103BD0007F916F915F914F913F912F911F910F9125
:103BE0000F900FBE0F901F9018950E947C1C8111A2
:103BF00002C00E94571C0E94A21C8093BE0180FF3D
:103C000002C0869501C080E00C94C5048091BE017D
:103C1000982F9695292F30E0283031054CF49F5F7E
:103C2000990F8170892B81608093BE010E94A61C30
:103C300080918E0180FF0FC08091BE0186951F92FA
:103C40008F938AEC93E09F938F930E94DC020F90F6
:103C50000F900F900F908091BE0186950C94C50433
:103C60008091BE01982F969591F09158990F81708F
:103C7000892B8093BE018E7F91E009F490E08091C2
:103C8000BE0190FB80F98093BE010E94A61C80912A
:103C90008E0180FF0FC08091BE0186951F928F9389
:103CA00082EB93E09F938F930E94DC020F900F9022
:103CB0000F900F908091BE0186950C94C504809161
:103CC000BE01982F9095917090FB80F98093BE0172
:103CD000992339F0982F9E7F21F481708260809320
:103CE000BE018091BE010E94A61C80918E0180FFC2
:103CF0000FC08091BE0181701F928F938CE993E079
:103D00009F938F930E94DC020F900F900F900F9063
:103D10008091BE0180FF02C0869501C080E00C94B6
:103D2000C5043091BE01232F26952F5F2F77822F58
:103D300090E0317009972CF4220F232B2093BE01C1
:103D400002C03093BE018091BE018E7F91E009F4E4
:103D500090E08091BE0190FB80F98093BE010E94AB
:103D6000A61C80918E0180FF0FC08091BE018695B8
:103D70001F928F9388E893E09F938F930E94DC02B9
:103D80000F900F900F900F908091BE0186950C942C
:103D9000C504880F9091BE019170982B9093BE013D
:103DA0009E7F21E009F420E08091BE0120FB80F994
:103DB0008093BE010E94A61C8091BE0186950C9442
:103DC000C504DF92EF92FF920F931F93CF93DF937F
:103DD000F82EE62E0091AB010827611101C0B1F168
:103DE000C0E0D0E010E0DC2E0E94151D882359F0C1
:103DF0002091A70130E00C2E02C0369527950A9439
:103E0000E2F720FD1DC0E11009C098010C2E02C090
:103E1000369527950A94E2F720FF12C02091A6015B
:103E20002F2530E00C2E02C0369527950A94E2F734
:103E30008D2D20FF03C00E94480502C00E9451053D
:103E40002196C230D10579F6F092AB01DF91CF9186
:103E50001F910F91FF90EF90DF9008950F931F93A4
:103E6000CF93DF93C0E0D0E001E010E08C2F0E9400
:103E7000AE2094FF0BC08091A60198010C2E01C0CA
:103E8000220F0A94EAF7822B8093A60195FF0BC0BC
:103E90008091A70198010C2E01C0220F0A94EAF725
:103EA000822B8093A7019F70892F90E0823091052B
:103EB00089F083309105D1F08130910511F50C2EF8
:103EC00001C0880F0A94EAF79091A901982B90936A
:103ED000A90117C02091A801C8010C2E01C0880FAC
:103EE0000A94EAF7282B2093A8010BC02091AA017D
:103EF000C8010C2E01C0880F0A94EAF7282B2093E2
:103F0000AA012196C230D10509F0B0CF0E94430525
:103F100061E080E0DF91CF911F910F910C94E11E41
:103F2000CF93DF93D82F8091AA01882361F1C091AC
:103F3000AB0180FF0FC080E00E94AE204D2F50E00B
:103F400002C0559547958A95E2F740FD02C0CE7FA5
:103F500001C0C1608091AA0181FF0FC081E00E9471
:103F6000AE202D2F30E002C0359527958A95E2F7D7
:103F700020FD02C0CD7F01C0C26060E08C2FDF91C8
:103F8000CF910C94E11EDF91CF910895CF92DF92F3
:103F9000EF92FF92CF936B017C018091A90188235E
:103FA00099F1C091AB0180FF11C080E00E94AE206A
:103FB000A701960104C056954795379527958A9590
:103FC000D2F720FD02C0CE7F01C0C1608091A9015F
:103FD00081FF11C081E00E94AE20A701960104C0BC
:103FE00056954795379527958A95D2F720FD02C0BB
:103FF000CD7F01C0C26060E08C2FCF91FF90EF9029
:10400000DF90CF900C94E11ECF91FF90EF90DF9066
:10401000CF900895CF92DF92EF92FF92CF936B01F2
:104020007C018091A801882399F1C091AB0180FFA8
:1040300011C080E00E94AE20A701960104C05695F1
:104040004795379527958A95D2F720FD02C0CE7FF8
:1040500001C0C1608091A80181FF11C081E00E9470
:10406000AE20A701960104C0569547953795279530
:104070008A95D2F720FD02C0CD7F01C0C26060E00A
:104080008C2FCF91FF90EF90DF90CF900C94E11E9A
:10409000CF91FF90EF90DF90CF90089508952091F9
:1040A000A70130E0082E02C0369527950A94E2F762
:1040B00020FD0C94480508952091A70130E0082EBA
:1040C00002C0369527950A94E2F720FD0C9451051D
:1040D0000895811105C061E08091AB010C94E11E4F
:1040E000089587E090E00E94E7219093AD018093CE
:1040F000AC01019661F480E00E943A059093AD0115
:104100008093AC01BC0187E090E00E94FB2189E034
:1041100090E00E94E7219093AF018093AE01019659
:1041200061F481E00E943A059093AF018093AE0163
:10413000BC0189E090E00C94FB21089580E00E948E
:104140003A05BC0187E090E00E94FB2181E00E94DB
:104150003A05BC0189E090E00C94FB21E82FF0E0E7
:10416000EE0FFF1FE455FE4F808191810895DF928D
:10417000EF92FF920F931F93CF93DF9381E190E033
:104180000E94E7217C01C0E0D0E00DEE1EEF0E940E
:104190002B03D82E0E942D03D89EC001112423E0AA
:1041A000880F991F2A95E1F79C01205C3F4FC217A9
:1041B000D30770F4CE0143960E94DF21282F30E010
:1041C000C0FF02C0322F2227020F131F2196DFCF1C
:1041D00081E0E016F10609F080E0DF91CF911F91B8
:1041E0000F91FF90EF90DF90089590E0880F991F56
:1041F00043960C94E72190E0880F991F43960C9406
:10420000FB21EF92FF920F931F93CF93DF9300D088
:10421000CDB7DEB7082F4A8369830E942B03089F1E
:10422000800111240E942D03809F7001819FF00C5A
:1042300011240E942D0369819701689F200D311D73
:104240001124C9014A81840F911D8D5A9F4F0F90EF
:104250000F90DF91CF911F910F91FF90EF900C94F1
:10426000DF218D5A9F4F0C94ED218F929F92AF9238
:10427000BF92CF92DF92EF92FF920F931F93CF9353
:10428000DF930E941F037C010E941C035C01E11468
:10429000F104F1F00E94EA024C01C0E0D0E00DEE22
:1042A0001EEFC815D90520F4F701C590D49002C0BF
:1042B000C12CD12CB6018C2F0E94FB200C0D1D1D92
:1042C000219682E0E80EF11CC032D10551F702C000
:1042D0000DEE1EEFA114B10461F10E94E7027C0112
:1042E000C0E0D0E00E942B03D82E0E942D03D89E60
:1042F000C001112423E0880F991F2A95E1F7C81700
:10430000D907B8F4CE15DF0528F4F501EC0FFD1F31
:10431000D49001C0D12C6D2DCE010E9431216D2D84
:1043200070E0C0FF02C0762F6627060F171F219688
:10433000D9CFB80181E190E0DF91CF911F910F912A
:10434000FF90EF90DF90CF90BF90AF909F908F90B5
:104350000C94FB210E94B720811102C00C943521DE
:10436000089597FB072E16F4009407D077FD09D027
:104370000E94CB2107FC05D03EF4909581959F4F7C
:104380000895709561957F4F0895EE0FFF1F05907A
:10439000F491E02D0994AA1BBB1B51E107C0AA1F91
:1043A000BB1FA617B70710F0A61BB70B881F991FD6
:1043B0005A95A9F780959095BC01CD010895F9997A
:1043C000FECF92BD81BDF89A992780B50895A8E1E6
:1043D000B0E042E050E00C940222262FF999FECF83
:1043E0001FBA92BD81BD20BD0FB6F894FA9AF99A12
:1043F0000FBE019608950E94ED21272F0C94EE2107
:10440000DC01CB01FC01F999FECF06C0F2BDE1BD94
:10441000F89A319600B40D9241505040B8F7089583
:04442000F894FFCF3E
:0E442400055A0527065D05F305BF0501810158
:00000001FF
