:100000000C94E3010C9427020C9427020C94270211
:100010000C9427020C9427020C9427020C942702BC
:100020000C9427020C9427020C9482070C9452081B
:100030000C94DA180C9427020C9427020C942702D3
:100040000C9427020C94971C0C9427020C94270202
:100050000C9427020C94F9180C9427020C94270294
:100060000C9427020C9427020C9427020C9427026C
:100070000C9427020C9427020C9427020C9427025C
:100080000C9427020C9427020C9427020C9427024C
:100090000C9427020C9427020C9427020C9427023C
:1000A0000C9427020C9427020C942702C709E90933
:1000B000D80AE909D80A2E0A520AD80AA70ABA0A9F
:1000C0006B0D6B0D980D980DEF0D7E107E107E1050
:1000D000290E7E10260F260FE10FF70F7E106A10F3
:1000E0003A1B521B1F1BC51BC51B6F1BC51BC51B0A
:1000F000711BC51B7B1B851BC51BC51BC51BC51BDE
:100100006F1B6F1BC51B6F1BC51B5D1BC51BC51B59
:10011000AE1BAE1BAE1BAE1BAE1BAE1BAE1BAE1B97
:10012000AE1BA91BC51BA91BC51BC51BC51BC51B1E
:10013000C51BC51BC51BC51BC51BC51BC51BA91BDB
:10014000C51BC51B6F1B261BB01BB01BB01BB01BF8
:10015000B01BB01BB01BB01BB01BB01BB01BB01B47
:100160008E1BC51B441B016202620162026200F128
:10017000A100D100D200D0291E1F20212223242536
:1001800026272D2E2A2B141A0815171C180C1213AB
:100190002F303139041607090A0B0D0E0F333400C6
:1001A00028E1001D1B0619051110363738C0E5E09F
:1001B000E3E200002C00000000E6C0E7E4353A3B33
:1001C0003C3D3E3F4041424344454C010152010108
:1001D00001B2014901464748010150514F01010157
:1001E0000101014A4B000101000165C1C2C3AAA976
:1001F000A84D4E01010101010000010000000001B5
:10020000010101001080FF012300200C0341006D5B
:10021000006A0036003000000012036700650065C8
:10022000006B006800610063006B000000040309BC
:100230000409025400030100A03209040000010374
:10024000010100092111010001223F00070581037E
:1002500008000A090401000103000000092111013E
:1002600000012236000705820308000A0904020083
:1002700001030000000921110100012239000705D6
:1002800083031000011201100100000008EDFE665A
:100290006001000102000105010906A1010507191D
:1002A000E029E71500250195087501810205081967
:1002B00001290595057501910295017503910105C7
:1002C000071900297715002501957875018102C06D
:1002D00005010980A101850216010026B7001A0157
:1002E000002AB700751095018100C0050C0901A115
:1002F000018503160100269C021A01002A9C027542
:100300001095018100C005010906A101050719E04A
:1003100029E71500250195087501810295017508E9
:1003200081010508190129059505750191029501BD
:10033000750391010507190029FF150025FF950692
:1003400075088100C00000000000000000000001EE
:10035000010102020203030404050506060708085A
:10036000090A0B0B0C0D0E0F10111213151617198D
:100370001A1B1D1E2022232527292B2D2F31333513
:10038000383A3D3F4244474A4D505356595C5F62AC
:1003900066696C7074777B7E82868A8E9195999D52
:1003A000A1A5A9ADB0B4B8BCC0C3C7CBCED2D5D877
:1003B000DBDFE2E4E7EAECEFF1F3F5F7F8FAFBFC58
:1003C000FDFEFFFFFF0011241FBECFEFDAE0DEBF0E
:1003D000CDBF04B603FE24C08091DF019091E001FF
:1003E000A091E101B091E2018730904BA740B04B62
:1003F000B9F41092DF011092E0011092E101109225
:10040000E20114BE84B7877F84BF88E10FB6F894F9
:1004100080936000109260000FBEE0E0F8E3099561
:1004200011E0A0E0B1E0ECE5F2E402C005900D922D
:10043000AE31B107D9F711E0AEE1B1E001C01D92D4
:10044000AF3DB107E1F70E94DB050C942C210C9421
:100450000000089508958CE890E0089584E090E00D
:100460000895611104C0FC018281811103C080E004
:1004700090E0089586E691E00895611118C0FC01AE
:100480008281882371F00E942917827211F085E31E
:1004900001C089E280931E0180911E010E94050C1B
:1004A00004C080911E010E94CD0C0C945A1708952F
:1004B000462F672F0C941820805C0E940C20089512
:1004C00087E791E008958FE691E0089555985D984B
:1004D00080B38F7080BB81B38F7081BB089585E03E
:1004E00008958EE0089580E885BF85BF0E9466026A
:1004F00080B38C7F80BB81B3836081BB6E98769A1A
:100500008AB18F728AB98BB1806D8BB987B18F73C5
:1005100087B988B1806C88B984B1847484B985B195
:100520008B6B85B9E9E2F1E0AFE1B1E01192119294
:100530001D921D9281E0E333F807C1F70895AF9251
:10054000BF92CF92DF92EF92FF920F931F93CF93C0
:10055000DF931F92CDB7DEB7BFE1EB2EB1E0FB2EEC
:10056000870140E0DD24D39485E0C82E423071F04D
:1005700018F4413041F004C0433059F0443061F088
:10058000879A8F980BC0869A8E9808C0859A8D9806
:1005900005C0849A8C9802C0559A5D9880EA8A9525
:1005A000F1F78FB186958D2580FBAA24A0F8B12C98
:1005B000789903C022E030E002C020E030E0C901B9
:1005C0008A299B29669903C024E030E002C020E01C
:1005D00030E0BC01622B732B26B1332727FD309509
:1005E00020953095C9018827990F881F9927A3E086
:1005F000880F991FAA95E1F7862B972B369903C090
:10060000A0E1B0E002C0A0E0B0E08A2B9B2B1899DB
:1006100003C0A0E2B0E002C0A0E0B0E08A2B9B2BB8
:100620004C9903C0E0E4F0E002C0E0E0F0E08E2B83
:100630009F2B199903C020E830E002C020E030E091
:10064000BC01622B732B23B1332727FD30952095F6
:100650003095C9018827990F881F9927982F8827D7
:10066000862B972B1D9903C020E032E002C020E0CA
:1006700030E0822B932B1C9903C020E034E002C0B1
:1006800020E030E0BC01622B732B29B1332727FD1A
:10069000309520953095C9018827990F881F992793
:1006A000982F8827990F990F990F862B972B4E9982
:1006B00003C020E030E102C020E030E0822B932B29
:1006C0001B9903C020E030E202C020E030E0822B22
:1006D000932BD8012D913C9111972817390721F0C0
:1006E0008D939C93C092000149830E9466024981C8
:1006F0004F5F0E5F1F4F453009F038CF80910001EA
:100700008823C9F0815080930001882339F0EFE9F4
:10071000FFE03197F1F700C000000DC0E9E2F1E021
:10072000D7018D919D917D0181939193B9E2EB1653
:10073000B1E0FB06A9F781E00F90DF91CF911F9107
:100740000F91FF90EF90DF90CF90BF90AF90089502
:10075000E82FF0E0EE0FFF1FE75DFE4F80819181F3
:1007600008950895CF93C82F809333018730C0F444
:10077000843010F58130C0F10E94221C0E94821C3E
:100780000E94911CEC2FF0E0ED5FFD4FC4916C2FA7
:1007900080E00E943D1C6C2F81E0CF910C943D1CA9
:1007A0008730A9F0883001F50E94221C0E947C1C31
:1007B0000E94911C81E012C00E94221C0E948B1C8E
:1007C0000E94821C86E08C1BCF910C94941C0E948A
:1007D000221C0E947C1C0E94911C80E00E94851CAF
:1007E00083E0CF910C94881C0E94821C0E94911C73
:1007F000CF910C942C1C1F93CF93DF9300D000D08B
:100800001F92CDB7DEB7162F80913301873029F4C0
:10081000662319F080E20E946E1C809133018830BB
:1008200069F4112359F080E20F900F900F900F9010
:100830000F90DF91CF911F910C94571C0F900F9048
:100840000F900F900F90DF91CF911F910895E82F97
:10085000F0E0EE0FFF1FE95FFD4F85919491089541
:10086000229A2A9A269A2E980895882319F0813080
:1008700019F008952A9808952E9A0895882319F05A
:10088000813019F008952A9A08952E98089580913C
:10089000450108950895CF93DF9300D01F92CDB7FF
:1008A000DEB72091D501243021F523E029839B83F5
:1008B0008A8382E08093E9008FEF9091E800815075
:1008C00095FD06C095ED9A95F1F700008111F5CFE1
:1008D0008091E80085FF0DC040E050E063E070E0EB
:1008E000CE0101960E9496088091E8008E77809351
:1008F000E8000F900F900F90DF91CF910895CF9364
:10090000DF9300D01F92CDB7DEB79C018091D50157
:10091000843019F592E099833B832A839093E90010
:100920008FEF9091E800815095FD06C095ED9A9566
:10093000F1F700008111F5CF8091E80085FF0DC02F
:1009400040E050E063E070E0CE0101960E9496081E
:100950008091E8008E778093E8000F900F900F90C1
:10096000DF91CF910895CF93DF932091D50124306B
:1009700009F044C0EC0180910C018823C1F083E0B0
:100980008093E9008FEF9091E800815095FD06C0BB
:1009900095E19A95F1F700008111F5CF8091E8007B
:1009A00085FF2CC040E050E060E170E017C081E0BE
:1009B0008093E9008FEF9091E800815095FD06C08B
:1009C00095ED9A95F1F700008111F5CF8091E8003F
:1009D00085FF14C040E050E068E070E0CE010E9466
:1009E00096088091E8008E778093E80080E1FE0110
:1009F000A5E3B1E001900D928A95E1F7DF91CF91E7
:100A000008958091D401811107C00E9469078091E7
:100A1000E20084608093E2000895089508950895A7
:100A20000C94D618089542E061EC81E00E9486069D
:100A300042E061EC82E00E94860642E161EC83E0E4
:100A40000C9486068091D701833009F455C030F4A8
:100A5000813071F0823009F495C008958A3009F42C
:100A600081C08B3009F460C0893009F0A3C020C078
:100A70008091D601813A09F09DC08091E800877F7E
:100A80008093E8008091DA019091DB01892B21F4B9
:100A900060E185E391E003C060E080E090E070E019
:100AA0000E94E1088091E8008B778093E800089528
:100AB0008091D601813209F07DC08091DA01909158
:100AC000DB01009719F0029709F074C08091E800EB
:100AD000877F8093E8008091E80082FD05C08091C7
:100AE000D5018111F8CF66C08091F1008093450156
:100AF0008091E8008B775AC08091D601813A09F045
:100B000059C08091DA019091DB01892B09F052C024
:100B10008091E800877F8093E8008091E80080FF63
:100B2000FCCF80910B013DC08091D601813209F04C
:100B300041C08091DA019091DB01892BD9F5809138
:100B4000E800877F8093E8000E94BB069091D8015F
:100B500081E0911101C080E080930B0180930C0132
:100B60000C949B108091D601813221F58091E80090
:100B7000877F8093E8000E94BB068091D901809313
:100B8000340108958091D601813AA1F48091E80062
:100B9000877F8093E8008091E80080FFFCCF809100
:100BA00034018093F1008091E8008E778093E80013
:100BB0000C94BB06089584B7877F84BF88E10FB685
:100BC000F89480936000109260000FBE90E080E87F
:100BD0000FB6F89480936100909361000FBE0E945D
:100BE0000C070E9469078091E20084608093E20014
:100BF00078948091D5018430E1F70E943E0B81E02A
:100C000091E00E94F10A8091D501853071F483E072
:100C10000E9495188091D3018823A9F30E94C118DE
:100C2000882389F30E947006EECF0E944E0BEBCF13
:100C3000292F332723303105C9F064F421303105E1
:100C400081F02230310509F043C084E590E021E3D2
:100C500032E042C021323105F1F02232310541F15A
:100C600037C082E190E025E832E036C09927813034
:100C7000910541F08230910541F0892B49F5EDE273
:100C8000F2E005C0E9E1F2E002C0EBE0F2E08491BD
:100C900090E09F0121C06330D8F4E62FF0E0EE0F22
:100CA000FF1FE85EFE4F2081318189E090E014C093
:100CB000633070F470E0FB01EE0FFF1FEE5EFE4F3D
:100CC00020813181FB01E15FFE4F808190E004C013
:100CD00080E090E020E030E0FA0131832083089545
:100CE00080E189BD82E189BD09B400FEFDCF80911C
:100CF000D8008F7D8093D8008091E000826080933F
:100D0000E0008091E00081FDFCCF0895982F97309E
:100D100058F59093E900981739F07091EC00209104
:100D2000ED005091F00003C0242F762F50E021FFFA
:100D300019C03091EB003E7F3093EB003091ED0015
:100D40003D7F3093ED003091EB0031603093EB004C
:100D50007093EC002093ED005093F0002091EE0092
:100D600027FF07C09F5FD3CF8F708093E90081E09A
:100D7000089580E008958091D60187FF11C0809189
:100D8000E80082FD05C08091D5018111F8CF11C026
:100D90008091E8008B770BC08091D501882349F0C2
:100DA0008091E80080FFF8CF8091E8008E778093F3
:100DB000E80008952091E4003091E50095E6409127
:100DC000EC00842F817040FF22C08091E80080FDFC
:100DD0001CC08091D501882391F0853091F08091DD
:100DE000EB0085FD10C04091E4005091E5004217F2
:100DF000530729F39A01915011F784E0089582E096
:100E0000089583E0089581E0089580E00895409179
:100E1000E80042FFDECF08950E9475070E947D071B
:100E2000E0EEF0E0808181608083E8EDF0E0808199
:100E30008F77808319BCA7EDB0E08C918E7F8C9367
:100E400080818F7E80831092D40108950F931F9329
:100E5000CF93DF930E9475070E947D07C8EDD0E015
:100E600088818F77888388818068888388818F7D57
:100E7000888319BC1092D5011092D1011092D30130
:100E80001092D20100EE10E0F80180818B7F808308
:100E900088818160888342E060E080E00E9486066D
:100EA000E1EEF0E080818E7F8083E2EEF0E08081F1
:100EB00081608083808188608083F80180818E7F5B
:100EC0008083888180618883DF91CF911F910F910A
:100ED0000895E7EDF0E080818160808384E082BF47
:100EE00081E08093D4010C942607E8EDF0E0808146
:100EF0008E7F80831092E20008951092DA001092A3
:100F0000E10008951F920F920FB60F9211242F93B4
:100F10003F934F935F936F937F938F939F93AF9381
:100F2000BF93EF93FF938091E10082FF0BC080910C
:100F3000E20082FF07C08091E1008B7F8093E10097
:100F40000E9412058091DA0080FF1FC08091D800B6
:100F500080FF1BC08091DA008E7F8093DA00809141
:100F6000D90080FF0DC080E189BD82E189BD09B44F
:100F700000FEFDCF81E08093D5010E94010505C0F0
:100F800019BC1092D5010E940D058091E10080FFEF
:100F900019C08091E20080FF15C08091E2008E7F31
:100FA0008093E2008091E20080618093E200809172
:100FB000D80080628093D80019BC85E08093D50169
:100FC0000E940F058091E10084FF2EC08091E20015
:100FD00084FF2AC080E189BD82E189BD09B400FE99
:100FE000FDCF8091D8008F7D8093D8008091E10063
:100FF0008F7E8093E1008091E2008F7E8093E200FB
:101000008091E20081608093E2008091D1018111A2
:1010100006C08091E30087FD02C081E001C084E04A
:101020008093D5010E9410058091E10083FF29C0C3
:101030008091E20083FF25C08091E100877F80934B
:10104000E10082E08093D5011092D1018091E1000E
:101050008E7F8093E1008091E2008E7F8093E2009A
:101060008091E20080618093E20042E060E080E0F5
:101070000E9486068091F00088608093F0000E94B4
:101080000E05FF91EF91BF91AF919F918F917F914D
:101090006F915F914F913F912F910F900FBE0F90E5
:1010A0001F9018951F920F920FB60F9211242F9335
:1010B0003F934F935F936F937F938F939F93AF93E0
:1010C000BF93CF93DF93EF93FF93C091E900CF706D
:1010D0008091EC00D82FD17080FDD0E81092E9000B
:1010E0008091F000877F8093F00078940E949D09A2
:1010F0001092E9008091F00088608093F000CD2B81
:10110000CF70C093E900FF91EF91DF91CF91BF9134
:10111000AF919F918F917F916F915F914F913F918F
:101120002F910F900FBE0F901F901895CF92DF92C6
:10113000EF92FF920F931F93CF93DF93EC018B01FC
:101140006A010E94DA06811133C0C114D10439F05A
:10115000F60180819181081B190BC80FD91FE12C62
:10116000F12C0115110519F18091E80085FD16C0DB
:101170008091E8008E778093E800C114D10449F093
:10118000F60180819181E80EF91EF182E08285E00E
:101190000FC00E94DA06882321F30AC08991809348
:1011A000F10001501109FFEFEF1AFF0ADACF80E0DA
:1011B000DF91CF911F910F91FF90EF90DF90CF9033
:1011C00008952091DC013091DD012617370748F0A2
:1011D0006115710539F42091E8002E772093E8001D
:1011E00001C0B90140E061157105A9F12091D50157
:1011F000222309F441C0253009F440C02091E800C1
:1012000023FD38C02091E80022FD2EC02091E80087
:1012100020FFE9CF4091F3002091F20030E0342B21
:10122000FC01CF016115710559F02830310540F4FA
:1012300081918093F100615071092F5F3F4FF1CF91
:1012400041E02830310509F040E02091E8002E7798
:101250002093E800C8CF4111C9CF06C08091D501C5
:10126000882351F0853051F08091E80082FFF6CF5D
:1012700080E0089581E0089582E0089583E0089574
:101280002091DC013091DD012617370748F0611508
:10129000710539F42091E8002E772093E80001C011
:1012A000B901FC0120E06115710591F18091D50132
:1012B000882309F43EC0853009F43DC08091E800E0
:1012C00083FD35C08091E80082FD2BC08091E8004D
:1012D00080FFE9CF2091F3008091F20090E0922B03
:1012E0006115710559F08830910540F424912093DF
:1012F000F1003196615071090196F2CF21E0089713
:1013000009F020E08091E8008E778093E800CBCF51
:101310002111CCCF06C08091D501882351F08530B2
:1013200051F08091E80082FFF6CF80E0089581E0DF
:10133000089582E0089583E008950F931F93CF935B
:10134000DF93CDB7DEB7AA970FB6F894DEBF0FBE16
:10135000CDBFE6EDF1E088E08E0F9091F100919322
:101360008E13FBCF0E9422058091E80083FF20C1ED
:101370008091D6019091D701492F50E04A30510514
:1013800008F016C1FA01EA5AFF4F0C94E1208038A8
:1013900081F0823809F00CC18091DA018F7080935E
:1013A000E9008091EB0085FB882780F91092E90025
:1013B00006C08091D2019091D301911182609091E9
:1013C000E800977F9093E8008093F1001092F1007D
:1013D000C9C0282F2D7F09F0EBC0882319F0823077
:1013E00061F0E6C08091D801813009F0E1C093300E
:1013F00009F080E08093D3012BC08091D801811146
:1014000027C08091DA018F7009F4D2C08093E9007F
:101410002091EB0020FF1CC0933021F48091EB0061
:10142000806214C09091EB0090619093EB0021E0FA
:1014300030E0A90102C0440F551F8A95E2F740939E
:10144000EA001092EA008091EB0088608093EB0044
:101450001092E9008091E800877F87C08111A8C0C1
:101460001091D8011F770FB7F8948091E800877F1B
:101470008093E8000E94BB068091E80080FFFCCFCB
:101480008091E3008078812B8093E30080688093D3
:10149000E300111102C082E001C083E08093D50116
:1014A0000FBF86C08058823008F082C08091D8017A
:1014B0009091D9018C3D53E0950779F583E08A83BB
:1014C0008AE289834FB7F894DE01139620E03EE06C
:1014D00051E2E32FF0E050935700E49120FF03C066
:1014E000E295EF703F5FEF708E2F90E0EA3010F0E2
:1014F000C79601C0C0968D939D932F5F243149F705
:101500004FBF8091E800877F8093E8006AE270E037
:10151000CE0101960E94E10814C0AE014F5F5F4FFB
:101520006091DA010E941806BC01009709F440C0DE
:101530009091E800977F9093E80089819A810E94BA
:1015400040098091E8008B778093E80031C08038B3
:1015500079F58091E800877F8093E8008091D10140
:101560008093F1008091E8008E778093E8000E94DC
:10157000BB061EC081111CC09091D8019230C0F4EE
:101580008091E800877F8093E8009093D1010E94CA
:10159000BB068091D101811106C08091E30087FDD7
:1015A00002C081E001C084E08093D5010E94130550
:1015B0008091E80083FF0AC08091EB0080628093F5
:1015C000EB008091E800877F8093E800AA960FB631
:1015D000F894DEBF0FBECDBFDF91CF911F910F9169
:1015E000089590934B0180934A01089580914A0198
:1015F00090914B010895E0914A01F0914B01309791
:1016000021F00190F081E02D099480E00895E091AF
:101610004A01F0914B01309721F00280F381E02DD7
:101620000994089520914801309149018217930748
:1016300071F09093490180934801E0914A01F09143
:101640004B01309721F00680F781E02D0994089531
:1016500020914601309147018217930771F09093D2
:10166000470180934601E0914A01F0914B01309788
:1016700021F00084F185E02D099408950E94E4187A
:101680000E9473020E9489190E94841F0E94451EB5
:101690000E940F1C0E94591D0C94C6204F925F920D
:1016A0007F928F929F92AF92BF92CF92DF92EF92F2
:1016B000FF920F931F93CF93DF93CDB7DEB72A9797
:1016C0000FB6F894DEBF0FBECDBF0E949F029DE40F
:1016D000C92E91E0D92E00E010E0AA24A394B12CE9
:1016E000702E802F0E94A8034C01F601419051906A
:1016F0006F014826592641145104B1F40F5F1F4F62
:101700000530110569F78FEF89838A831B820E9458
:10171000ED188160782F9D838C8349815A816B817C
:101720008D810E94DE103AC08091AD0181FD0E9442
:10173000B10320E030E07501022E02C0EE0CFF1C68
:101740000A94E2F7C70184219521892B09F12E83A0
:101750007F828E209F2091E0892809F490E098876D
:101760000E94ED188160782F9A8789874E815F816A
:1017700068858A850E94DE10000F111FF801E35B67
:10178000FE4F80819181E826F926F182E08206C031
:101790002F5F3F4F2E30310571F6B0CF10914C01C5
:1017A0000E94FB0A1817D9F00E94FB0A80934C0193
:1017B0002A960FB6F894DEBF0FBECDBFDF91CF9152
:1017C0001F910F91FF90EF90DF90CF90BF90AF905F
:1017D0009F908F907F905F904F900C94A71E2A96B9
:1017E0000FB6F894DEBF0FBECDBFDF91CF911F9132
:1017F0000F91FF90EF90DF90CF90BF90AF909F90B0
:101800008F907F905F904F900895CF93882309F435
:10181000C2C0C82F823859F40E94FB0A81FDBBC0A8
:1018200089E30E94CD150E945A1789E30CC08338C2
:1018300079F40E94FB0A80FDAEC083E50E94CD15BD
:101840000E945A1783E50E949316CF910C945A1761
:10185000843859F40E94FB0A82FD9DC087E40E94EF
:10186000CD150E945A1787E4EECF8CEF8C0F813A8A
:1018700048F48C2F0E94CD1B81118DC08C2F0E94AB
:10188000CD15E3CF80E28C0F883048F4C77081E03B
:1018900001C0880FCA95EAF70E942C17D6CF8BE5B6
:1018A0008C0F833078F4C53A29F0C63A31F083E8DA
:1018B00090E005C081E890E002C082E890E0CF911E
:1018C0000C94120B88E58C0F833108F064C0C83A81
:1018D00039F1C93A41F1CA3A49F1CB3A51F1CC3A1E
:1018E00059F1CD3A61F1C03B69F1CE3A71F1CF3A8D
:1018F00079F1C13B81F1C23B89F1C33B91F1C43B1A
:1019000099F1C53BA1F1C63BA9F1C73BB1F1C83B79
:10191000B9F1C93BC1F1CA3BC9F180E090E038C0E0
:1019200082EE90E035C089EE90E032C08AEE90E021
:101930002FC085EB90E02CC086EB90E029C087EBB0
:1019400090E026C08CEC90E023C08DEC90E020C0AD
:1019500083E891E01DC08AE891E01AC082E991E035
:1019600017C084E991E014C081E292E011C083E2E3
:1019700092E00EC084E292E00BC085E292E008C0E3
:1019800086E292E005C087E292E002C08AE292E03D
:10199000CF910C94280BCF910895882309F44BC064
:1019A000823859F40E94FB0A81FF45C089E30E94F6
:1019B000CD150E945A1789E30CC0833871F40E9438
:1019C000FB0A80FF38C083E50E94CD150E945A179C
:1019D00083E50E9493160C945A17843859F40E9498
:1019E000FB0A82FF28C087E40E94CD150E945A1787
:1019F00087E4EFCF9CEF980F913A58F390E2980F5D
:101A0000983050F4877091E001C0990F8A95EAF7F9
:101A1000892F0E943217DFCF9BE5980F933020F477
:101A200080E090E00C94120B885A833120F480E01F
:101A300090E00C94280B0895882321F00E942C1725
:101A40000C945A170895882321F00E9432170C94A1
:101A50005A170895CF92DF92EF92FF920F931F9340
:101A6000CF93DF93CDB7DEB727970FB6F894DEBFDD
:101A70000FBECDBF25E0FC01DE01119601900D9255
:101A80002A95E1F7FC01408131810281258122956F
:101A90002F7063817481672B09F430C33F3F19F4C1
:101AA0004F3F09F42BC37C0149833A8389819A8192
:101AB0002F830E948C15182F9E830E948B150E94E5
:101AC0009B149E81E92FE295EF70F0E0E05AFF4F02
:101AD0002F810C94E120892F807F9F70F92E88231D
:101AE00019F0F29480EFF822002349F0FF2009F466
:101AF00043C28F2D0E943C170E945A173DC2812F6E
:101B00000E94CD0CFF2009F4F9C28F2D0E944217CC
:101B100027960FB6F894DEBF0FBECDBFDF91CF91F1
:101B20001F910F91FF90EF90DF90CF900C945A1778
:101B3000892F807F9F70803211F4892F03C0892FF5
:101B40008295807F112319F0113009F12AC00023FA
:101B5000A1F0222381F1213071F527960FB6F89478
:101B6000DEBF0FBECDBFDF91CF911F910F91FF90D0
:101B7000EF90DF90CF900C944C17222319F0213076
:101B800009F4BCC28E830E944F178E8179C1002355
:101B900021F0263008F0B2C20EC0253008F0AEC2E7
:101BA0006FC10023C1F0222331F0F701958190FF2E
:101BB000E3C19F70958327960FB6F894DEBF0FBEE2
:101BC000CDBFDF91CF911F910F91FF90EF90DF90EC
:101BD000CF900C941C0D222309F452C1E1C1292F8E
:101BE00026952695237030E02115310521F021300E
:101BF0003105C1F083C2002319F0812F937002C018
:101C000080E090E027960FB6F894DEBF0FBECDBF00
:101C1000DF91CF911F910F91FF90EF90DF90CF90C8
:101C20000C94120B002319F0812F937002C080E0F6
:101C300090E027960FB6F894DEBF0FBECDBFDF91C0
:101C4000CF911F910F91FF90EF90DF90CF900C9468
:101C5000280B892F837009F079C001114FC2812FA1
:101C6000829586958770880F880F212F2F70C22E3E
:101C7000D12CE12CF12C082E04C0CC0CDD1CEE1C68
:101C8000FF1C0A94D2F714FF12C04FE050E060E04E
:101C900070E004C0440F551F661F771F8A95D2F766
:101CA0008A019B01009510952095309503C000E0B6
:101CB00010E09801969596959370492F50E0C901D0
:101CC000B80142305105D1F04330510559F16C292A
:101CD0007D298E299F294130510541F127960FB664
:101CE000F894DEBF0FBECDBFDF91CF911F910F9152
:101CF000FF90EF90DF90CF900C94B0146C297D2969
:101D00008E299F2927960FB6F894DEBF0FBECDBF50
:101D1000DF91CF911F910F91FF90EF90DF90CF90C7
:101D20000C94C2140E94B014C701B60127960FB6D6
:101D3000F894DEBF0FBECDBFDF91CF911F910F9101
:101D4000FF90EF90DF90CF900C949E14002319F039
:101D5000892F817001C08695882309F4CFC1812F16
:101D6000829586958770880F880F212F2F70C22E3D
:101D7000D12CE12CF12C082E04C0CC0CDD1CEE1C67
:101D8000FF1C0A94D2F714FF12C04FE050E060E04D
:101D900070E004C0440F551F661F771F8A95D2F765
:101DA0008A019B01009510952095309503C000E0B5
:101DB00010E09801969596959370492F50E0C901CF
:101DC000B80142305105D1F04330510559F16C2929
:101DD0007D298E299F294130510541F127960FB663
:101DE000F894DEBF0FBECDBFDF91CF911F910F9151
:101DF000FF90EF90DF90CF900C9467156C297D29B0
:101E00008E299F2927960FB6F894DEBF0FBECDBF4F
:101E1000DF91CF911F910F91FF90EF90DF90CF90C6
:101E20000C9479150E946715C701B60127960FB665
:101E3000F894DEBF0FBECDBFDF91CF911F910F9100
:101E4000FF90EF90DF90CF900C945515103F41F12B
:101E500018F4103E48F48BC0123F09F450C0D8F17A
:101E6000133F09F460C083C01F70892F8F71002356
:101E700021F00E94EE14812F9ECE0E940F15812F1B
:101E800027960FB6F894DEBF0FBECDBFDF91CF917E
:101E90001F910F91FF90EF90DF90CF900C94230D46
:101EA0000023A9F0253008F029C1892F8F712796CA
:101EB0000FB6F894DEBF0FBECDBFDF91CF911F915B
:101EC0000F91FF90EF90DF90CF900C943415263057
:101ED00008F014C1EACF0023A1F0892F8F71279653
:101EE0000FB6F894DEBF0FBECDBFDF91CF911F912B
:101EF0000F91FF90EF90DF90CF900C94EE140023A1
:101F000061F3892F8F7127960FB6F894DEBF0FBE4D
:101F1000CDBFDF91CF911F910F91FF90EF90DF9098
:101F2000CF900C940F15002391F0892F8F71279675
:101F30000FB6F894DEBF0FBECDBFDF91CF911F91DA
:101F40000F91FF90EF90DF90CF900C94D9142796CB
:101F50000FB6F894DEBF0FBECDBFDF91CF911F91BA
:101F60000F91FF90EF90DF90CF900C94D41400234A
:101F7000A1F0222309F4B1CF812F27960FB6F89450
:101F8000DEBF0FBECDBFDF91CF911F910F91FF90AC
:101F9000EF90DF90CF900C94050C222309F4B1CF81
:101FA000812F27960FB6F894DEBF0FBECDBFDF910D
:101FB000CF911F910F91FF90EF90DF90CF900C94F5
:101FC000CD0C492F4F70612FC7010E943102279617
:101FD0000FB6F894DEBF0FBECDBFDF91CF911F913A
:101FE0000F91FF90EF90DF90CF900C9408140111A7
:101FF00085C0112341F0892F8F70843021F0907FAC
:10200000212F2F70922B9F70492F50E042305105A5
:1020100009F440C0BCF44115510561F1413051054E
:1020200009F06CC027960FB6F894DEBF0FBECDBF87
:10203000DF91CF911F910F91FF90EF90DF90CF90A4
:102040000C94811D43305105A9F14430510509F02C
:1020500055C0812F27960FB6F894DEBF0FBECDBFB7
:10206000DF91CF911F910F91FF90EF90DF90CF9074
:102070000C94DF1D27960FB6F894DEBF0FBECDBFC0
:10208000DF91CF911F910F91FF90EF90DF90CF9054
:102090000C946A1D27960FB6F894DEBF0FBECDBF15
:1020A000DF91CF911F910F91FF90EF90DF90CF9034
:1020B0000C949D1D27960FB6F894DEBF0FBECDBFC2
:1020C000DF91CF911F910F91FF90EF90DF90CF9014
:1020D0000C94BC1D492F4F70612FC70127960FB676
:1020E000F894DEBF0FBECDBFDF91CF911F910F914E
:1020F000FF90EF90DF90CF900C943D0227960FB6A3
:10210000F894DEBF0FBECDBFDF91CF911F910F912D
:10211000FF90EF90DF90CF9008950E9449170E94A2
:102120001B170E945A1780E090E00E94120B80E07B
:1021300090E00C94280B0E9439170C948D100E948B
:102140008C15292F22952F7030E02C3031054CF45E
:102150002A30310594F4225031092230310538F407
:102160000CC02C30310529F02F30310511F080E002
:10217000089593FB882780F9089581E00895CF930F
:10218000DF9300D000D01F92CDB7DEB70F900F9035
:102190000F900F900F90DF91CF910895CF93DF9321
:1021A00000D000D000D0CDB7DEB726960FB6F89499
:1021B000DEBF0FBECDBFDF91CF910895CF93DF93E8
:1021C000CDB7DEB72B970FB6F894DEBF0FBECDBFED
:1021D0004F83588769877A878B87DE01119686E05F
:1021E000FD0111928A95E9F785E0FE01379601908D
:1021F0000D928A95E1F74F81588569857A858B859F
:102200000E94FB0349815A816B817C818D819E8173
:102210000E9464132B960FB6F894DEBF0FBECDBF9D
:10222000DF91CF9108951F93CF93DF93C091570112
:1022300016E080915801C81799F0D0E01C9FF0017A
:102240001D9FF00D1124E75AFE4F4081518162819C
:102250007381848195810E94CE102196C770E9CF49
:10226000DF91CF911F9108954091890150918A018A
:1022700060918B0170918C0180918D0190918E0104
:102280000C94CE1080918E0182958F7009F054C00D
:1022900080918B01882309F44FC080915701A09150
:1022A00058016091890170918A0140918C0150918F
:1022B0008D01B6E08A1709F43FC090E04115510541
:1022C000C1F17F3F11F46F3FA1F1B89FF001B99FB9
:1022D000F00D1124E75AFE4F218172132AC020818C
:1022E000621327C02281211124C023813481241745
:1022F000350710F421503109241B350B283C3105DA
:10230000C0F420918E012F70206120938E0126E071
:10231000289FF001299FF00D1124E25AFE4F808181
:102320008F708061808389E891E00E942A0D0C946F
:10233000131101968770BECF0895CF92DF92EF926E
:10234000FF920F931F93CF93DF93CDB7DEB76297C2
:102350000FB6F894DEBF0FBECDBF8C0185E0F8014B
:10236000DE011D9601900D928A95E1F7D8014C91FE
:1023700011965C91119712966C9112971396CD90CD
:10238000DC9014973091890170918A0180918C01C1
:1023900090918D01009709F46BC17F3F19F43F3F85
:1023A00009F466C1E0908B01EE2009F4C0C02091D1
:1023B0008E01C816D90628F0F601E81BF90BCF01EB
:1023C00004C0809590958C0D9D1DFF24F394883C4E
:1023D000910578F0F12C207F09F0C6C07C2DD98AB8
:1023E000C88A89890E94BF1089E891E00E942A0D5D
:1023F000B1C0822F807F09F046C0751314C034131A
:1024000012C0611110C02F70206120938E010E94B4
:10241000341189E891E00E942A0D80918E01D80143
:1024200015968C932EC0CD2819F15F3F11F44F3FC4
:10243000F9F0F62E61111CC08091570120915801CE
:1024400036E0821709F45AC090E0389FF001399FB6
:10245000F00D1124E75AFE4F7181571306C07081A9
:10246000471303C07281711103C001968770E9CFD1
:10247000F62E662309F418C180918E018160809345
:102480008E01F12C11C1751308C0341306C06111FF
:1024900004C080918E01D801C3C04D875E878D85B1
:1024A0009E856A8B0E949F106A898823E1F16623CA
:1024B000D1F120918E01822F82958F7090E002974A
:1024C00074F08091890190918A0198878F83198691
:1024D000DB86CA862C87CE0107960E942A0D86E0ED
:1024E000F801A9E8B1E001900D928A95E1F70E9408
:1024F00042110E943411FF24F394D6C04D875E87A9
:102500008D859E850E948C15292F22952F7030E095
:10251000223031050CF0BCC09F7009F0B6C0805E5F
:10252000883008F4C1C0C8010E942A0DE4CFC81643
:10253000D90608F453C0F601E81BF90BCF01883C1B
:10254000910508F450C0F12C7C2DD98AC88A89895C
:102550000E94BF10E9E8F1E086E0DF011D928A9554
:10256000E9F70E943411A0C0751314C0341312C0CF
:10257000611110C080918E01F8018583C8010E940D
:102580002A0D86E0E9E8F1E0DF011D928A95E9F77E
:10259000FE2C8AC04D875E878D859E856A8B0E9442
:1025A0009F106A89882309F4BECF662309F4BBCF44
:1025B00020918E01822F82958F7090E002970CF40B
:1025C0008ECF8091890190918A019A8389831B82A1
:1025D000DD82CC822E83CE0101967FCF80959095AF
:1025E0008C0D9D1DACCFF62E662309F49CCF751380
:1025F0002EC034132CC020918E0120FD1FC0822FCD
:1026000082958F70D9F0D80115962C9315978F303D
:1026100049F08F5F982F9295907F822F8F70892B32
:1026200015968C93C8010E942A0D86E0F801A9E84E
:10263000B1E001900D928A95E1F793CF86E0F80121
:10264000A9E8B1E001900D928A95E1F72DC04D8780
:102650005E878D859E850E949F10811140CF80915D
:102660008E01816080938E01C8010E942A0D1CC0DA
:10267000662309F458CF4D875E878D859E850E941D
:102680009F10882309F44FCF2ACF811148CF0CC067
:10269000243031050CF047CF9F7009F440CFF8018A
:1026A0009581907F09F03BCF8F2D62960FB6F894FD
:1026B000DEBF0FBECDBFDF91CF911F910F91FF9075
:1026C000EF90DF90CF9008951F93CF93DF93CDB716
:1026D000DEB72C970FB6F894DEBF0FBECDBF4F8389
:1026E000588769877A878B879C87CE0107960E94D7
:1026F0009D11882369F08F8198852A853B85232B3E
:10270000F1F19F3F09F063C08F3F09F060C037C00F
:1027100086E0FE013796DE01119601900D928A95B2
:10272000E1F76F817885EA85FB85309741F17F3F3E
:1027300011F46F3F21F12091580130E0C901019659
:10274000877099274091570150E08417950709F445
:1027500047C069837A83FD83EC8396E0929FD00122
:10276000939FB00D1124A75ABE4FFE0131960190E0
:102770000D929A95E1F7809358010E94131116E08B
:1027800080915701909158018917C1F1189FC0019C
:102790001124875A9E4F0E949D11882379F1E09160
:1027A00057011E9FF0011124E75AFE4F40815181CD
:1027B00062817381848195810E94CE10809157013E
:1027C00090E001968770992780935701D9CF4F8168
:1027D000588569857A858B859C850E94CE10CFCFE0
:1027E0000E949B101092580110925701E9E8F1E005
:1027F00086E0DF011D928A95E9F7C1CF2C960FB6CE
:10280000F894DEBF0FBECDBFDF91CF911F91089529
:10281000EF92FF920F931F93CF93DF938C0100975A
:1028200009F46AC0F12CEE24E394E8012196F80142
:102830008491843740F4843008F04FC0813081F0B7
:10284000823019F159C0853709F442C098F19CE7EC
:10285000980F903708F050C08F770E94CD0C3FC082
:102860000E5F1F4FFE01C49180E28C0F883048F448
:10287000C7708E2D01C0880FCA95EAF70E943C17D9
:102880002FC08C2F0E94050C2BC00E5F1F4FFE0126
:10289000C49180E28C0F883048F4C7708E2D01C03F
:1028A000880FCA95EAF70E9442171AC08C2F0E941F
:1028B000CD0C16C00E5F1F4FFE01C491CC2381F0DA
:1028C0008FE99FE00197F1F700C00000C150F6CFFB
:1028D0000E5F1F4FFE01F49003C00E94050C8E0195
:1028E0008F2D882309F4A1CFEFE9FFE03197F1F7AD
:1028F00000C000008150F5CFDF91CF911F910F9163
:10290000FF90EF90089560939301709394018093EA
:102910009501909396010E94DD1E0C948D1060939A
:102920008F017093900180939101909392010E9486
:102930001F1F0C948D1008950C9483140F931F93F4
:10294000009193011091940120919501309196018D
:10295000602B712B822B932B1F910F910C9483145E
:102960000F931F9300919301109194012091950171
:102970003091960160237123822393231F910F913D
:102980000C9483140F931F93009193011091940161
:102990002091950130919601602771278227932716
:1029A0001F910F910C94831460E070E0CB010C94A4
:1029B0008F140F931F9341E050E060E070E08A01B4
:1029C0009B0104C0000F111F221F331F8A95D2F7ED
:1029D000C901B8011F910F910C948F140F931F938D
:1029E00041E050E060E070E004C0440F551F661FF6
:1029F000771F8A95D2F780918F0190919001A091D5
:102A00009101B09192018A019B01082B192B2A2B6D
:102A10003B2BC901B8011F910F910C948F140F9398
:102A20001F9341E050E060E070E004C0440F551F88
:102A3000661F771F8A95D2F74095509560957095DF
:102A400080918F0190919001A0919101B09192019C
:102A50008A019B01082319232A233B23C901B801BA
:102A60001F910F910C948F140F931F9341E050E02E
:102A700060E070E004C0440F551F661F771F8A9501
:102A8000D2F780918F0190919001A0919101B09126
:102A900092018A019B01082719272A273B27C90190
:102AA000B8011F910F910C948F140F931F930091F5
:102AB0008F01109190012091910130919201602B32
:102AC000712B822B932B1F910F910C948F140F93CA
:102AD0001F9300918F0110919001209191013091ED
:102AE000920160237123822393231F910F910C94F1
:102AF0008F140F931F9300918F01109190012091DB
:102B000091013091920160277127822793271F91AD
:102B10000F910C948F140895CF92DF92EF92FF9251
:102B20000F931F93CF93DF938C01C0909301D090AC
:102B30009401E0909501F090960140918F015091A1
:102B400090016091910170919201C42AD52AE62AE0
:102B5000F72ACFE1D0E0D701C6010C2E04C0B6950C
:102B6000A795979587950A94D2F780FF07C0B8017B
:102B70008C2F0E9422188130910531F4219758F74B
:102B8000B80180E00E942218DF91CF911F910F9130
:102B9000FF90EF90DF90CF900895CF92DF92EF9269
:102BA000FF920F931F93CF93DF93C82F80910C0157
:102BB0008823C9F08C2F8695869586958F3008F0EE
:102BC000A9C0E0910D01F0910E01E80FF11DC77051
:102BD00081E090E00C2E01C0880F0A94EAF7918101
:102BE000892B818397C0D090AA013091A801E091F0
:102BF0000D01F0910E01332309F477C04091A90132
:102C00008D2D2FEF96E0E92EF12C082F112707FDCF
:102C10001095BF01600F711FDB0112969C919C17EC
:102C200009F478C02F3F19F4911101C0282FC80171
:102C3000019606E010E0B7010E94CD208413E5CF95
:102C4000D22F4D1152C02F3F71F4842F992787FD49
:102C500090950196B8010E94CD208093AA01315031
:102C60003093A80142C0822F992787FD9095019645
:102C7000B8010E94CD20282FFF24F39406E010E035
:102C8000332727FD30956F01C20ED31ED601129651
:102C90005C91552399F08D2F992787FD9095BF0161
:102CA000680F791FDB0112965C93D60112961C9275
:102CB0000196B8010E94CD20D82F01C0F394C9011C
:102CC0000196B8010E94CD20282F8413D9CF242F3C
:102CD000332727FD30952F193109C901069666E083
:102CE00070E00E94CD208093A9012091A901332793
:102CF00027FD3095E20FF31FC283C901019666E0FC
:102D000070E00E94CD208093A9018091A8018F5F7F
:102D10008093A801DF91CF911F910F91FF90EF90C9
:102D2000DF90CF900895EF92FF920F931F93CF9370
:102D3000C82F80910C018823D1F08C2F8695869521
:102D400086958F3008F071C0E0910D01F0910E0171
:102D5000E80FF11DC77081E090E00C2E01C0880FD4
:102D60000A94EAF780959181892381835EC020913E
:102D7000AA014091A801442309F457C0E0910D0134
:102D8000F0910E010091A901112707FD109586E031
:102D9000E82EF12C30E0DF01A20FB31FCD01029627
:102DA00012965C915C1337C0DC011C924150409339
:102DB000A801411104C01092AA011092A9014091EA
:102DC000A901842F992787FD9095059666E070E00C
:102DD0000E94CD202817390741F5C091AA0106E0CD
:102DE00010E0842F992787FD90950596B8010E94E1
:102DF000CD209C01482F0596B8010E94CD20DF010F
:102E0000A80FB91F12968C91811102C02C13E9CF23
:102E10002093A9010AC0C9010196B7010E94CD20E3
:102E2000282F8017910709F0B5CFCF911F910F91EF
:102E3000FF90EF90089581E090E0E0910D01F09116
:102E40000E01E80FF91F1082019680319105A9F754
:102E500008958091AC0108959091AC01892B8093E5
:102E6000AC01089580959091AC0189238093AC01C9
:102E700008951092AC0108959091AB01892B809335
:102E8000AB01089580959091AB0189238093AB01AC
:102E900008951092AB0108958093970108951092C0
:102EA0009701089580910C01811103C08091A801C0
:102EB00008950895E0910D01F0910E018091AC010B
:102EC0008083E0910D01F0910E0190818091AB0122
:102ED000892B808380919701882361F0E0910D0117
:102EE000F0910E019081892B80830E9452178111ED
:102EF0001092970180910D0190910E010C94070B97
:102F00008B3B50F4883AE8F4853A90F4843070F4BE
:102F1000813009F455C007C0803E28F0883E30F06B
:102F2000803F08F04AC080E090E0089590E0089566
:102F3000853A09F448C0863A09F448C083E890E429
:102F40000895883A09F445C0893A09F445C08A3A97
:102F500009F445C08B3A09F445C08C3A09F445C0E0
:102F60008D3A09F445C0803B09F445C08E3A09F416
:102F700045C08F3A09F445C0813B09F445C0823B06
:102F800009F445C0833B09F445C0843B09F445C0BE
:102F9000853B09F445C0863B09F445C0873B09F4ED
:102FA00045C0883B09F445C0893B09F445C08A3BCC
:102FB00009F445C080E094E4089590E09065089598
:102FC00081E090E0089581E890E4089582E890E43B
:102FD000089582EE94E4089589EE94E408958AEECB
:102FE00094E4089585EB94E4089586EB94E40895C1
:102FF00087EB94E408958CEC94E408958DEC94E4CC
:10300000089583E895E408958AE895E4089582E9AF
:1030100095E4089584E995E4089581E296E408959D
:1030200083E296E4089584E296E4089585E296E4C6
:10303000089586E296E4089587E296E408958AE288
:1030400096E408950E945802803EA8F4803C00F562
:10305000813309F45CC038F4893209F452C08A32F1
:1030600009F45BC05FC08933B1F08238A1F08533C9
:1030700009F441C057C0833E41F128F4803E99F0E5
:10308000823EB9F04FC0863E31F1873E71F14AC0B1
:103090000E945C0208959091D00190FD02C091FFC2
:1030A00041C080EE3FC08091D00180FFFACF89E31C
:1030B00039C08091D00182FF0CC08091D00184FF83
:1030C00002C080E02FC083EE2DC08091D00182FF2E
:1030D000F4CF82EE27C08091D00183FF0AC0809197
:1030E000D00184FDEECF87EE1DC08091D00183FF1B
:1030F000F6CF86EE17C08091D00185FF06C089E229
:1031000011C08091D00185FFFACF85E30BC080917B
:10311000D00186FF06C08AE205C08091D00186FFFB
:10312000FACF81E30E94801708959091D5019430E1
:1031300039F183FD02C090E401C090E68770892BCD
:1031400028E130E00FB6F894A895209360000FBEF8
:10315000809360000E942C1C83B7817F846083BFB2
:1031600083B7816083BF7894889583B78E7F83BF50
:1031700088E10FB6F89480936000109260000FBE53
:103180000895CF930E9429020E949F020E942A0262
:10319000C0E08C2F0E94A803892B29F4CF5FC53093
:1031A000C1F780E001C081E0CF9108950E949B109B
:1031B0000C94591D1F920F920FB60F9211240F906D
:1031C0000FBE0F901F90189582E084BD93E095BDCF
:1031D0009AEF97BD80936E0008952FB7F894809171
:1031E000AE019091AF01A091B001B091B1012FBF9C
:1031F00008951F920F920FB60F9211248F939F93F1
:10320000AF93BF938091AE019091AF01A091B001B7
:10321000B091B1010196A11DB11D8093AE019093B3
:10322000AF01A093B001B093B101BF91AF919F9155
:103230008F910F900FBE0F901F9018950E940C0752
:10324000F8942FEF87EA91E6215080409040E1F713
:1032500000C0000087E090EBDC018093DF019093D9
:10326000E001A093E101B093E2012CE088E190E05D
:103270000FB6F894A895809360000FBE209360006D
:10328000FFCFCF92DF92EF92FF920F931F93CF93D6
:10329000DF93D82FC0E0EE24E394F12C8C2F0E9412
:1032A000A8036C0100E010E09701002E02C0220F7D
:1032B000331F0A94E2F72C213D21232B31F40F5FB9
:1032C0001F4F0E30110581F709C0602F7C2F80E061
:1032D0000E945802D813F3CF81E004C0CF5FC530FD
:1032E000E9F680E0DF91CF911F910F91FF90EF9071
:1032F000DF90CF900895CF93C82F8CE20E944119A0
:10330000882321F08C2FCF910C94411980E0CF912C
:103310000895CF930E94E21A811102C00E94BD1A43
:10332000C5E6C15049F00E949F028FE39CE90197D6
:10333000F1F700C00000F5CF89E20E947B198111EE
:103340001AC18AE20E947B19882341F00E94DC1A8C
:103350000E94BD1A0E944C200E94B11F85E00E946D
:103360007B1981110E941E190E94ED1A8093AD01F4
:1033700087E00E947B198823A9F18BE10E947B19C9
:10338000882351F08091AD0181FB222720F991E043
:10339000922790FB81F90EC08EE00E947B19882352
:1033A00061F08091AD0182FB222720F991E0922704
:1033B00090FB82F98093AD0115C080E10E947B19DA
:1033C0009091AD01882341F093FB222720F981E001
:1033D000822780FB93F904C0892F809580FB90F9A8
:1033E0009093AD018091AD010E94F11A0E94FF1AE5
:1033F0008093D00180EE0E947B19882341F0809158
:10340000D001982F909590FB80F98093D00189E3AB
:103410000E947B19882359F08091D00181FB2227DB
:1034200020F991E0922790FB81F98093D00182EE00
:103430000E947B19882359F08091D00182FB2227BA
:1034400020F991E0922790FB82F98093D00186EEDB
:103450000E947B19882359F08091D00183FB222799
:1034600020F991E0922790FB83F98093D00183EEBD
:103470000E947B19882359F08091D00184FB222778
:1034800020F991E0922790FB84F98093D00185E3A5
:103490000E947B19882359F08091D00185FB222757
:1034A00020F991E0922790FB85F98093D00181E388
:1034B0000E947B19882359F08091D00186FB222736
:1034C00020F991E0922790FB86F98093D00181E169
:1034D0000E947B19882359F08091D00187FB222715
:1034E00020F991E0922790FB87F98093D001809199
:1034F000D0010E94031B8091D00187FB882780F9AF
:1035000080930C0187E20E947B19C82F8EE10E94F4
:103510007B198111C2608FE10E947B198111C46007
:1035200080E20E947B198111C86081E20E947B19B0
:103530008111C06182E20E947B198111C06283E225
:103540000E947B198111C06484E20E947B19882348
:1035500011F0C06802C0CC2329F08C2F0E94FA1A07
:103560006C2F03C00E94F61A682F70E080E090E094
:10357000CF910C949C14CF9108956DEE7EEF80E076
:1035800090E00E94172160E082E090E00E94092113
:1035900060E083E090E00E94092160E084E090E038
:1035A0000E94092160E085E090E00E94092160E02E
:1035B00086E090E00C9409216FEF7FEF80E090E0CF
:1035C0000C94172180E090E00E94032121E08D3EC1
:1035D0009E4F09F020E0822F089582E090E00C9445
:1035E000FB20682F82E090E00C94092183E090E0BA
:1035F0000C94FB20682F83E090E00C94092184E078
:1036000090E00C94FB20682F84E090E00C9409215A
:1036100086E090E00C94FB20682F86E090E00C940C
:1036200009210F931F93482F50E0FA013697E33496
:10363000F10508F0AAC0E059FF4F0C94E1200E9468
:10364000ED1A0E94FF1A0E94081B49C00E94F60A48
:10365000892B49F00E94F60A9093B4018093B3013C
:1036600080E090E004C08091B3019091B4010E9489
:10367000F10A35C08091AD01817F8E7F8093AD01CD
:1036800081E08093B20182C00E949B100FEF13ED86
:1036900020E3015010402040E1F700C000000E94EC
:1036A0001E191DC09091AD01892F817090FF12C02D
:1036B000917F9E7F9093AD0169C08091AD0181FBA8
:1036C000222720F991E0922790FB81F98093AD01A8
:1036D000992329F08091AD0181608093AD0181E053
:1036E00055C08091AD0182FB222720F991E09227FD
:1036F00090FB82F9EBCF8091AD0183FB222720F96B
:1037000091E0922790FB83F9E1CF0E949B1090916A
:103710000C0181E0892780930C01E1CF81E890E0E2
:103720000E94120B3FEF81EE94E0315080409040B8
:10373000E1F700C0000080E090E00E94120B0FEF64
:1037400019E628E1015010402040E1F700C00000D8
:10375000C6CF61E070E080E090E012C08D5101C002
:10376000895341E050E060E070E08A019B0104C0B1
:10377000000F111F221F331F8A95D2F7C901B8010C
:103780000E949C140E949B10AACF80E01F910F9171
:10379000089580E0089580E00895CF93C82F809128
:1037A000B201882319F0813049F031C0E0910D0158
:1037B000F0910E018081823261F507C0E0910D0128
:1037C000F0910E018081823261F48C2F0E94C91B1E
:1037D000811104C08C2F0E94111B17C081E090E062
:1037E00014C08C2F0E94CB1B81110EC0C43149F034
:1037F00018F4CB3049F00FC0C93219F0C83321F0AA
:103800000AC01092B20107C081E0817006C0109218
:10381000B20180E002C080E0F8CFCF910895E1E8E6
:10382000F0E08081886080838081816080838FB7B1
:10383000F89493E09093890090ED909388008FBF67
:103840000C94611FEFE6F0E080818260808381E06C
:103850008093C5010C947C1FEFE6F0E080818D7FA2
:1038600080831092C50180E00E946F1F81E00E945A
:103870006F1F8091C5010C947C1FE82FF0E0EF537F
:10388000FE4F60830895E82FF0E0EF53FE4F208154
:10389000422F50E08FEF90E0861B91098417950727
:1038A0001CF48FEF80830895620F60830895CF9397
:1038B000C82F682F80E00E94431C6C2F81E0CF91BD
:1038C0000C94431CE82FF0E0EF53FE4F80818617E5
:1038D00010F410820895861B80830895CF93C82F1B
:1038E000682F80E00E94621C6C2F81E0CF910C94C5
:1038F000621C8091C50108958091C001836080930E
:10390000C00108951092C00108958093BF010895E9
:103910008093BE0108958091BD0183608093BD01B5
:1039200008951092BD0108958093BC0108951F92DF
:103930000F920FB60F9211240F931F932F933F9363
:103940004F935F936F937F938F939F93AF93BF93A7
:10395000CF93DF93EF93FF938091BB018F5F8093B1
:10396000BB0181110DC00E94621F8091C101809333
:10397000C30181E00E94621F8091C2018093C40153
:103980009091BB018091C301981303C080E00E9415
:103990006F1F9091BB018091C401981303C081E017
:1039A0000E946F1F0091C001011105C09091BD01DF
:1039B000911133C069C08091BA018F5F813418F4CE
:1039C0008093BA01F3CF1092BA018091B9018F5F51
:1039D0008093B9019091BE01981740F71092B901F8
:1039E000C0E0D0E010E0C8010C2E02C0969587958B
:1039F0000A94E2F780FF0CC08091BF0161E0882348
:103A000021F08C2F0E94621C03C08C2F0E94431C4B
:103A1000219761F2C1E0D0E0E6CF8091B8018F5FDD
:103A2000813418F48093B8012FC01092B8018091AE
:103A3000B7018F5F8093B7012091BC01281720F553
:103A40001092B7018091B601E82FF0E0EB5BFC4FDC
:103A5000E491292F90FDE093C10121FDE093C20183
:103A60009091B501992339F0811103C01092B501ED
:103A70000BC0815007C08F3721F481E08093B501DE
:103A800003C08F5F8093B601FF91EF91DF91CF91DB
:103A9000BF91AF919F918F917F916F915F914F9166
:103AA0003F912F911F910F910F900FBE0F901F907C
:103AB00018950E94E21A811102C00E94BD1A0E944C
:103AC000081B8093DE0180FF02C0869501C080E064
:103AD0000C94B2038091DE01982F9695292F30E047
:103AE000283031054CF49F5F990F8170892B8160DC
:103AF0008093DE010E940C1B8091DE0186950C9460
:103B0000B2038091DE01982F969591F09158990F0C
:103B10008170892B8093DE018E7F91E009F490E023
:103B20008091DE0190FB80F98093DE010E940C1BE6
:103B30008091DE0186950C94B2038091DE01982F6E
:103B40009095917090FB80F98093DE01992339F074
:103B5000982F9E7F21F4817082608093DE01809196
:103B6000DE010E940C1B8091DE0180FF02C0869561
:103B700001C080E00C94B2039091DE01892F8695FC
:103B80008F5F8F779170893028F4880F892B80930D
:103B9000DE0102C09093DE018091DE018E7F91E014
:103BA00009F490E08091DE0190FB80F98093DE01C2
:103BB0000E940C1B8091DE0186950C94B203880F45
:103BC0009091DE019170892B8093DE018E7F91E0D0
:103BD00009F490E08091DE0190FB80F98093DE0192
:103BE0000E940C1B8091DE0186950C94B203DF923B
:103BF000EF92FF920F931F93CF93DF930091CB012E
:103C00000827611101C0C9F1C0E0D0E0E62EF82E0E
:103C100010E0DC2E0E94791C882359F02091C70106
:103C200030E00C2E02C0369527950A94E2F720FD6D
:103C30001DC0E11009C0C8010C2E02C096958795E1
:103C40000A94E2F780FF12C02091C6012F2530E0D0
:103C50000C2E02C0369527950A94E2F78D2D20FF91
:103C600003C00E94350402C00E943E04219719F04F
:103C7000C1E0D0E0CECFF092CB01DF91CF911F9188
:103C80000F91FF90EF90DF9008950F931F93CF93C4
:103C9000DF93C0E0D0E001E010E08C2F0E94C11F54
:103CA00094FF0BC08091C60198010C2E01C0220F19
:103CB0000A94EAF7282B2093C60195FF0BC0809148
:103CC000C70198010C2E01C0220F0A94EAF7282B95
:103CD0002093C7019F70892F90E08230910589F071
:103CE00083309105D1F08130910511F50C2E01C082
:103CF000880F0A94EAF79091C901892B8093C90132
:103D000017C02091C801C8010C2E01C0880F0A9469
:103D1000EAF7822B8093C8010BC02091CA01C80129
:103D20000C2E01C0880F0A94EAF7822B8093CA01F7
:103D3000219719F0C1E0D0E0B0CF0E94300461E0DB
:103D400080E0DF91CF911F910F910C94F71DCF93DD
:103D5000DF939091CA01992369F1D82FC091CB01CB
:103D600090FF0FC080E00E94C11F2D2F30E002C0E5
:103D7000359527958A95E2F720FD02C0CE7F01C0D8
:103D8000C1608091CA0181FF0FC081E00E94C11F04
:103D90002D2F30E002C0359527958A95E2F720FD5A
:103DA00002C0CD7F01C0C26060E08C2FDF91CF9157
:103DB0000C94F71DDF91CF910895CF92DF92EF928F
:103DC000FF92CF932091C901222399F16B017C01CD
:103DD000C091CB0120FF11C080E00E94C11FA7014C
:103DE000960104C056954795379527958A95D2F741
:103DF00020FD02C0CE7F01C0C1608091C90181FF5A
:103E00000FC081E00E94C11F04C0F694E794D794CC
:103E1000C7948A95D2F7C0FC02C0CD7F01C0C260B2
:103E200060E08C2FCF91FF90EF90DF90CF900C94BB
:103E3000F71DCF91FF90EF90DF90CF900895CF9234
:103E4000DF92EF92FF92CF932091C801222399F144
:103E50006B017C01C091CB0120FF11C080E00E946A
:103E6000C11FA701960104C0569547953795279520
:103E70008A95D2F720FD02C0CE7F01C0C16080913B
:103E8000C80181FF0FC081E00E94C11F04C0F694E9
:103E9000E794D794C7948A95D2F7C0FC02C0CD7F2F
:103EA00001C0C26060E08C2FCF91FF90EF90DF9057
:103EB000CF900C94F71DCF91FF90EF90DF90CF90B3
:103EC000089508952091C70130E0082E02C036956C
:103ED00027950A94E2F720FD0C943504089520916B
:103EE000C70130E0082E02C0369527950A94E2F704
:103EF00020FD0C943E040895811105C061E080917D
:103F0000CB010C94F71D089587E090E00E940321F7
:103F10009093CD018093CC01019661F480E00E94E2
:103F200027049093CD018093CC01BC0187E090E001
:103F30000E94172189E090E00E9403219093CF0115
:103F40008093CE01019661F481E00E942704909352
:103F5000CF018093CE01BC0189E090E00C94172141
:103F6000089580E00E942704BC0187E090E00E9451
:103F7000172181E00E942704BC0189E090E00C94A5
:103F80001721E82FF0E0EE0FFF1FE453FE4F808172
:103F900091810895CF92DF92EF92FF920F931F933A
:103FA000CF9381E190E00E9403218C01C12CD12CA0
:103FB0002DEEE22E2EEFF22E0E946F02C82F0E94ED
:103FC0007102C89FC00111249C0183E0220F331F9E
:103FD0008A95E1F7205C3F4FC216D30680F4C601F4
:103FE00043960E94FB20282F30E0C0FE02C0322FF3
:103FF0002227E20EF31E8FEFC81AD80ADDCF81E028
:104000000E151F0509F080E0CF911F910F91FF90D1
:10401000EF90DF90CF90089590E0880F991F43961E
:104020000C94032190E0880F991F43960C9417215C
:10403000EF92FF920F931F93CF93DF9300D0CDB7F2
:10404000DEB7082F4A8369830E946F02089F8001B0
:1040500011240E947102809F7001819FF00C112435
:104060000E94710269819701689F200D311D112402
:10407000C9014A81840F911D8D5A9F4F0F900F9057
:10408000DF91CF911F910F91FF90EF900C94FB2047
:104090008D5A9F4F0C9409218F929F92AF92BF929D
:1040A000CF92DF92EF92FF920F931F93CF93DF9304
:1040B0000E9463026C010E9460027C01C114D10461
:1040C00009F10E942E024C01A12CB12C0DEE1EEF25
:1040D000A814B90420F4F601C591D49102C0C0E03F
:1040E000D0E0BE018A2D0E9412200C0F1D1F8FEF01
:1040F000A81AB80A82E0C80ED11C80E2A816B10442
:1041000039F702C00DEE1EEFE114F10471F10E94C7
:104110002B026C01A12CB12C0E946F02C82F0E94AF
:104120007102C89FC001112423E0880F991F2A95AE
:10413000E1F7A816B906C8F4AC14BD0428F4F701D9
:10414000EA0DFB1DC49101C0C0E06C2FC5010E94A7
:104150004820EC2FF0E0A0FE02C0FE2FEE270E0F4D
:104160001F1F8FEFA81AB80AD7CFB80181E190E0DE
:10417000DF91CF911F910F91FF90EF90DF90CF9043
:10418000BF90AF909F908F900C9417210E94CA1FF0
:10419000811102C00C944C20089597FB072E16F451
:1041A000009407D077FD09D00E94E72007FC05D0D6
:1041B0003EF4909581959F4F0895709561957F4F3E
:1041C0000895EE0FFF1F0590F491E02D0994AA1BAE
:1041D000BB1B51E107C0AA1FBB1FA617B70710F0F2
:1041E000A61BB70B881F991F5A95A9F78095909524
:1041F000BC01CD010895F999FECF92BD81BDF89A19
:10420000992780B50895A8E1B0E042E050E00C9411
:104210001E21262FF999FECF1FBA92BD81BD20BD68
:104220000FB6F894FA9AF99A0FBE019608950E9473
:104230000921272F0C940A21DC01CB01FC01F999FB
:10424000FECF06C0F2BDE1BDF89A319600B40D92E2
:0C42500041505040B8F70895F894FFCF9B
:10425C00054704B3044A047F044B04010198013F51
:0E426C0036390603D002970243025C02750247
:00000001FF
