:100000000C94F6010C943A020C943A020C943A02C5
:100010000C943A020C943A020C943A020C943A0270
:100020000C943A020C943A020C94A1070C947108B7
:100030000C94F7180C943A020C943A020C943A027D
:100040000C943A020C94B11C0C943A020C943A02AF
:100050000C943A020C9416190C943A020C943A023D
:100060000C943A020C943A020C943A020C943A0220
:100070000C943A020C943A020C943A020C943A0210
:100080000C943A020C943A020C943A020C943A0200
:100090000C943A020C943A020C943A020C943A02F0
:1000A0000C943A020C943A020C943A02E609080ABB
:1000B000F70A080AF70A4D0A710AF70AC60AD90AA6
:1000C000880D880DB50DB50D0C0E9B109B109B1067
:1000D000460E9B10430F430FFE0F14109B1087100A
:1000E000551B6D1B3A1BE01BE01B8A1BE01BE01B32
:1000F0008C1BE01B961BA01BE01BE01BE01BE01B06
:100100008A1B8A1BE01B8A1BE01B781BE01BE01B81
:10011000C91BC91BC91BC91BC91BC91BC91BC91BBF
:10012000C91BC41BE01BC41BE01BE01BE01BE01B46
:10013000E01BE01BE01BE01BE01BE01BE01BC41B03
:10014000E01BE01B8A1B411BCB1BCB1BCB1BCB1B20
:10015000CB1BCB1BCB1BCB1BCB1BCB1BCB1BCB1B6F
:10016000A91BE01B5F1B016202620162026200F1D7
:10017000A100D100D200D0293A3B3C3D3E3F404156
:10018000424344454A4C351E1F2021222324252664
:10019000272D2E2A4B2B141A0815171C180C121376
:1001A0002F30314E39041607090A0B0D0E0F333468
:1001B000002849E1001D1B0619051110363738E5E6
:1001C00052C0E0E3E200002C00004D00E6E4505194
:1001D0004F010101010101010101010101010101C1
:1001E00001010101010101010101010101010101FF
:1001F0000152010101B20149014647480101015084
:10020000514F0101010101014A4B010101010001AE
:1002100065C1C2C3AAA9A84D4E0101010101010097
:100220000001000001010101010101001080FF0136
:100230002300200C0341004D004A00380034000028
:10024000001003480061006E004300680065006E06
:100250000000000403090409025400030100A03255
:10026000090400000103010100092111010001221C
:100270003F000705810308000A090401000103008B
:100280000000092111010001223600070582030840
:10029000000A090402000103000000092111010005
:1002A000012239000705830310000112011001002B
:1002B000000008EDFE766001000102000105010961
:1002C00006A101050719E029E71500250195087524
:1002D000018102050819012905950575019102950D
:1002E000017503910105071900297715002501956E
:1002F0007875018102C005010980A10185021601FE
:100300000026B7001A01002AB70075109501810078
:10031000C0050C0901A1018503160100269C021AE3
:1003200001002A9C02751095018100C00501090693
:10033000A101050719E029E71500250195087501B8
:1003400081029501750881010508190129059505A6
:10035000750191029501750391010507190029FFA7
:10036000150025FF950675088100C00000000000FB
:100370000000000000010101020202030304040561
:10038000050606070808090A0B0B0C0D0E0F1011C5
:100390001213151617191A1B1D1E20222325272993
:1003A0002B2D2F313335383A3D3F4244474A4D508B
:1003B0005356595C5F6266696C7074777B7E828687
:1003C0008A8E9195999DA1A5A9ADB0B4B8BCC0C3C2
:1003D000C7CBCED2D5D8DBDFE2E4E7EAECEFF1F32E
:1003E000F5F7F8FAFBFCFDFEFFFFFF0011241FBE2E
:1003F000CFEFDAE0DEBFCDBF04B603FE24C08091AC
:10040000E1019091E201A091E301B091E401873014
:10041000904BA740B04BB9F41092E1011092E20169
:100420001092E3011092E40114BE84B7877F84BF69
:1004300088E10FB6F89480936000109260000FBEC0
:10044000E0E0F8E3099511E0A0E0B1E0E4E0F2E4D7
:1004500002C005900D92AE31B107D9F711E0AEE1BF
:10046000B1E001C01D92A13EB107E1F70E94FA057B
:100470000C9400210C9400000895089584EB90E002
:10048000089584E090E00895611104C0FC01828128
:10049000811103C080E090E0089586E691E0089520
:1004A000611118C0FC018281882371F00E944617F7
:1004B000827211F085E301C089E280931E01809170
:1004C0001E010E94220C04C080911E010E94EA0CB1
:1004D0000C9477170895462F672F0C94EC1F805CBF
:1004E0000E94E01F089587E791E008958FE691E06C
:1004F00008958AB18E7D8AB98BB18E7D8BB980B318
:100500008F7080BB81B38F7081BB089586E00895A2
:100510008FE0089580E885BF85BF0E94790280B38F
:100520008C7F80BB81B3836081BB6E98769A8AB1E1
:100530008D728AB98BB1826D8BB987B18F7387B990
:1005400088B1806C88B984B1847484B985B18B6BAF
:1005500085B9EBE2F1E0AFE1B1E0119211921D92A9
:100560001D9281E0E733F807C1F70895AF92BF927B
:10057000CF92DF92EF92FF920F931F93CF93DF936F
:100580001F92CDB7DEB7BFE1EB2EB1E0FB2E8701A6
:1005900040E0DD24D39485E0C82E433099F028F460
:1005A000413051F0423059F004C0443071F04530D0
:1005B00079F0509A58980EC0879A8F980BC0869AF7
:1005C0008E9808C0859A8D9805C0849A8C9802C030
:1005D000559A5D9880EA8A95F1F78FB186958D25B9
:1005E00080FBAA24A0F8B12C789903C022E030E067
:1005F00002C020E030E0C9018A299B29669903C026
:1006000024E030E002C020E030E0BC01622B732B1C
:1006100026B1332727FD309520953095C9018827CD
:10062000990F881F9927A3E0880F991FAA95E1F7D2
:10063000862B972B369903C0A0E1B0E002C0A0E062
:10064000B0E08A2B9B2B189903C0A0E2B0E002C057
:10065000A0E0B0E08A2B9B2B4C9903C0E0E4F0E0D3
:1006600002C0E0E0F0E08E2B9F2B199903C020E838
:1006700030E002C020E030E0BC01622B732B23B1DC
:10068000332727FD309520953095C9018827990F8C
:10069000881F9927982F8827862B972B1D9903C091
:1006A00020E032E002C020E030E0822B932B1C9946
:1006B00003C020E034E002C020E030E0BC01622B47
:1006C000732B29B1332727FD309520953095C9012B
:1006D0008827990F881F9927982F8827990F990F96
:1006E000990F862B972B4E9903C020E030E102C072
:1006F00020E030E0822B932B1B9903C020E030E2F6
:1007000002C020E030E0822B932B499903C020E007
:1007100030E402C020E030E0822B932BD8012D91F1
:100720003C9111972817390721F08D939C93C09223
:10073000000149830E94790249814F5F0E5F1F4F7C
:10074000463009F02ACF809100018823C9F08150FA
:1007500080930001882339F0EFE9FFE03197F1F74A
:1007600000C000000DC0EBE2F1E0D7018D919D913A
:100770007D0181939193BBE2EB16B1E0FB06A9F7F3
:1007800081E00F90DF91CF911F910F91FF90EF903B
:10079000DF90CF90BF90AF900895E82FF0E0EE0F7C
:1007A000FF1FE55DFE4F8081918108950895CF93ED
:1007B000C82F80933701873090F48430E0F4813083
:1007C00090F10E943D1C0E949C1C0E94AB1CEC2FCF
:1007D000F0E0E55DFD4F8491CF910C94581C87307B
:1007E000A9F0883001F50E943D1C0E94961C0E94D1
:1007F000AB1C81E012C00E943D1C0E949C1C0E9408
:10080000A51C86E08C1BCF910C94AE1C0E943D1C55
:100810000E94961C0E94AB1C80E00E949F1C83E0FB
:10082000CF910C94A21C0E949C1C0E94AB1CCF91E7
:100830000C94471C1F93CF93DF9300D000D01F92DE
:10084000CDB7DEB7162F80913701873029F46623A4
:1008500019F080E20E94881C80913701883069F489
:10086000112359F080E20F900F900F900F900F908E
:10087000DF91CF911F910C94711C0F900F900F90EE
:100880000F900F90DF91CF911F910895E82FF0E026
:10089000EE0FFF1FE15DFD4F859194910895229A1F
:1008A0002A9A269A2E980895882319F0813019F0F3
:1008B00008952A9808952E9A0895882319F0813072
:1008C00019F008952A9A08952E9808958091490163
:1008D00008950895CF93DF9300D01F92CDB7DEB770
:1008E0002091D701243021F523E029839B838A833B
:1008F00082E08093E9008FEF9091E800815095FDB0
:1009000006C095ED9A95F1F700008111F5CF809121
:10091000E80085FF0DC040E050E063E070E0CE01EC
:1009200001960E94B5088091E8008E778093E800D8
:100930000F900F900F90DF91CF910895CF93DF9399
:1009400000D01F92CDB7DEB79C018091D7018430D3
:1009500019F592E099833B832A839093E9008FEF06
:100960009091E800815095FD06C095ED9A95F1F7BC
:1009700000008111F5CF8091E80085FF0DC040E0B7
:1009800050E063E070E0CE0101960E94B5088091CE
:10099000E8008E778093E8000F900F900F90DF9122
:1009A000CF910895CF93DF932091D701243009F0A0
:1009B00044C0EC0180910C018823C1F083E0809356
:1009C000E9008FEF9091E800815095FD06C095E118
:1009D0009A95F1F700008111F5CF8091E80085FF2D
:1009E0002CC040E050E060E170E017C081E08093EF
:1009F000E9008FEF9091E800815095FD06C095EDDC
:100A00009A95F1F700008111F5CF8091E80085FFFC
:100A100014C040E050E068E070E0CE010E94B508EC
:100A20008091E8008E778093E80080E1FE01A9E3E1
:100A3000B1E001900D928A95E1F7DF91CF91089591
:100A40008091D601811107C00E9488078091E20041
:100A500084608093E20008950895089508950C94A9
:100A6000F318089542E061EC81E00E94A50642E09F
:100A700061EC82E00E94A50642E161EC83E00C9407
:100A8000A5068091D901833009F455C030F4813036
:100A900071F0823009F495C008958A3009F481C05C
:100AA0008B3009F460C0893009F0A3C020C0809168
:100AB000D801813A09F09DC08091E800877F80933A
:100AC000E8008091DC019091DD01892B21F460E147
:100AD00089E391E003C060E080E090E070E00E9474
:100AE00000098091E8008B778093E8000895809159
:100AF000D801813209F07DC08091DC019091DD0147
:100B0000009719F0029709F074C08091E800877F80
:100B10008093E8008091E80082FD05C08091D701B4
:100B20008111F8CF66C08091F100809349018091D6
:100B3000E8008B775AC08091D801813A09F059C0FA
:100B40008091DC019091DD01892B09F052C08091E8
:100B5000E800877F8093E8008091E80080FFFCCF69
:100B600080910B013DC08091D801813209F041C0D4
:100B70008091DC019091DD01892BD9F58091E8000D
:100B8000877F8093E8000E94DA069091DA0181E085
:100B9000911101C080E080930B0180930C010C94B3
:100BA000B8108091D801813221F58091E800877FCB
:100BB0008093E8000E94DA068091DB01809338017F
:100BC00008958091D801813AA1F48091E800877F4F
:100BD0008093E8008091E80080FFFCCF809138018D
:100BE0008093F1008091E8008E778093E8000C9468
:100BF000DA06089584B7877F84BF88E10FB6F8943A
:100C000080936000109260000FBE90E080E80FB605
:100C1000F89480936100909361000FBE0E942B07AF
:100C20000E9488078091E20084608093E2007894BB
:100C30008091D7018430E1F70E945D0B81E091E063
:100C40000E94100B8091D701853071F483E00E94DF
:100C5000B2188091D5018823A9F30E94DE18882359
:100C600089F30E948F06EECF0E946B0BEBCF292FEA
:100C7000332723303105C9F064F42130310581F088
:100C80002230310509F043C084E590E027E532E0E9
:100C900042C021323105F1F02232310541F137C035
:100CA00082E190E02BEA32E036C09927813091054D
:100CB00041F08230910541F0892B49F5E3E5F2E0FE
:100CC00005C0E1E4F2E002C0E3E3F2E0849190E0E9
:100CD0009F0121C06330D8F4E62FF0E0EE0FFF1F34
:100CE000E85EFE4F2081318189E090E014C06330DE
:100CF00070F470E0FB01EE0FFF1FEE5EFE4F2081EF
:100D00003181FB01E15FFE4F808190E004C080E013
:100D100090E020E030E0FA0131832083089580E103
:100D200089BD82E189BD09B400FEFDCF8091D80064
:100D30008F7D8093D8008091E00082608093E000F6
:100D40008091E00081FDFCCF0895982F973058F5F1
:100D50009093E900981739F07091EC002091ED0024
:100D60005091F00003C0242F762F50E021FF19C0CE
:100D70003091EB003E7F3093EB003091ED003D7FF2
:100D80003093ED003091EB0031603093EB007093C5
:100D9000EC002093ED005093F0002091EE0027FF2F
:100DA00007C09F5FD3CF8F708093E90081E00895E3
:100DB00080E008958091D80187FF11C08091E800FC
:100DC00082FD05C08091D7018111F8CF11C08091BB
:100DD000E8008B770BC08091D701882349F0809180
:100DE000E80080FFF8CF8091E8008E778093E800DC
:100DF00008952091E4003091E50095E64091EC00E3
:100E0000842F817040FF22C08091E80080FD1CC0CB
:100E10008091D701882391F0853091F08091EB008B
:100E200085FD10C04091E4005091E5004217530742
:100E300029F39A01915011F784E0089582E0089512
:100E400083E0089581E0089580E008954091E800EE
:100E500042FFDECF08950E9494070E949C07E0EEB7
:100E6000F0E0808181608083E8EDF0E080818F7721
:100E7000808319BCA7EDB0E08C918E7F8C9380812C
:100E80008F7E80831092D60108950F931F93CF9386
:100E9000DF930E9494070E949C07C8EDD0E08881F0
:100EA0008F77888388818068888388818F7D888315
:100EB00019BC1092D7011092D3011092D501109253
:100EC000D40100EE10E0F80180818B7F808388815F
:100ED0008160888342E060E080E00E94A506E1EE48
:100EE000F0E080818E7F8083E2EEF0E0808181609F
:100EF0008083808188608083F80180818E7F8083F9
:100F0000888180618883DF91CF911F910F9108952F
:100F1000E7EDF0E080818160808384E082BF81E042
:100F20008093D6010C944507E8EDF0E080818E7F38
:100F300080831092E20008951092DA001092E1008E
:100F400008951F920F920FB60F9211242F933F9383
:100F50004F935F936F937F938F939F93AF93BF93C1
:100F6000EF93FF938091E10082FF0BC08091E2003C
:100F700082FF07C08091E1008B7F8093E1000E9497
:100F800031058091DA0080FF1FC08091D80080FF7A
:100F90001BC08091DA008E7F8093DA008091D900A7
:100FA00080FF0DC080E189BD82E189BD09B400FEEA
:100FB000FDCF81E08093D7010E94200505C019BCB8
:100FC0001092D7010E942C058091E10080FF19C08A
:100FD0008091E20080FF15C08091E2008E7F8093B7
:100FE000E2008091E20080618093E2008091D8006D
:100FF00080628093D80019BC85E08093D7010E945D
:101000002E058091E10084FF2EC08091E20084FFD4
:101010002AC080E189BD82E189BD09B400FEFDCF0F
:101020008091D8008F7D8093D8008091E1008F7EE1
:101030008093E1008091E2008F7E8093E2008091B6
:10104000E20081608093E2008091D301811106C0AB
:101050008091E30087FD02C081E001C084E08093BD
:10106000D7010E942F058091E10083FF29C0809164
:10107000E20083FF25C08091E100877F8093E1003B
:1010800082E08093D7011092D3018091E1008E7F9E
:101090008093E1008091E2008E7F8093E200809156
:1010A000E20080618093E20042E060E080E00E9424
:1010B000A5068091F00088608093F0000E942D05C5
:1010C000FF91EF91BF91AF919F918F917F916F9120
:1010D0005F914F913F912F910F900FBE0F901F90F6
:1010E00018951F920F920FB60F9211242F933F93D2
:1010F0004F935F936F937F938F939F93AF93BF9320
:10110000CF93DF93EF93FF93C091E900CF7080916D
:10111000EC00D82FD17080FDD0E81092E9008091CA
:10112000F000877F8093F00078940E94BC091092B1
:10113000E9008091F00088608093F000CD2BCF70A3
:10114000C093E900FF91EF91DF91CF91BF91AF91F3
:101150009F918F917F916F915F914F913F912F91CF
:101160000F900FBE0F901F901895CF92DF92EF92C5
:10117000FF920F931F93CF93DF93EC018B016A01D2
:101180000E94F906811133C0C114D10439F0F6016F
:1011900080819181081B190BC80FD91FE12CF12CFC
:1011A0000115110519F18091E80085FD16C08091A7
:1011B000E8008E778093E800C114D10449F0F6016D
:1011C00080819181E80EF91EF182E08285E00FC0F6
:1011D0000E94F906882321F30AC089918093F100C7
:1011E00001501109FFEFEF1AFF0ADACF80E0DF911B
:1011F000CF911F910F91FF90EF90DF90CF900895C6
:101200002091DE013091DF012617370748F0611584
:10121000710539F42091E8002E772093E80001C091
:10122000B90140E061157105A9F12091D701222390
:1012300009F441C0253009F440C02091E80023FDA5
:1012400038C02091E80022FD2EC02091E80020FF48
:10125000E9CF4091F3002091F20030E0342BFC0103
:10126000CF016115710559F02830310540F48191A5
:101270008093F100615071092F5F3F4FF1CF41E042
:101280002830310509F040E02091E8002E772093C6
:10129000E800C8CF4111C9CF06C08091D70188238B
:1012A00051F0853051F08091E80082FFF6CF80E068
:1012B000089581E0089582E0089583E008952091E3
:1012C000DE013091DF012617370748F061157105FF
:1012D00039F42091E8002E772093E80001C0B9018D
:1012E000FC0120E06115710591F18091D7018823FF
:1012F00009F43EC0853009F43DC08091E80083FDCB
:1013000035C08091E80082FD2BC08091E80080FF0D
:10131000E9CF2091F3008091F20090E0922B6115CB
:10132000710559F08830910540F424912093F10023
:101330003196615071090196F2CF21E0089709F0CA
:1013400020E08091E8008E778093E800CBCF2111D8
:10135000CCCF06C08091D701882351F0853051F061
:101360008091E80082FFF6CF80E0089581E0089543
:1013700082E0089583E008950F931F93CF93DF9346
:10138000CDB7DEB7AA970FB6F894DEBF0FBECDBFBC
:10139000E8EDF1E088E08E0F9091F10091938E13CB
:1013A000FBCF0E9441058091E80083FF20C180911E
:1013B000D8019091D901492F50E04A30510508F0E9
:1013C00016C1FA01EA5AFF4F0C94B520803881F01B
:1013D000823809F00CC18091DC018F708093E900A4
:1013E0008091EB0085FB882780F91092E90006C008
:1013F0008091D4019091D501911182609091E80083
:10140000977F9093E8008093F1001092F100C9C09B
:10141000282F2D7F09F0EBC0882319F0823061F06E
:10142000E6C08091DA01813009F0E1C0933009F023
:1014300080E08093D5012BC08091DA01811127C013
:101440008091DC018F7009F4D2C08093E900209173
:10145000EB0020FF1CC0933021F48091EB008062F0
:1014600014C09091EB0090619093EB0021E030E08C
:10147000A90102C0440F551F8A95E2F74093EA0084
:101480001092EA008091EB0088608093EB0010924C
:10149000E9008091E800877F87C08111A8C0109182
:1014A000DA011F770FB7F8948091E800877F809367
:1014B000E8000E94DA068091E80080FFFCCF80916E
:1014C000E3008078812B8093E30080688093E300C1
:1014D000111102C082E001C083E08093D7010FBFE9
:1014E00086C08058823008F082C08091DA019091E5
:1014F000DB018C3D53E0950779F583E08A838AE22E
:1015000089834FB7F894DE01139620E03EE051E264
:10151000E32FF0E050935700E49120FF03C0E295E1
:10152000EF703F5FEF708E2F90E0EA3010F0C796BB
:1015300001C0C0968D939D932F5F243149F74FBF13
:101540008091E800877F8093E8006AE270E0CE0136
:1015500001960E94000914C0AE014F5F5F4F609179
:10156000DC010E943706BC01009709F440C090914D
:10157000E800977F9093E80089819A810E945F0933
:101580008091E8008B778093E80031C0803879F54E
:101590008091E800877F8093E8008091D301809359
:1015A000F1008091E8008E778093E8000E94DA06CF
:1015B0001EC081111CC09091DA019230C0F480915C
:1015C000E800877F8093E8009093D3010E94DA06B9
:1015D0008091D301811106C08091E30087FD02C094
:1015E00081E001C084E08093D7010E9432058091A0
:1015F000E80083FF0AC08091EB0080628093EB00DB
:101600008091E800877F8093E800AA960FB6F8944F
:10161000DEBF0FBECDBFDF91CF911F910F91089517
:1016200090934F0180934E01089580914E019091C7
:101630004F010895E0914E01F0914F01309721F054
:101640000190F081E02D099480E00895E0914E0131
:10165000F0914F01309721F00280F381E02D099441
:10166000089520914C0130914D018217930771F03C
:1016700090934D0180934C01E0914E01F0914F0108
:10168000309721F00680F781E02D0994089520918C
:101690004A0130914B018217930771F090934B01EF
:1016A00080934A01E0914E01F0914F01309721F073
:1016B0000084F185E02D099408950E9401190E948B
:1016C0008A020E94A6190E945F1E0E942A1C0E9484
:1016D000731D0C949A204F925F927F928F929F92EB
:1016E000AF92BF92CF92DF92EF92FF920F931F9330
:1016F000CF93DF93CDB7DEB72A970FB6F894DEBF4E
:101700000FBECDBF0E94B60291E5C92E91E0D92E41
:1017100000E010E0AA24A394B12C702E802F0E9428
:10172000CD034C01F601419051906F014826592696
:1017300041145104B1F40F5F1F4F0630110569F7D2
:101740008FEF89838A831B820E940A198160782F18
:101750009D838C8349815A816B818D810E94FB100E
:101760003AC08091B30181FD0E94D60320E030E0B1
:101770007501022E02C0EE0CFF1C0A94E2F7C701AD
:1017800084219521892B09F12E837F828E209F2031
:1017900091E0892809F490E098870E940A198160F5
:1017A000782F9A8789874E815F8168858A850E9414
:1017B000FB10000F111FF801EF5AFE4F808191813D
:1017C000E826F926F182E08206C02F5F3F4F2F30D6
:1017D000310571F6B0CF109150010E941A0B181705
:1017E000D9F00E941A0B809350012A960FB6F894F4
:1017F000DEBF0FBECDBFDF91CF911F910F91FF9044
:10180000EF90DF90CF90BF90AF909F908F907F90A0
:101810005F904F900C94C11E2A960FB6F894DEBFCD
:101820000FBECDBFDF91CF911F910F91FF90EF9031
:10183000DF90CF90BF90AF909F908F907F905F9000
:101840004F900895CF93882309F4C2C0C82F8238DF
:1018500059F40E941A0B81FDBBC089E30E94EA156E
:101860000E94771789E30CC0833879F40E941A0B21
:1018700080FDAEC083E50E94EA150E94771783E5DC
:101880000E94B016CF910C947717843859F40E94B7
:101890001A0B82FD9DC087E40E94EA150E9477170B
:1018A00087E4EECF8CEF8C0F813A48F48C2F0E94A6
:1018B000E81B81118DC08C2F0E94EA15E3CF80E2D6
:1018C0008C0F883048F4C77081E001C0880FCA953A
:1018D000EAF70E944917D6CF8BE58C0F833078F456
:1018E000C53A29F0C63A31F083E890E005C081E8B6
:1018F00090E002C082E890E0CF910C94310B88E533
:101900008C0F833108F064C0C83A39F1C93A41F10B
:10191000CA3A49F1CB3A51F1CC3A59F1CD3A61F199
:10192000C03B69F1CE3A71F1CF3A79F1C13B81F117
:10193000C23B89F1C33B91F1C43B99F1C53BA1F195
:10194000C63BA9F1C73BB1F1C83BB9F1C93BC1F1F5
:10195000CA3BC9F180E090E038C082EE90E035C02B
:1019600089EE90E032C08AEE90E02FC085EB90E0E7
:101970002CC086EB90E029C087EB90E026C08CEC71
:1019800090E023C08DEC90E020C083E891E01DC082
:101990008AE891E01AC082E991E017C084E991E0F9
:1019A00014C081E292E011C083E292E00EC084E2B2
:1019B00092E00BC085E292E008C086E292E005C0AA
:1019C00087E292E002C08AE292E0CF910C94470B4A
:1019D000CF910895882309F44BC0823859F40E94AE
:1019E0001A0B81FF45C089E30E94EA150E94771710
:1019F00089E30CC0833871F40E941A0B80FF38C051
:101A000083E50E94EA150E94771783E50E94B016CD
:101A10000C947717843859F40E941A0B82FF28C05F
:101A200087E40E94EA150E94771787E4EFCF9CEFC6
:101A3000980F913A58F390E2980F983050F48770CD
:101A400091E001C0990F8A95EAF7892F0E944F17FC
:101A5000DFCF9BE5980F933020F480E090E00C946A
:101A6000310B885A833120F480E090E00C94470BCE
:101A70000895882321F00E9449170C947717089540
:101A8000882321F00E944F170C9477170895CF9266
:101A9000DF92EF92FF920F931F93CF93DF93CDB717
:101AA000DEB727970FB6F894DEBF0FBECDBF25E097
:101AB000FC01DE01119601900D922A95E1F7FC01DF
:101AC000408131810281258122952F70638174814B
:101AD000672B09F430C33F3F19F44F3F09F42BC380
:101AE0007C0149833A8389819A812F830E94A915B9
:101AF000182F9E830E94A8150E94B8149E81E92F7A
:101B0000E295EF70F0E0E05AFF4F2F810C94B52082
:101B1000892F807F9F70F92E882319F0F29480EF2F
:101B2000F822002349F0FF2009F443C28F2D0E94C0
:101B300059170E9477173DC2812F0E94EA0CFF209F
:101B400009F4F9C28F2D0E945F1727960FB6F894FB
:101B5000DEBF0FBECDBFDF91CF911F910F91FF90E0
:101B6000EF90DF90CF900C947717892F807F9F7034
:101B7000803211F4892F03C0892F8295807F112331
:101B800019F0113009F12AC00023A1F0222381F1BC
:101B9000213071F527960FB6F894DEBF0FBECDBF8A
:101BA000DF91CF911F910F91FF90EF90DF90CF9039
:101BB0000C946917222319F0213009F4BCC28E83DA
:101BC0000E946C178E8179C1002321F0263008F025
:101BD000B2C20EC0253008F0AEC26FC10023C1F002
:101BE000222331F0F701958190FFE3C19F70958327
:101BF00027960FB6F894DEBF0FBECDBFDF91CF9111
:101C00001F910F91FF90EF90DF90CF900C94390DC2
:101C1000222309F452C1E1C1292F2695269523706C
:101C200030E02115310521F021303105C1F083C2AA
:101C3000002319F0812F937002C080E090E0279676
:101C40000FB6F894DEBF0FBECDBFDF91CF911F91CD
:101C50000F91FF90EF90DF90CF900C94310B002309
:101C600019F0812F937002C080E090E027960FB6A4
:101C7000F894DEBF0FBECDBFDF91CF911F910F91C2
:101C8000FF90EF90DF90CF900C94470B892F8370DB
:101C900009F079C001114FC2812F82958695877016
:101CA000880F880F212F2F70C22ED12CE12CF12C00
:101CB000082E04C0CC0CDD1CEE1CFF1C0A94D2F7CD
:101CC00014FF12C04FE050E060E070E004C0440F29
:101CD000551F661F771F8A95D2F78A019B010095D1
:101CE00010952095309503C000E010E0980196957E
:101CF00096959370492F50E0C901B80142305105C3
:101D0000D1F04330510559F16C297D298E299F2945
:101D10004130510541F127960FB6F894DEBF0FBE52
:101D2000CDBFDF91CF911F910F91FF90EF90DF908A
:101D3000CF900C94CD146C297D298E299F2927964C
:101D40000FB6F894DEBF0FBECDBFDF91CF911F91CC
:101D50000F91FF90EF90DF90CF900C94DF140E94D2
:101D6000CD14C701B60127960FB6F894DEBF0FBE9B
:101D7000CDBFDF91CF911F910F91FF90EF90DF903A
:101D8000CF900C94BB14002319F0892F817001C0EF
:101D90008695882309F4CFC1812F82958695877017
:101DA000880F880F212F2F70C22ED12CE12CF12CFF
:101DB000082E04C0CC0CDD1CEE1CFF1C0A94D2F7CC
:101DC00014FF12C04FE050E060E070E004C0440F28
:101DD000551F661F771F8A95D2F78A019B010095D0
:101DE00010952095309503C000E010E0980196957D
:101DF00096959370492F50E0C901B80142305105C2
:101E0000D1F04330510559F16C297D298E299F2944
:101E10004130510541F127960FB6F894DEBF0FBE51
:101E2000CDBFDF91CF911F910F91FF90EF90DF9089
:101E3000CF900C9484156C297D298E299F29279693
:101E40000FB6F894DEBF0FBECDBFDF91CF911F91CB
:101E50000F91FF90EF90DF90CF900C9496150E9419
:101E60008415C701B60127960FB6F894DEBF0FBEE2
:101E7000CDBFDF91CF911F910F91FF90EF90DF9039
:101E8000CF900C947215103F41F118F4103E48F4B5
:101E90008BC0123F09F450C0D8F1133F09F460C061
:101EA00083C01F70892F8F71002321F00E940B15B2
:101EB000812F9ECE0E942C15812F27960FB6F89465
:101EC000DEBF0FBECDBFDF91CF911F910F91FF906D
:101ED000EF90DF90CF900C94400D0023A9F02530B7
:101EE00008F029C1892F8F7127960FB6F894DEBFAD
:101EF0000FBECDBFDF91CF911F910F91FF90EF905B
:101F0000DF90CF900C945115263008F014C1EACF21
:101F10000023A1F0892F8F7127960FB6F894DEBFAA
:101F20000FBECDBFDF91CF911F910F91FF90EF902A
:101F3000DF90CF900C940B15002361F3892F8F71E4
:101F400027960FB6F894DEBF0FBECDBFDF91CF91BD
:101F50001F910F91FF90EF90DF90CF900C942C1574
:101F6000002391F0892F8F7127960FB6F894DEBF6A
:101F70000FBECDBFDF91CF911F910F91FF90EF90DA
:101F8000DF90CF900C94F61427960FB6F894DEBF2E
:101F90000FBECDBFDF91CF911F910F91FF90EF90BA
:101FA000DF90CF900C94F1140023A1F0222309F4C8
:101FB000B1CF812F27960FB6F894DEBF0FBECDBFED
:101FC000DF91CF911F910F91FF90EF90DF90CF9015
:101FD0000C94220C222309F4B1CF812F27960FB63F
:101FE000F894DEBF0FBECDBFDF91CF911F910F914F
:101FF000FF90EF90DF90CF900C94EA0C492F4F7038
:10200000612FC7010E94440227960FB6F894DEBFE5
:102010000FBECDBFDF91CF911F910F91FF90EF9039
:10202000DF90CF900C942514011185C0112341F04D
:10203000892F8F70843021F0907F212F2F70922B69
:102040009F70492F50E04230510509F440C0BCF464
:102050004115510561F14130510509F06CC02796D9
:102060000FB6F894DEBF0FBECDBFDF91CF911F91A9
:102070000F91FF90EF90DF90CF900C949B1D433019
:102080005105A9F14430510509F055C0812F27961B
:102090000FB6F894DEBF0FBECDBFDF91CF911F9179
:1020A0000F91FF90EF90DF90CF900C94F91D279641
:1020B0000FB6F894DEBF0FBECDBFDF91CF911F9159
:1020C0000F91FF90EF90DF90CF900C94841D279696
:1020D0000FB6F894DEBF0FBECDBFDF91CF911F9139
:1020E0000F91FF90EF90DF90CF900C94B71D279643
:1020F0000FB6F894DEBF0FBECDBFDF91CF911F9119
:102100000F91FF90EF90DF90CF900C94D61D492F48
:102110004F70612FC70127960FB6F894DEBF0FBE30
:10212000CDBFDF91CF911F910F91FF90EF90DF9086
:10213000CF900C94500227960FB6F894DEBF0FBED6
:10214000CDBFDF91CF911F910F91FF90EF90DF9066
:10215000CF9008950E9466170E9438170E94771743
:1021600080E090E00E94310B80E090E00C94470BFF
:102170000E9456170C94AA100E94A915292F229587
:102180002F7030E02C3031054CF42A30310594F4B6
:10219000225031092230310538F40CC02C30310581
:1021A00029F02F30310511F080E0089593FB882746
:1021B00080F9089581E00895CF93DF9300D000D097
:1021C0001F92CDB7DEB70F900F900F900F900F902A
:1021D000DF91CF910895CF93DF9300D000D000D04E
:1021E000CDB7DEB726960FB6F894DEBF0FBECDBFD3
:1021F000DF91CF910895CF93DF93CDB7DEB72B97C3
:102200000FB6F894DEBF0FBECDBF4F8358876987E6
:102210007A878B87DE01119686E0FD0111928A95FF
:10222000E9F785E0FE01379601900D928A95E1F776
:102230004F81588569857A858B850E941A0449816A
:102240005A816B817C818D819E810E9481132B96A6
:102250000FB6F894DEBF0FBECDBFDF91CF910895CA
:102260001F93CF93DF93C0915D0116E080915E01D3
:10227000C81799F0D0E01C9FF0011D9FF00D1124AC
:10228000E15AFE4F40815181628173818481958141
:102290000E94EB102196C770E9CFDF91CF911F917B
:1022A000089540918F01509190016091910170913A
:1022B000920180919301909194010C94EB10809184
:1022C000940182958F7009F054C080919101882308
:1022D00009F44FC080915D01A0915E0160918F0172
:1022E000709190014091920150919301B6E08A174C
:1022F00009F43FC090E041155105C1F17F3F11F451
:102300006F3FA1F1B89FF001B99FF00D1124E15A80
:10231000FE4F218172132AC02081621327C02281BF
:10232000211124C0238134812417350710F4215052
:102330003109241B350B283C3105C0F42091940150
:102340002F7020612093940126E0289FF001299F9F
:10235000F00D1124EC59FE4F80818F7080618083D5
:102360008FE891E00E94470D0C9430110196877020
:10237000BECF0895CF92DF92EF92FF920F931F93FB
:10238000CF93DF93CDB7DEB762970FB6F894DEBF79
:102390000FBECDBF8C0185E0F801DE011D960190D6
:1023A0000D928A95E1F7D8014C9111965C911197A5
:1023B00012966C9112971396CD90DC9014973091F1
:1023C0008F017091900180919201909193010097FB
:1023D00009F46BC17F3F19F43F3F09F466C1E090F7
:1023E0009101EE2009F4C0C020919401C816D906CD
:1023F00028F0F601E81BF90BCF0104C080959095F9
:102400008C0D9D1DFF24F394883C910578F0F12CF0
:10241000207F09F0C6C07C2DD98AC88A89890E948C
:10242000DC108FE891E00E94470DB1C0822F807FC1
:1024300009F046C0751314C0341312C0611110C0E6
:102440002F702061209394010E9451118FE891E038
:102450000E94470D80919401D80115968C932EC04F
:10246000CD2819F15F3F11F44F3FF9F0F62E6111BD
:102470001CC080915D0120915E0136E0821709F455
:102480005AC090E0389FF001399FF00D1124E15AB5
:10249000FE4F7181571306C07081471303C07281CC
:1024A000711103C001968770E9CFF62E662309F4F7
:1024B00018C180919401816080939401F12C11C125
:1024C000751308C0341306C0611104C080919401D3
:1024D000D801C3C04D875E878D859E856A8B0E941B
:1024E000BC106A898823E1F16623D1F1209194011F
:1024F000822F82958F7090E0029774F080918F0107
:102500009091900198878F831986DB86CA862C87E5
:10251000CE0107960E94470D86E0F801AFE8B1E0D2
:1025200001900D928A95E1F70E945F110E9451116E
:10253000FF24F394D6C04D875E878D859E850E94CB
:10254000A915292F22952F7030E0223031050CF08B
:10255000BCC09F7009F0B6C0805E883008F4C1C06E
:10256000C8010E94470DE4CFC816D90608F453C02D
:10257000F601E81BF90BCF01883C910508F450C027
:10258000F12C7C2DD98AC88A89890E94DC10EFE859
:10259000F1E086E0DF011D928A95E9F70E94511172
:1025A000A0C0751314C0341312C0611110C0809103
:1025B0009401F8018583C8010E94470D86E0EFE889
:1025C000F1E0DF011D928A95E9F7FE2C8AC04D8764
:1025D0005E878D859E856A8B0E94BC106A898823E0
:1025E00009F4BECF662309F4BBCF20919401822F5A
:1025F00082958F7090E002970CF48ECF80918F01BE
:10260000909190019A8389831B82DD82CC822E83F4
:10261000CE0101967FCF809590958C0D9D1DACCFFE
:10262000F62E662309F49CCF75132EC034132CC0EC
:102630002091940120FD1FC0822F82958F70D9F0C8
:10264000D80115962C9315978F3049F08F5F982FEE
:102650009295907F822F8F70892B15968C93C8014D
:102660000E94470D86E0F801AFE8B1E001900D92BD
:102670008A95E1F793CF86E0F801AFE8B1E00190E9
:102680000D928A95E1F72DC04D875E878D859E85D9
:102690000E94BC10811140CF809194018160809391
:1026A0009401C8010E94470D1CC0662309F458CF4D
:1026B0004D875E878D859E850E94BC10882309F416
:1026C0004FCF2ACF811148CF0CC0243031050CF0F8
:1026D00047CF9F7009F440CFF8019581907F09F0B2
:1026E0003BCF8F2D62960FB6F894DEBF0FBECDBFE5
:1026F000DF91CF911F910F91FF90EF90DF90CF90DE
:1027000008951F93CF93DF93CDB7DEB72C970FB605
:10271000F894DEBF0FBECDBF4F83588769877A8795
:102720008B879C87CE0107960E94BA11882369F097
:102730008F8198852A853B85232BF1F19F3F09F0F6
:1027400063C08F3F09F060C037C086E0FE01379656
:10275000DE01119601900D928A95E1F76F817885DF
:10276000EA85FB85309741F17F3F11F46F3F21F1FE
:1027700020915E0130E0C901019687709927409150
:102780005D0150E08417950709F447C069837A8397
:10279000FD83EC8396E0929FD001939FB00D1124AE
:1027A000A15ABE4FFE01319601900D929A95E1F724
:1027B00080935E010E94301116E080915D0190913E
:1027C0005E018917C1F1189FC0011124815A9E4FE3
:1027D0000E94BA11882379F1E0915D011E9FF001FA
:1027E0001124E15AFE4F40815181628173818481BD
:1027F00095810E94EB1080915D0190E001968770B9
:10280000992780935D01D9CF4F81588569857A8555
:102810008B859C850E94EB10CFCF0E94B810109240
:102820005E0110925D01EFE8F1E086E0DF011D92AC
:102830008A95E9F7C1CF2C960FB6F894DEBF0FBE8C
:10284000CDBFDF91CF911F910895EF92FF920F932B
:102850001F93CF93DF938C01009709F46AC0F12C8A
:10286000EE24E394E8012196F8018491843740F442
:10287000843008F04FC0813081F0823019F159C0A6
:10288000853709F442C098F19CE7980F903708F01B
:1028900050C08F770E94EA0C3FC00E5F1F4FFE01B1
:1028A000C49180E28C0F883048F4C7708E2D01C02F
:1028B000880FCA95EAF70E9459172FC08C2F0E94E3
:1028C000220C2BC00E5F1F4FFE01C49180E28C0FC3
:1028D000883048F4C7708E2D01C0880FCA95EAF77A
:1028E0000E945F171AC08C2F0E94EA0C16C00E5F60
:1028F0001F4FFE01C491CC2381F08FE99FE0019727
:10290000F1F700C00000C150F6CF0E5F1F4FFE016F
:10291000F49003C00E94220C8E018F2D882309F4AD
:10292000A1CFEFE9FFE03197F1F700C0000081503F
:10293000F5CFDF91CF911F910F91FF90EF90089508
:102940006093990170939A0180939B0190939C01ED
:102950000E94F71E0C94AA10609395017093960143
:1029600080939701909398010E94391F0C94AA10AC
:1029700008950C94A0140F931F9300919901109146
:102980009A0120919B0130919C01602B712B822B2D
:10299000932B1F910F910C94A0140F931F930091F0
:1029A000990110919A0120919B0130919C01602323
:1029B0007123822393231F910F910C94A0140F93E2
:1029C0001F930091990110919A0120919B013091E0
:1029D0009C0160277127822793271F910F910C94E8
:1029E000A01460E070E0CB010C94AC140F931F9323
:1029F00041E050E060E070E08A019B0104C0000FFC
:102A0000111F221F331F8A95D2F7C901B8011F91E8
:102A10000F910C94AC140F931F9341E050E060E0D1
:102A200070E004C0440F551F661F771F8A95D2F7C8
:102A30008091950190919601A0919701B091980194
:102A40008A019B01082B192B2A2B3B2BC901B801AA
:102A50001F910F910C94AC140F931F9341E050E021
:102A600060E070E004C0440F551F661F771F8A9511
:102A7000D2F7409550956095709580919501909111
:102A80009601A0919701B09198018A019B010823BA
:102A900019232A233B23C901B8011F910F910C94DC
:102AA000AC140F931F9341E050E060E070E004C06D
:102AB000440F551F661F771F8A95D2F780919501A5
:102AC00090919601A0919701B09198018A019B0184
:102AD000082719272A273B27C901B8011F910F9101
:102AE0000C94AC140F931F930091950110919601D3
:102AF0002091970130919801602B712B822B932BA1
:102B00001F910F910C94AC140F931F93009195019A
:102B100010919601209197013091980160237123C3
:102B2000822393231F910F910C94AC140F931F9346
:102B30000091950110919601209197013091980193
:102B400060277127822793271F910F910C94AC1453
:102B50000895CF92DF92EF92FF920F931F93CF933E
:102B6000DF938C01C0909901D0909A01E0909B0175
:102B7000F0909C01409195015091960160919701D0
:102B800070919801C42AD52AE62AF72ACFE1D0E02D
:102B9000D701C6010C2E04C0B695A79597958795C9
:102BA0000A94D2F780FF07C0B8018C2F0E943F180B
:102BB0008130910531F4219758F7B80180E00E94E7
:102BC0003F18DF91CF911F910F91FF90EF90DF9011
:102BD000CF900895CF92DF92EF92FF920F931F93C1
:102BE000CF93DF93C82F80910C018823C9F08C2FDD
:102BF0008695869586958F3008F0A9C0E0910D01E5
:102C0000F0910E01E80FF11DC77081E090E00C2EED
:102C100001C0880F0A94EAF79181892B818397C0BC
:102C2000D090B0013091AE01E0910D01F0910E0114
:102C3000332309F477C04091AF018D2D2FEF96E03B
:102C4000E92EF12C082F112707FD1095BF01600F09
:102C5000711FDB0112969C919C1709F478C02F3FDD
:102C600019F4911101C0282FC801019606E010E067
:102C7000B7010E94A1208413E5CFD22F4D1152C07D
:102C80002F3F71F4842F992787FD90950196B80105
:102C90000E94A1208093B00131503093AE0142C018
:102CA000822F992787FD90950196B8010E94A12057
:102CB000282FFF24F39406E010E0332727FD3095FA
:102CC0006F01C20ED31ED60112965C91552399F066
:102CD0008D2F992787FD9095BF01680F791FDB0124
:102CE00012965C93D60112961C920196B8010E942E
:102CF000A120D82F01C0F394C9010196B8010E9408
:102D0000A120282F8413D9CF242F332727FD3095D6
:102D10002F193109C901069666E070E00E94A120D2
:102D20008093AF012091AF01332727FD3095E20F4B
:102D3000F31FC283C901019666E070E00E94A120E2
:102D40008093AF018091AE018F5F8093AE01DF91E0
:102D5000CF911F910F91FF90EF90DF90CF9008954A
:102D6000EF92FF920F931F93CF93C82F80910C0186
:102D70008823D1F08C2F8695869586958F3008F024
:102D800071C0E0910D01F0910E01E80FF11DC770C7
:102D900081E090E00C2E01C0880F0A94EAF780953C
:102DA0009181892381835EC02091B0014091AE0161
:102DB000442309F457C0E0910D01F0910E010091F8
:102DC000AF01112707FD109586E0E82EF12C30E0C9
:102DD000DF01A20FB31FCD01029612965C915C1326
:102DE00037C0DC011C9241504093AE01411104C038
:102DF0001092B0011092AF014091AF01842F99273A
:102E000087FD9095059666E070E00E94A120281746
:102E1000390741F5C091B00106E010E0842F9927F1
:102E200087FD90950596B8010E94A1209C01482F2E
:102E30000596B8010E94A120DF01A80FB91F1296C4
:102E40008C91811102C02C13E9CF2093AF010AC0ED
:102E5000C9010196B7010E94A120282F8017910770
:102E600009F0B5CFCF911F910F91FF90EF9008958A
:102E700081E090E0E0910D01F0910E01E80FF91F63
:102E80001082019680319105A9F708958091B201D1
:102E900008959091B201892B8093B2010895809595
:102EA0009091B20189238093B20108951092B201EA
:102EB00008959091B101892B8093B1010895809577
:102EC0009091B10189238093B10108951092B101CD
:102ED000089580939D01089510929D010895809119
:102EE0000C01811103C08091AE0108950895E09115
:102EF0000D01F0910E018091B2018083E0910D01EE
:102F0000F0910E0190818091B101892B8083809195
:102F10009D01882361F0E0910D01F0910E019081F7
:102F2000892B80830E946F17811110929D018091DF
:102F30000D0190910E010C94260B8B3B50F4883AB6
:102F4000E8F4853A90F4843070F4813009F455C087
:102F500007C0803E28F0883E30F0803F08F04AC02D
:102F600080E090E0089590E00895853A09F448C023
:102F7000863A09F448C083E890E40895883A09F451
:102F800045C0893A09F445C08A3A09F445C08B3AEC
:102F900009F445C08C3A09F445C08D3A09F445C09E
:102FA000803B09F445C08E3A09F445C08F3A09F4D4
:102FB00045C0813B09F445C0823B09F445C0833BD1
:102FC00009F445C0843B09F445C0853B09F445C07C
:102FD000863B09F445C0873B09F445C0883B09F4AA
:102FE00045C0893B09F445C08A3B09F445C080E0EF
:102FF00094E4089590E09065089581E090E008954C
:1030000081E890E4089582E890E4089582EE94E4E3
:10301000089589EE94E408958AEE94E4089585EB8A
:1030200094E4089586EB94E4089587EB94E408957E
:103030008CEC94E408958DEC94E4089583E895E491
:1030400008958AE895E4089582E995E4089584E96D
:1030500095E4089581E296E4089583E296E4089564
:1030600084E296E4089585E296E4089586E296E483
:10307000089587E296E408958AE296E408950E940E
:103080006B02803EA8F4803C00F5813309F45CC0FB
:1030900038F4893209F452C08A3209F45BC05FC047
:1030A0008933B1F08238A1F0853309F441C057C0AB
:1030B000833E41F128F4803E99F0823EB9F04FC042
:1030C000863E31F1873E71F14AC00E946F02089539
:1030D0009091D20190FD02C091FF41C080EE3FC0AF
:1030E0008091D20180FFFACF89E339C08091D2016B
:1030F00082FF0CC08091D20184FF02C080E02FC00B
:1031000083EE2DC08091D20182FFF4CF82EE27C0E2
:103110008091D20183FF0AC08091D20184FDEECF5D
:1031200087EE1DC08091D20183FFF6CF86EE17C0D7
:103130008091D20185FF06C089E211C08091D20141
:1031400085FFFACF85E30BC08091D20186FF06C0D0
:103150008AE205C08091D20186FFFACF81E30E9406
:103160009D1708959091D701943039F183FD02C0E5
:1031700090E401C090E68770892B28E130E00FB61B
:10318000F894A895209360000FBE809360000E9481
:10319000471C83B7817F846083BF83B7816083BF0F
:1031A0007894889583B78E7F83BF88E10FB6F894B3
:1031B00080936000109260000FBE0895CF930E942C
:1031C0003C020E94B6020E943D02C0E08C2F0E9489
:1031D000CD03892B29F4CF5FC630C1F780E001C051
:1031E00081E0CF9108950E94B8100C94731D1F9236
:1031F0000F920FB60F9211240F900FBE0F901F90D9
:10320000189582E084BD93E095BD9AEF97BD8093B9
:103210006E0008952FB7F8948091B4019091B50194
:10322000A091B601B091B7012FBF08951F920F92E0
:103230000FB60F9211248F939F93AF93BF938091FA
:10324000B4019091B501A091B601B091B70101967A
:10325000A11DB11D8093B4019093B501A093B60157
:10326000B093B701BF91AF919F918F910F900FBE17
:103270000F901F9018950E942B07F8942FEF87EA64
:1032800091E6215080409040E1F700C0000087E0C7
:1032900090EBDC018093E1019093E201A093E301C4
:1032A000B093E4012CE088E190E00FB6F894A89583
:1032B000809360000FBE20936000FFCFCF92DF921B
:1032C000EF92FF920F931F93CF93DF93D82FC0E01D
:1032D000EE24E394F12C8C2F0E94CD036C0100E0CE
:1032E00010E09701002E02C0220F331F0A94E2F76C
:1032F0002C213D21232B31F40F5F1F4F0F3011057F
:1033000081F709C0602F7C2F80E00E946B02D813E8
:10331000F3CF81E004C0CF5FC630E9F680E0DF91F3
:10332000CF911F910F91FF90EF90DF90CF90089574
:10333000CF93C82F8CE20E945E19882321F08C2F36
:10334000CF910C945E1980E0CF910895CF930E94A5
:10335000FD1A811102C00E94D81AC5E6C15049F079
:103360000E94B6028FE39CE90197F1F700C00000CC
:10337000F5CF89E20E949819811118C18AE20E9452
:103380009819882331F00E94F71A0E94D81A0E94D7
:10339000202085E00E94981981110E943B190E940B
:1033A000081B8093B30187E00E9498198823A9F134
:1033B0008BE10E949819882351F08091B30181FB21
:1033C000222720F991E0922790FB81F90EC08EE030
:1033D0000E949819882361F08091B30182FB222713
:1033E00020F991E0922790FB82F98093B30115C0F8
:1033F00080E10E9498199091B301882341F093FBDA
:10340000222720F981E0822780FB93F904C0892FCD
:10341000809580FB90F99093B3018091B3010E9455
:103420000C1B0E941A1B8093D20180EE0E949819F7
:10343000882341F08091D201982F909590FB80F9DC
:103440008093D20189E30E949819882359F08091D2
:10345000D20181FB222720F991E0922790FB81F98C
:103460008093D20182EE0E949819882359F08091AE
:10347000D20182FB222720F991E0922790FB82F96A
:103480008093D20186EE0E949819882359F080918A
:10349000D20183FB222720F991E0922790FB83F948
:1034A0008093D20183EE0E949819882359F080916D
:1034B000D20184FB222720F991E0922790FB84F926
:1034C0008093D20185E30E949819882359F0809156
:1034D000D20185FB222720F991E0922790FB85F904
:1034E0008093D20181E30E949819882359F080913A
:1034F000D20186FB222720F991E0922790FB86F9E2
:103500008093D20181E10E949819882359F080911B
:10351000D20187FB222720F991E0922790FB87F9BF
:103520008093D2018091D2010E941E1B8091D20112
:1035300087FB882780F980930C0187E20E94981905
:10354000C82F8EE10E9498198111C2608FE10E94FC
:1035500098198111C46080E20E9498198111C86095
:1035600081E20E9498198111C06182E20E9498193B
:103570008111C06283E20E9498198111C06484E2C3
:103580000E949819882311F0C06802C0CC2329F04A
:103590008C2F0E94151B6C2F03C00E94111B682FDB
:1035A00070E080E090E0CF910C94B914CF91089531
:1035B0006DEE7EEF80E090E00E94EB2060E082E024
:1035C00090E00E94DD2060E083E090E00E94DD203A
:1035D00060E084E090E00E94DD2060E085E090E023
:1035E0000E94DD2060E086E090E00C94DD206FEF2B
:1035F0007FEF80E090E00C94EB2080E090E00E9470
:10360000D72021E08D3E9E4F09F020E0822F0895C3
:1036100082E090E00C94CF20682F82E090E00C9440
:10362000DD2083E090E00C94CF20682F83E090E0D1
:103630000C94DD2084E090E00C94CF20682F84E08F
:1036400090E00C94DD2086E090E00C94CF20682F71
:1036500086E090E00C94DD200F931F93482F50E0FC
:10366000FA013697E334F10508F0AAC0E059FF4F9C
:103670000C94B5200E94081B0E941A1B0E94231B59
:1036800049C00E94150B892B49F00E94150B90939D
:10369000BA018093B90180E090E004C08091B90143
:1036A0009091BA010E94100B35C08091B301817FC7
:1036B0008E7F8093B30181E08093B80182C00E9425
:1036C000B8100FEF13ED20E3015010402040E1F758
:1036D00000C000000E943B191DC09091B301892FCA
:1036E000817090FF12C0917F9E7F9093B30169C05B
:1036F0008091B30181FB222720F991E0922790FB72
:1037000081F98093B301992329F08091B3018160FD
:103710008093B30181E055C08091B30182FB2227E1
:1037200020F991E0922790FB82F9EBCF8091B301D1
:1037300083FB222720F991E0922790FB83F9E1CFC8
:103740000E94B81090910C0181E0892780930C01B0
:10375000E1CF81E890E00E94310B3FEF81EE94E0F1
:10376000315080409040E1F700C0000080E090E0E0
:103770000E94310B0FEF19E628E101501040204064
:10378000E1F700C00000C6CF61E070E080E090E0AB
:1037900012C08D5101C0895341E050E060E070E0FB
:1037A0008A019B0104C0000F111F221F331F8A953D
:1037B000D2F7C901B8010E94B9140E94B810AACF6B
:1037C00080E01F910F91089580E0089580E00895B2
:1037D000CF93C82F8091B801882319F0813049F028
:1037E00031C0E0910D01F0910E018081823261F5CE
:1037F00007C0E0910D01F0910E018081823261F4E9
:103800008C2F0E94E41B811104C08C2F0E942C1B62
:1038100017C081E090E014C08C2F0E94E61B81113C
:103820000EC0C43149F018F4CB3049F00FC0C93292
:1038300019F0C83321F00AC01092B80107C081E026
:10384000817006C01092B80180E002C080E0F8CF1D
:10385000CF910895E1E8F0E08081886080838081E5
:10386000816080838FB7F89493E09093890090ED06
:10387000909388008FBF0C947B1FEFE6F0E080816F
:103880008260808381E08093CB010C94961FEFE6E9
:10389000F0E080818D7F80831092CB0180E00E94D8
:1038A000891F81E00E94891F8091CB010C94961F93
:1038B000E7ECF1E0808381830895E82FF0E0E9539D
:1038C000FE4F2081422F50E08FEF90E0861B910940
:1038D000841795071CF48FEF80830895620F60832F
:1038E0000895CF93C82F682F80E00E945D1C6C2F35
:1038F00081E0CF910C945D1CE82FF0E0E953FE4F7E
:103900008081861710F410820895861B80830895A5
:10391000CF93C82F682F80E00E947C1C6C2F81E021
:10392000CF910C947C1C8091CB0108958091C601AD
:1039300083608093C60108951092C6010895809314
:10394000C50108958093C40108958091C3018360E7
:103950008093C30108951092C30108958093C2011A
:1039600008951F920F920FB60F9211240F931F9379
:103970002F933F934F935F936F937F938F939F9377
:10398000AF93BF93CF93DF93EF93FF938091C101E8
:103990008F5F8093C10181110DC00E947C1F8091B7
:1039A000C7018093C90181E00E947C1F8091C801FA
:1039B0008093CA019091C1018091C901981303C0FD
:1039C00080E00E94891F9091C1018091CA019813E3
:1039D00003C081E00E94891F0091C601011105C04A
:1039E0009091C301911133C069C08091C0018F5F74
:1039F000813418F48093C001F3CF1092C0018091FC
:103A0000BF018F5F8093BF019091C401981740F769
:103A10001092BF01C0E0D0E010E0C8010C2E02C03F
:103A2000969587950A94E2F780FF0CC08091C501B6
:103A300061E0882321F08C2F0E947C1C03C08C2F16
:103A40000E945D1C219761F2C1E0D0E0E6CF809139
:103A5000BE018F5F813418F48093BE012FC0109295
:103A6000BE018091BD018F5F8093BD012091C20195
:103A7000281720F51092BD018091BC01E82FF0E0DD
:103A8000E559FC4FE491292F90FDE093C70121FDFA
:103A9000E093C8019091BB01992339F0811103C0D3
:103AA0001092BB010BC0815007C08F3721F481E019
:103AB0008093BB0103C08F5F8093BC01FF91EF91A6
:103AC000DF91CF91BF91AF919F918F917F916F9136
:103AD0005F914F913F912F911F910F910F900FBECA
:103AE0000F901F9018950E94FD1A811102C00E942C
:103AF000D81A0E94231B8093E00180FF02C08695A4
:103B000001C080E00C94D7038091E001982F969536
:103B1000292F30E0283031054CF49F5F990F8170D8
:103B2000892B81608093E0010E94271B8091E00136
:103B300086950C94D7038091E001982F969591F08B
:103B40009158990F8170892B8093E0018E7F91E0CD
:103B500009F490E08091E00190FB80F98093E0010E
:103B60000E94271B8091E00186950C94D7038091D9
:103B7000E001982F9095917090FB80F98093E0017F
:103B8000992339F0982F9E7F21F481708260809371
:103B9000E0018091E0010E94271B8091E00180FFFD
:103BA00002C0869501C080E00C94D7039091E0019B
:103BB000892F86958F5F8F779170893028F4880FD1
:103BC000892B8093E00102C09093E0018091E00195
:103BD0008E7F91E009F490E08091E00190FB80F904
:103BE0008093E0010E94271B8091E00186950C9450
:103BF000D703880F9091E0019170892B8093E001A9
:103C00008E7F91E009F490E08091E00190FB80F9D3
:103C10008093E0010E94271B8091E00186950C941F
:103C2000D703DF92EF92FF920F931F93CF93DF930F
:103C30000091D1010827611101C0C9F1C0E0D0E0B5
:103C4000E62EF82E10E0DC2E0E94931C882359F0FB
:103C50002091CD0130E00C2E02C0369527950A94B4
:103C6000E2F720FD1DC0E11009C0C8010C2E02C002
:103C7000969587950A94E2F780FF12C02091CC01B7
:103C80002F2530E00C2E02C0369527950A94E2F7D6
:103C90008D2D20FF03C00E94540402C00E945D04C9
:103CA000219719F0C1E0D0E0CECFF092D101DF91A1
:103CB000CF911F910F91FF90EF90DF9008950F9398
:103CC0001F93CF93DF93C0E0D0E001E010E08C2F92
:103CD0000E94460494FF0BC08091CC0198010C2EE9
:103CE00001C0220F0A94EAF7282B2093CC0195FFFC
:103CF0000BC08091CD0198010C2E01C0220F0A94B7
:103D0000EAF7282B2093CD019F70892F90E0823015
:103D1000910589F083309105D1F08130910511F53D
:103D20000C2E01C0880F0A94EAF79091CF01892BDD
:103D30008093CF0117C02091CE01C8010C2E01C085
:103D4000880F0A94EAF7822B8093CE010BC0209152
:103D5000D001C8010C2E01C0880F0A94EAF7822B0B
:103D60008093D001219719F0C1E0D0E0B0CF0E943C
:103D70004F0461E080E0DF91CF911F910F910C948F
:103D8000111ECF93DF939091D001992369F1D82F21
:103D9000C091D10190FF0FC080E00E9446042D2FFA
:103DA00030E002C0359527958A95E2F720FD02C0E4
:103DB000CE7F01C0C1608091D00181FF0FC081E042
:103DC0000E9446042D2F30E002C0359527958A9534
:103DD000E2F720FD02C0CD7F01C0C26060E08C2F01
:103DE000DF91CF910C94111EDF91CF910895CF9266
:103DF000DF92EF92FF92CF932091CF01222399F18E
:103E00006B017C01C091D10120FF11C080E00E94B4
:103E10004604A701960104C0569547953795279506
:103E20008A95D2F720FD02C0CE7F01C0C16080918B
:103E3000CF0181FF0FC081E00E94460404C0F694C8
:103E4000E794D794C7948A95D2F7C0FC02C0CD7F7F
:103E500001C0C26060E08C2FCF91FF90EF90DF90A7
:103E6000CF900C94111ECF91FF90EF90DF90CF90E8
:103E70000895CF92DF92EF92FF92CF932091CE01DF
:103E8000222399F16B017C01C091D10120FF11C067
:103E900080E00E944604A701960104C0569547950C
:103EA000379527958A95D2F720FD02C0CE7F01C0B5
:103EB000C1608091CE0181FF0FC081E00E94460465
:103EC00004C0F694E794D794C7948A95D2F7C0FCBF
:103ED00002C0CD7F01C0C26060E08C2FCF91FF9007
:103EE000EF90DF90CF900C94111ECF91FF90EF9048
:103EF000DF90CF90089508952091CD0130E0082EF5
:103F000002C0369527950A94E2F720FD0C945404DC
:103F100008952091CD0130E0082E02C036952795F6
:103F20000A94E2F720FD0C945D040895811105C008
:103F300061E08091D1010C94111E0895CF92DF921F
:103F4000EF92FF920F931F93CF9381E190E00E9435
:103F5000D7208C01C12CD12C2DEEE22E2EEFF22E8B
:103F60000E948602C82F0E948802C89FC0011124A7
:103F70009C0183E0220F331F8A95E1F7205C3F4FBD
:103F8000C216D30680F4C60143960E94CF20282F84
:103F900030E0C0FE02C0322F2227E20EF31E8FEF68
:103FA000C81AD80ADDCF81E00E151F0509F080E0A0
:103FB000CF911F910F91FF90EF90DF90CF900895D8
:103FC00090E0880F991F43960C94D72090E0880FBB
:103FD000991F43960C94EB20EF92FF920F931F933F
:103FE000CF93DF9300D0CDB7DEB7082F4A83698324
:103FF0000E948602089F800111240E948802809FEF
:104000007001819FF00C11240E9488026981970140
:10401000689F200D311D1124C9014A81840F911D13
:104020008D5A9F4F0F900F90DF91CF911F910F915D
:10403000FF90EF900C94CF208D5A9F4F0C94DD2071
:104040008F929F92AF92BF92CF92DF92EF92FF92A8
:104050000F931F93CF93DF930E9476026C010E940F
:1040600073027C01C114D10409F10E9441024C0188
:10407000A12CB12C0DEE1EEFA814B90420F4F6010A
:10408000C591D49102C0C0E0D0E0BE018A2D0E944B
:10409000E61F0C0F1D1F8FEFA81AB80A82E0C80E8A
:1040A000D11C80E2A816B10439F702C00DEE1EEF54
:1040B000E114F10471F10E943E026C01A12CB12CBB
:1040C0000E948602C82F0E948802C89FC001112446
:1040D00023E0880F991F2A95E1F7A816B906C8F4BE
:1040E000AC14BD0428F4F701EA0DFB1DC49101C016
:1040F000C0E06C2FC5010E941C20EC2FF0E0A0FE58
:1041000002C0FE2FEE270E0F1F1F8FEFA81AB80A4E
:10411000D7CFB80181E190E0DF91CF911F910F914E
:10412000FF90EF90DF90CF90BF90AF909F908F90D7
:104130000C94EB200E949E1F811102C00C94202041
:10414000089597FB072E16F4009407D077FD09D049
:104150000E94BB2007FC05D03EF4909581959F4FAF
:104160000895709561957F4F0895EE0FFF1F05909C
:10417000F491E02D0994AA1BBB1B51E107C0AA1FB3
:10418000BB1FA617B70710F0A61BB70B881F991FF8
:104190005A95A9F780959095BC01CD010895F9999C
:1041A000FECF92BD81BDF89A992780B50895A8E108
:1041B000B0E042E050E00C94F220262FF999FECFB7
:1041C0001FBA92BD81BD20BD0FB6F894FA9AF99A34
:1041D0000FBE019608950E94DD20272F0C94DE204B
:1041E000DC01CB01FC01F999FECF06C0F2BDE1BDB7
:1041F000F89A319600B40D9241505040B8F70895A6
:04420000F894FFCF60
:10420400056604D20469049E046A0401019E013F08
:0E42140036392C03F602BD02690282029B02BB
:00000001FF
