:100000000C9412060C9456060C9456060C94560644
:100010000C9456060C9456060C9456060C945606F0
:100020000C9456060C9456060C94600D0C94300EED
:100030000C94D71F0C9456060C9456060C94560636
:100040000C9456060C9431260C9456060C945606C5
:100050000C9456060C94F61F0C9456060C945606F7
:100060000C9456060C9456060C9456060C945606A0
:100070000C9456060C9456060C9456060C94560690
:100080000C9456060C9456060C9456060C94560680
:100090000C9456060C9456060C9456060C94560670
:1000A0000C9456060C9456060C945606980FBA0FEC
:1000B000A610BA0FA610FC0F2010A61075108810FD
:1000C0009F139F13CD13CD132214AB16AB16AB1693
:1000D0005E14AB165515551511162516AB16991647
:1000E000332461245E224A254A25E8234A254A25ED
:1000F0008D244A25A02415254A254A254A254A2526
:10010000EA24D1244A25BA244A257A244A254A25B4
:100110004425442544254425442544254425442597
:10012000442542254A2542254A254A254A254A256D
:100130004A254A254A254A254A254A254A2542254F
:100140004A254A25E823CB2346254625462546252C
:100150004625462546254625462546254625462547
:1001600027254A254D24016202620162026200F1E4
:10017000A100D100D200D0293A3B3C3D3E3F404156
:10018000424344454A4C351E1F2021222324252664
:10019000272D2E2A4B2B141A0815171C180C121376
:1001A0002F30314E39041607090A0B0D0E0F333468
:1001B000002849E1001D1B0619051110363738E5E6
:1001C00052C0E0E3E200002C00004D00E6E4505194
:1001D0004F010101010101010101010101010101C1
:1001E00001010101010101010101010101010101FF
:1001F0000152010101B20149014647480101015084
:10020000514F0101010101014A4B010101010001AE
:1002100065C1C2C3AAA9A84D4E0101010101010097
:1002200000010000010101010101010A0025303136
:100230003662003A200025303258000A722F6320BF
:10024000303132333435363738394142434445460C
:100250000A000A002530325800626F756E6365210E
:100260003A2000001080FF012300204B6579626F67
:100270006172642073746172742E0A0055534220B7
:10028000636F6E666967757265642E0A000C0341C0
:10029000004D004A0038003400000010034800619F
:1002A000006E004300680065006E00000004030952
:1002B0000409027400040100A032090400000103D3
:1002C000010100092111010001223F0007058103FE
:1002D00008000A09040100010300000009211101BE
:1002E00000012236000705820308000A0904020003
:1002F000020300000009211101000122200007056E
:100300008303200001070503032000010904030003
:100310000103000000092111010001223900070535
:1003200084031000011201100100000008EDFE76A8
:100330006001000102000105010906A1010507197C
:10034000E029E715002501950875018102050819C6
:100350000129059505750191029501750391010526
:10036000071900297715002501957875018102C0CC
:100370000631FF0974A1010975150025FF95207547
:100380000881020976150025FF952075089102C0A5
:1003900005010980A101850216010026B7001A0196
:1003A000002AB700751095018100C0050C0901A154
:1003B000018503160100269C021A01002A9C027581
:1003C0001095018100C005010906A101050719E08A
:1003D00029E7150025019508750181029501750829
:1003E00081010508190129059505750191029501FD
:1003F000750391010507190029FF150025FF9506D2
:1004000075088100C00A002530325820006B6579DC
:10041000626F6172645F7265706F72743A20000A75
:100420000025303258006B6579626F6172645F73CA
:1004300065745F6C65643A200064656C5F6B657918
:100440005F6269743A2063616E27742064656C3A58
:1004500020253032580A006164645F6B65795F6201
:1004600069743A2063616E2774206164643A2025C0
:100470003032580A00646F6E652E0A00626F6F6733
:100480006D61676963207363616E3A202E2E2E20A2
:10049000003F000A5175697420436F6E736F6C657D
:1004A000204D6F64650A00433E20000A0025750058
:1004B00020746F20002575007377697463685F642A
:1004C000656661756C745F6C617965723A20004590
:1004D00053432F713A09717569740A000A0A2D2D68
:1004E0002D2D2D20436F6E736F6C652048656C70E9
:1004F000202D2D2D2D2D0A00506175733A096A7536
:100500006D7020746F20626F6F746C6F61646572C0
:100510000A00436170733A094C6F636B204B657935
:10052000626F617264284368696C642050726F6FF7
:1005300066290A00505363723A09706F776572201A
:10054000646F776E2F72656D6F74652077616B6570
:100550002D75700A00342F46343A09737769746335
:100560006820746F204C6179657234200A00332F43
:1005700046333A0973776974636820746F204C615D
:1005800079657233200A00322F46323A097377694F
:1005900074636820746F204C6179657232200A00A0
:1005A000312F46313A0973776974636820746F207C
:1005B0004C6179657231200A00302F4631303A099A
:1005C00073776974636820746F204C617965723049
:1005D000200A006E3A09746F67676C65204E4B52B3
:1005E0004F0A00653A097072696E74206565707211
:1005F0006F6D20636F6E6669670A00733A097072E7
:10060000696E74207374617475730A00743A0970AA
:1006100072696E742074696D657220636F756E7493
:100620000A00763A097072696E74206465766963AF
:10063000652076657273696F6E202620696E666F1D
:100640000A006D3A09746F67676C65206D6F75738A
:10065000652064656275670A006B3A09746F6767A5
:100660006C65206B6579626F617264206465627588
:10067000670A00783A09746F67676C65206D61746A
:100680007269782064656275670A00643A09746F5C
:1006900067676C6520646562756720656E61626C72
:1006A000650A00633A09656E74657220636F6E7344
:1006B0006F6C65206D6F64650A000A0A2D2D2D2D63
:1006C0002D20436F6D6D616E642048656C70202D28
:1006D0002D2D2D2D0A000A002575002E6C657665DE
:1006E0006C3A20000A002575002E656E61626C650B
:1006F0003A20000A0025303258006261636B6C6951
:100700006768745F636F6E6669672E7261773A20FF
:10071000000A002575002E6E6B726F3A20000A00E9
:100720002575002E737761705F6261636B736C6116
:1007300073685F6261636B73706163653A20000A7E
:10074000002575002E737761705F67726176655F53
:100750006573633A20000A002575002E6E6F5F678F
:1007600075693A20000A002575002E737761705F65
:1007700072616C745F726775693A20000A002575B2
:10078000002E737761705F6C616C745F6C67756964
:100790003A20000A002575002E636170736C6F6348
:1007A0006B5F746F5F636F6E74726F6C3A20000AD8
:1007B000002575002E737761705F636F6E74726FC2
:1007C0006C5F636170736C6F636B3A20000A002585
:1007D000303258006B65796D61705F636F6E66696A
:1007E000672E7261773A20000A002575002E6D6F22
:1007F0007573653A20000A002575002E6B657962D5
:100800006F6172643A20000A002575002E6D6174D4
:100810007269783A20000A002575002E656E6162C3
:100820006C653A20000A0025303258006465627514
:10083000675F636F6E6669672E7261773A20000AA0
:100840000025750064656661756C745F6C6179651F
:10085000723A20003F004E4B524F3A206469736158
:10086000626C65640A004E4B524F3A20656E6162BD
:100870006C65640A006B6579626F6172645F6964BC
:100880006C653A2025580A006B6579626F61726465
:100890005F70726F746F636F6C3A2025580A00683E
:1008A0006F73745F6B6579626F6172645F6C6564AE
:1008B0007328293A2025580A000A0A2D2D2D2D2D9E
:1008C00020537461747573202D2D2D2D2D0A007405
:1008D000696D65725F636F756E743A202530346C94
:1008E000580A004743433A20342E382E33204156CD
:1008F000522D4C4942433A20312E382E3020415659
:10090000525F415243483A20617672350A004F5097
:1009100054494F4E533A204C55464120424F4F5474
:100920004D414749432045585452414B4559204376
:100930004F4E534F4C4520434F4D4D414E44204E5A
:100940004B524F20364B524F204B45594D41505F33
:10095000494E5F454550524F4D204C45444D415006
:10096000204241434B4C4947485420534F46545032
:10097000574D5F4C454420425245415448494E47EB
:100980005F4C454420343039360A004255494C44C6
:100990003A2030656132613735202830323A3030C4
:1009A0003A343120417072202031203230313529E3
:1009B0000A005649443A2030784645454428486163
:1009C0006E4368656E29205049443A2030783630AD
:1009D000373628414D4A383429205645523A20307E
:1009E00078303030310A00444553433A20742E6D3C
:1009F0002E6B2E206B6579626F617264206669725E
:100A00006D7761726520666F7220416D6A38340AB5
:100A1000000A0A2D2D2D2D2D2056657273696F6EDB
:100A2000202D2D2D2D2D0A000A44454255473A20F0
:100A30006D6F7573652064697361626C65642E0AFD
:100A4000000A44454255473A206D6F75736520652D
:100A50006E61626C65642E0A000A44454255473A4D
:100A6000206B6579626F6172642064697361626C86
:100A700065642E0A000A44454255473A206B657961
:100A8000626F61726420656E61626C65642E0A003B
:100A90000A44454255473A206D6174726978206472
:100AA000697361626C65642E0A000A4445425547C9
:100AB0003A206D617472697820656E61626C65645C
:100AC0002E0A000A44454255473A20656E61626C21
:100AD00065642E0A000A44454255473A206469730A
:100AE00061626C65642E0A006E6F7420737570709D
:100AF0006F727465642E0A000A0A4A756D7020745C
:100B00006F20626F6F746C6F616465722E2E2E2081
:100B100000433E20000A456E74657220436F6E7379
:100B20006F6C65204D6F64650A00556E6C6F636B6A
:100B300065642E0A004C6F636B65642E0A00656560
:100B4000636F6E6669673A0A0000000000000000EB
:100B5000000000010101020202030304040505066E
:100B600006070808090A0B0B0C0D0E0F10111213C3
:100B7000151617191A1B1D1E2022232527292B2D78
:100B80002F313335383A3D3F4244474A4D50535652
:100B9000595C5F6266696C7074777B7E82868A8E30
:100BA0009195999DA1A5A9ADB0B4B8BCC0C3C7CB60
:100BB000CED2D5D8DBDFE2E4E7EAECEFF1F3F5F7EC
:100BC000F8FAFBFCFDFEFFFFFF6261636B6C696777
:100BD000687420737465703A2025750A0062616339
:100BE0006B6C6967687420746F67676C653A202561
:100BF000750A006261636B6C696768742064656381
:100C000072656173653A2025750A006261636B6CD9
:100C10006967687420696E6372656173653A20253F
:100C2000750A000011241FBECFEFDAE0DEBFCDBF92
:100C300004B603FE24C08091EA019091EB01A091DB
:100C4000EC01B091ED018730904BA740B04BB9F467
:100C50001092EA011092EB011092EC011092ED015A
:100C600014BE84B7877F84BF88E10FB6F894809361
:100C70006000109260000FBEE0E0F8E3099511E01B
:100C8000A0E0B1E0E4E9F5E502C005900D92A432E0
:100C9000B107D9F711E0A4E2B1E001C01D92AA3E6C
:100CA000B107E1F70E94AC0B0C94C82A0C94000029
:100CB000FF93EF93E091BB01F091BC01309709F0F5
:100CC0000995EF91FF910895FC018591803011F015
:100CD000EFDFFBCF0895FF27E0E230E247FF0CC0D3
:100CE000419597FF09C0EDE26095709580959095CC
:100CF000611D711D811D911D27FF02C0219530E3EB
:100D000050E2AA27660F771F881F991FAA1FA417F2
:100D100010F0A41B63955A95A9F7AA3008F0A95FB3
:100D2000A05DAF93F395611571058105910541F7BC
:100D3000ED3211F4EF93F395F21718F43F93F39516
:100D4000FBCF8F91B5DFFA95E1F70895E991F9911D
:100D50008591803021F0853219F0AADFF9CF08950E
:100D600020E0E89455915532C1F3503311F4689462
:100D700055915A3348F4505390F3220F022E220F0C
:100D8000220F200D250FF4CF0EF421958991999112
:100D9000533619F3533729F1533559F1BC018827DC
:100DA0009927E8945C3621F489919991689455913A
:100DB000543639F446EF7EF077FF0DC08FEF9FEF8A
:100DC0000AC055374AE039F0583540E121F0523633
:100DD00042E009F00895FF93EF937DDFEF91FF91DB
:100DE000B7CFFF93EF93FC0181918030B9F360DFBF
:100DF000FBCFFF93EF9368DFF1CFDF93CF93CDB7B6
:100E0000DEB72596A3DFCF91DF9108950895089569
:100E100084EB90E0089584E090E00895611107C0AC
:100E2000FC018281882319F086E691E0089580E034
:100E300090E00895611118C0FC018281882371F04F
:100E40000E94A21D827211F085E301C089E28093A5
:100E50002401809124010E94331204C08091240156
:100E60000E94FB120C94D31D0895462F672F0C94FB
:100E7000B929805C0E94AD29089587E791E0089523
:100E80008FE691E008958AB18E7D8AB98BB18E7D0F
:100E90008BB980B38F7080BB81B38F7081BB089595
:100EA00086E008958FE0089580E885BF85BF0E94A1
:100EB000430780B38C7F80BB81B3836081BB6E9816
:100EC000769A8AB18D728AB98BB1826D8BB987B1EE
:100ED0008F7387B988B1806C88B984B1847484B900
:100EE00085B18B6B85B9E1E3F1E0A5E2B1E0119248
:100EF00011921D921D9281E0ED33F807C1F708951C
:100F0000AF92BF92CF92EF92FF920F931F93CF9326
:100F1000DF93C5E2D1E010E001E0A5E0CA2EB4E520
:100F2000EB2EB2E0FB2E133099F028F4113051F083
:100F3000123059F004C0143071F0153079F0509A25
:100F400058980EC0879A8F980BC0869A8E9808C0C2
:100F5000859A8D9805C0849A8C9802C0559A5D98A0
:100F600080EA8A95F1F78FB18695802780FBAA24C5
:100F7000A0F8B12C789B03C020E030E002C022E052
:100F800030E02A293B29669B03C080E090E002C044
:100F900084E090E0282B392B86B1992787FD909526
:100FA000809590958827990F881F9927F3E0880FDF
:100FB000991FFA95E1F7282B392B369B03C040E0A7
:100FC00050E002C040E150E0242B352B189B03C0B9
:100FD00040E050E002C040E250E0242B352B4C9B17
:100FE00003C080E090E002C080E490E0282B392B21
:100FF000199B03C080E090E002C080E890E0282BBD
:10100000392B83B1992787FD9095809590958827F6
:10101000990F881F9927982F8827282B392B1D9BDC
:1010200003C080E090E002C080E092E0282B392BE2
:101030001C9B03C080E090E002C080E094E0282B7D
:10104000392B89B1992787FD9095809590958827B0
:10105000990F881F9927982F8827990F990F990F13
:10106000282B392B4E9B03C080E090E002C080E02B
:1010700090E1282B392B1B9B03C080E090E002C03D
:1010800080E090E2282B392B499B03C080E090E060
:1010900002C080E090E4282B392B88819981821747
:1010A000930741F13983288380910001882301F15E
:1010B0008091BA0180FF04C089E592E00E94640635
:1010C0008091BA0180FF0CC0809100011F928F9324
:1010D000FF92EF920E94FD060F900F900F900F90DD
:1010E0008091BA0180FF04C082E592E00E9464060C
:1010F000C09200010E9443071F5F2296163009F03C
:1011000012CF809100018823C1F0815080930001AB
:10111000882339F08FE99FE00197F1F700C00000C4
:101120000CC0A1E3B1E0E5E2F1E0819191918D93F2
:101130009D9391E0E133F907C1F781E0DF91CF9111
:101140001F910F91FF90EF90CF90BF90AF900895B7
:10115000E82FF0E0EE0FFF1FEF5CFE4F80819181E2
:101160000895CF92DF92EF92FF920F931F93CF9348
:10117000DF938BE392E00E94640681E3E82E81E036
:10118000F82EC0E0D0E096E3C92E92E0D92E0DE211
:1011900012E0DF93CF93DF92CF920E94FD0683E3AC
:1011A00092E00E946406F701819191917F010E9473
:1011B000781F9F938F931F930F930E94FD068BE2DE
:1011C00092E00E94640621968DB79EB708960FB6EE
:1011D000F8949EBF0FBE8DBFC630D105D1F6DF910A
:1011E000CF911F910F91FF90EF90DF90CF900895D6
:1011F000CF93C82F80933D01873090F48430E0F482
:10120000813090F10E94BD250E941C260E942B2651
:10121000EC2FF0E0ED59FD4F8491CF910C94D8253F
:101220008730A9F0883001F50E94BD250E9416265E
:101230000E942B2681E012C00E94BD250E941C2620
:101240000E94252686E08C1BCF910C942E260E94AE
:10125000BD250E9416260E942B2680E00E941F2694
:1012600083E0CF910C9422260E941C260E942B26FC
:10127000CF910C94C7251F93CF93DF9300D000D05C
:101280001F92CDB7DEB7162F80913D01873029F42C
:10129000662319F080E20E94082680913D01883083
:1012A00069F4112359F080E20F900F900F900F9086
:1012B0000F90DF91CF911F910C94F1250F900F901B
:1012C0000F900F900F90DF91CF911F910895E82F0D
:1012D000F0E0EE0FFF1FE959FD4F859194910895BD
:1012E000229A2A9A269A2E980895882319F08130F6
:1012F00019F008952A9808952E9A0895882319F0D0
:10130000813019F008952A9A08952E9808958091B1
:101310005001089508959091E001943009F05AC069
:101320009091E9009F702091EC0020FF02C020E81E
:1013300001C020E0922B23E02093E9002091EB00F4
:1013400020FF29C02091EE0027FF25C020913F01FA
:10135000222321F02091E80025FF1DC010923F01BB
:101360002091E4003091E50066E007C04091E40080
:101370005091E5002417350791F44091E80045FDB0
:1013800019C04091E001442329F1453019F1409101
:10139000EB0045FFEBCF9F709093E9001BC06150BD
:1013A00021F481E080933F01F6CF2091E400309159
:1013B000E500E3CF8093F1008091E80085FD05C052
:1013C0008091E8008E778093E8009F709093E90009
:1013D00080E008958FEF0895CF93DF9300D01F92A0
:1013E000CDB7DEB72091E001243021F523E0298339
:1013F0009B838A8382E08093E9008FEF9091E800DD
:10140000815095FD06C095ED9A95F1F70000811188
:10141000F5CF8091E80085FF0DC040E050E063E02B
:1014200070E0CE0101960E946C0E8091E8008E77EC
:101430008093E8000F900F900F90DF91CF91089567
:10144000CF93DF9300D01F92CDB7DEB72091E0019C
:10145000243019F522E029839B838A832093E900B5
:101460008FEF9091E800815095FD06C095ED9A951B
:10147000F1F700008111F5CF8091E80085FF0DC0E4
:1014800040E050E063E070E0CE0101960E946C0EF7
:101490008091E8008E778093E8000F900F900F9076
:1014A000DF91CF910895CF93DF93EC018091E0011C
:1014B000843009F042C090910C019923B9F08093D7
:1014C000E9008FEF9091E800815095FD06C095E10D
:1014D0009A95F1F700008111F5CF8091E80085FF22
:1014E0002CC040E050E060E170E017C081E08093E4
:1014F000E9008FEF9091E800815095FD06C095EDD1
:101500009A95F1F700008111F5CF8091E80085FFF1
:1015100014C040E050E068E070E0CE010E946C0E24
:101520008091E8008E778093E80080E1FE01A0E4DE
:10153000B1E001900D928A95E1F7DF91CF91089586
:101540008091DF01811107C00E94470D8091E20068
:1015500084608093E20008950895089508950C949E
:10156000D31F8091E001843049F58091E9008F70AC
:101570009091EC0090FF02C090E801C090E0982BA1
:1015800083E08093E9008091EB0080FF14C080919C
:10159000EE0087FF10C08091E80085FF03C0109225
:1015A000F100F9CF8091E80080FF05C08091E8004C
:1015B0008E778093E8009F709093E900089542E051
:1015C00061EC81E00E94640C42E061EC82E00E94E8
:1015D000640C46E261EC83E00E94640C42E161EC41
:1015E00084E00C94640C8091E201833009F455C0CE
:1015F00030F4813071F0823009F495C008958A305A
:1016000009F481C08B3009F460C0893009F0A3C0AF
:1016100020C08091E101813A09F09DC08091E800ED
:10162000877F8093E8008091E5019091E601892B06
:1016300021F060E080E090E003C060E180E491E0B0
:1016400070E00E94B50E8091E8008B778093E800EF
:1016500008958091E101813209F07DC08091E5011A
:101660009091E601009719F0039709F074C08091FA
:10167000E800877F8093E8008091E80082FD05C044
:101680008091E0018111F8CF66C08091F1008093D4
:1016900050018091E8008B775AC08091E101813A36
:1016A00009F059C08091E5019091E601892B09F07C
:1016B00052C08091E800877F8093E8008091E80025
:1016C00080FFFCCF80910B013DC08091E101813210
:1016D00009F041C08091E5019091E601892BD9F58F
:1016E0008091E800877F8093E8000E94990C909198
:1016F000E30181E0911101C080E080930B018093B0
:101700000C010C94C8168091E101813221F5809181
:10171000E800877F8093E8000E94990C8091E401A3
:1017200080933E0108958091E101813AA1F4809176
:10173000E800877F8093E8008091E80080FFFCCF7D
:1017400080913E018093F1008091E8008E77809334
:10175000E8000C94990C089584B7877F84BF88E1D2
:101760000FB6F89480936000109260000FBE90E076
:1017700080E80FB6F89480936100909361000FBEEB
:101780000E94EA0C0E94470D8091E20084608093E1
:10179000E2008BE899E00E940E1F78948091E001AE
:1017A0008430E1F78CE792E00E9464060E944611C3
:1017B00081E091E00E94BF108BE692E00E946406F7
:1017C0008091E001853071F483E00E94921F809146
:1017D000DE018823A9F30E94BE1F882389F30E949B
:1017E0004E0CEECF0E947C11EBCF292F33272330F4
:1017F0003105A9F06CF42130310509F442C02230E2
:10180000310509F043C084E790E021EB32E042C0AB
:1018100021323105C9F02232310519F137C099273B
:101820008130910541F08230910541F0892B71F5AD
:10183000EDEAF2E005C0EBE9F2E002C0EDE8F2E02B
:10184000849190E09F0126C0643000F5E62FF0E01F
:10185000EE0FFF1FE55EFE4F2081318189E090E0B1
:1018600019C0643098F4E62FF0E0DF01AA0FBB1F27
:10187000AD5EBE4F2D913C91E15FFE4F808190E0C7
:1018800009C082E190E025E233E004C080E090E00E
:1018900020E030E0FA0131832083089580E189BDA2
:1018A00082E189BD09B400FEFDCF8091D8008F7D13
:1018B0008093D8008091E00082608093E000809166
:1018C000E00081FDFCCF0895982F973058F5909354
:1018D000E900981739F07091EC002091ED005091DB
:1018E000F00003C0242F762F50E021FF19C0309163
:1018F000EB003E7F3093EB003091ED003D7F309365
:10190000ED003091EB0031603093EB007093EC0010
:101910002093ED005093F0002091EE0027FF07C0C8
:101920009F5FD3CF8F708093E90081E0089580E0BE
:1019300008958091E10187FD05C08091E80080FF56
:101940000EC012C08091E80082FD05C08091E001C8
:101950008111F8CF08958091E8008B7708C08091BD
:10196000E0018111EACF08958091E8008E7780939D
:10197000E80008958091E4009091E50045E620910B
:10198000EC0020FF21C02091E80020FD21C0209123
:10199000E001222389F0253089F02091EB0025FD1C
:1019A0000FC02091E4003091E5002817390739F382
:1019B000415041F0C901E3CF82E0089583E00895EA
:1019C00081E0089584E008952091E80022FFDFCFB0
:1019D00080E008950E94530D0E945B0DE0EEF0E060
:1019E000808181608083E8EDF0E080818F77808363
:1019F00019BCA7EDB0E08C918E7F8C9380818F7E97
:101A000080831092DF0108950F931F93CF93DF938C
:101A10000E94530D0E945B0DC8EDD0E088818F7746
:101A2000888388818068888388818F7D888319BCBA
:101A30001092E0011092DC011092DE011092DD01A3
:101A400000EE10E0F80180818B7F808388818160C7
:101A5000888342E060E080E00E94640CE1EEF0E008
:101A600080818E7F8083E2EEF0E0808181608083E0
:101A7000808188608083F80180818E7F8083888167
:101A800080618883DF91CF911F910F910895E7EDD9
:101A9000F0E080818160808384E082BF81E0809378
:101AA000DF010C94040DE8EDF0E080818E7F8083EF
:101AB0001092E20008951092DA001092E100089569
:101AC0001F920F920FB60F9211242F933F934F93B3
:101AD0005F936F937F938F939F93AF93BF93EF9396
:101AE000FF938091E10082FF0BC08091E20082FFB2
:101AF00007C08091E1008B7F8093E1000E94B10AD2
:101B00008091DA0080FF1FC08091D80080FF1BC049
:101B10008091DA008E7F8093DA008091D90080FF77
:101B20000DC080E189BD82E189BD09B400FEFDCF11
:101B300081E08093E0010E94A00A05C019BC1092C8
:101B4000E0010E94AC0A8091E10080FF19C0809101
:101B5000E20080FF15C08091E2008E7F8093E2005A
:101B60008091E20080618093E2008091D8008062E1
:101B70008093D80019BC85E08093E0010E94AE0AF2
:101B80008091E10084FF2EC08091E20084FF2AC092
:101B900080E189BD82E189BD09B400FEFDCF80915D
:101BA000D8008F7D8093D8008091E1008F7E809354
:101BB000E1008091E2008F7E8093E2008091E2005C
:101BC00081608093E2008091DC01811104C08091EA
:101BD000E30087FF02C084E001C081E08093E00160
:101BE0000E94AF0A8091E10083FF29C08091E2004A
:101BF00083FF25C08091E100877F8093E10082E030
:101C00008093E0011092DC018091E1008E7F80934F
:101C1000E1008091E2008E7F8093E2008091E200FB
:101C200080618093E20042E060E080E00E94640C0A
:101C30008091F00088608093F0000E94AD0AFF91CF
:101C4000EF91BF91AF919F918F917F916F915F9134
:101C50004F913F912F910F900FBE0F901F901895AD
:101C60001F920F920FB60F9211242F933F934F9311
:101C70005F936F937F938F939F93AF93BF93CF9314
:101C8000EF93FF93C091E900CF708091EC00109228
:101C9000E9008091F000877F8093F00078940E94A3
:101CA0006E0F1092E9008091F00088608093F00040
:101CB000C093E900FF91EF91CF91BF91AF919F91B8
:101CC0008F917F916F915F914F913F912F910F90E5
:101CD0000FBE0F901F901895CF92DF92EF92FF9258
:101CE0000F931F93CF93DF937C018B01EA010E9436
:101CF000BA0C811131C0209731F088819981081B7D
:101D0000190BE80EF91EC12CD12C0115110519F182
:101D10008091E80085FD14C08091E8008E77809363
:101D2000E800209741F0888199818C0D9D1D998351
:101D3000888385E011C00E94BA0C882331F30CC05F
:101D4000F70181917F018093F10001501109FFEFAC
:101D5000CF1ADF0ADACF80E0DF91CF911F910F9188
:101D6000FF90EF90DF90CF9008952091E7013091A0
:101D7000E8012617370748F06115710539F42091FD
:101D8000E8002E772093E80001C0B901FC0120E0B3
:101D900061157105A9F18091E0018823E9F1853091
:101DA000E9F18091E80083FD35C08091E80082FF71
:101DB00006C08091E80082FF26C080E008958091EF
:101DC000E80080FFE5CF2091F3008091F20090E0E1
:101DD000922B6115710551F08830910538F42191ED
:101DE0002093F100615071090196F3CF21E008972B
:101DF00009F020E08091E8008E778093E800C8CF5A
:101E00002111C9CFD6CF8091E001882329F08530F8
:101E100081F604C081E0089582E0089583E008958A
:101E20002091E7013091E8012617370748F0611546
:101E3000710539F42091E8002E772093E80001C065
:101E4000B901FC0120E061157105C1F18091E0014B
:101E5000882309F43FC0853009F43EC08091E80032
:101E600083FD36C08091E80082FF06C08091E800C3
:101E700082FF27C080E008958091E80080FFE3CFD3
:101E80002091F3008091F20090E0922B6115710592
:101E900059F08830910540F424912093F100319657
:101EA000615071090196F2CF21E0089709F020E016
:101EB0008091E8008E778093E800C5CF2111C6CFCE
:101EC000D5CF8091E001882329F0853079F604C0D0
:101ED00081E0089582E0089583E008950F931F93B1
:101EE000CF93DF93CDB7DEB7AA970FB6F894DEBFD6
:101EF0000FBECDBFE1EEF1E08091F100819321E0D2
:101F0000E93EF207C9F70E94F30A8091E80083FFD7
:101F10001DC12091E1013091E201832F90E08A30D0
:101F2000910508F013C1FC01EA5AFF4F0C947D2A79
:101F3000203881F0223809F009C18091E5018F70C5
:101F40008093E9008091EB0085FB882780F910924F
:101F5000E90006C08091DD019091DE01911182605F
:101F60009091E800977F9093E8008093F1001092A1
:101F7000F100C6C0822F8D7F09F0E8C0222319F03E
:101F8000223061F0E3C08091E301813009F0DEC0CE
:101F9000333009F080E08093DE0128C08091E301B6
:101FA000811124C02091E5012F7009F4CFC0209346
:101FB000E9008091EB0080FF19C08091EB00333085
:101FC00011F4806211C080618093EB0081E090E0A9
:101FD000022E01C0880F0A94EAF78093EA0010925B
:101FE000EA008091EB0088608093EB001092E9009A
:101FF0008091E800877F87C02111A8C01091E3017C
:102000001F770FB7F8948091E800877F8093E800EE
:102010000E94990C8091E80080FFFCCF8091E30042
:102020008078812B8093E30080688093E300112304
:1020300011F083E001C082E08093E0010FBF86C011
:102040002058223008F082C08091E3019091E40191
:102050008C3D23E0920779F583E08A838AE28983C5
:102060004FB7F894DE01139620E03EE051E2E32FF3
:10207000F0E050935700E49120FF03C0E295EF7029
:102080003F5FEF708E2F90E0EA3010F0C79601C0EE
:10209000C0968D939D932F5F243149F74FBF809158
:1020A000E800877F8093E8006AE270E0CE01019645
:1020B0000E94B50E14C0AE014F5F5F4F6091E50105
:1020C0000E94F50B009709F441C02091E800277F9A
:1020D0002093E800BC0189819A810E94100F8091B1
:1020E000E8008B778093E80031C0203879F5809143
:1020F000E800877F8093E8008091DC018093F10005
:102100008091E8008E778093E8000E94990C1EC0B1
:1021100021111CC09091E3019230C0F48091E8003D
:10212000877F8093E8009093DC010E94990C809156
:10213000DC01811104C08091E30087FF02C084E0CC
:1021400001C081E08093E0010E94DF0A8091E800F5
:1021500083FF0AC08091EB0080628093EB00809146
:10216000E800877F8093E800AA960FB6F894DEBF58
:102170000FBECDBFDF91CF911F910F910895909326
:102180005601809355010895809155019091560113
:102190000895E0915501F0915601309721F001909A
:1021A000F081E02D099480E00895FF920F931F9332
:1021B000CF93DF938C01E0915501F0915601309758
:1021C00099F10280F381E02D09958091BA0182FF97
:1021D0002BC080FF04C08DE094E00E946406E801FB
:1021E00080E1F82E07E014E08091BA0180FF0BC077
:1021F00088811F928F931F930F930E94FD060F906B
:102200000F900F900F90FA942196F110EDCF8091DE
:10221000BA0180FF09C085E094E0DF91CF911F9162
:102220000F91FF900C946406DF91CF911F910F9155
:10223000FF90089520915301309154018217930724
:1022400071F09093540180935301E0915501F09106
:102250005601309721F00680F781E02D099408950A
:1022600020915101309152018217930771F09093A0
:10227000520180935101E0915501F0915601309740
:1022800021F00084F185E02D099408950E94E11F5A
:102290000E9454070E9485200E942C280E94AA2593
:1022A0000E94F3260C94622ACF93C82F8091BA0122
:1022B00082FF1EC080FF04C086E294E00E94640694
:1022C0008091BA0180FF0CC01F92CF9321E234E0CD
:1022D0003F932F930E94FD060F900F900F900F9049
:1022E0008091BA0180FF04C08FE194E00E946406EF
:1022F0008C2FCF910C948E285F926F927F928F9249
:102300009F92AF92BF92CF92DF92EF92FF920F9384
:102310001F93CF93DF93CDB7DEB72A970FB6F8940C
:10232000DEBF0FBECDBF0E94800798E5C92E91E0A9
:10233000D92E00E010E0AA24A394B12C502E802FB7
:102340000E94A8083C01F601E190F1906F01E82697
:10235000F926E114F104B1F40F5F1F4F06301105A7
:1023600069F78FEF89838A831B820E94EA1F81604D
:10237000782F9D838C8349815A816B818D810E9446
:102380000C173AC08091BA0181FD0E94B10820E08B
:1023900030E04501022E02C0880C991C0A94E2F735
:1023A000C4018E219F21892B09F12E835F82682031
:1023B000792081E0672809F480E088870E94EA1F7D
:1023C0008160782F9A8789874E815F8168858A85A9
:1023D0000E940C17F801EE0FFF1FE85AFE4F808194
:1023E0009181882599259183808306C02F5F3F4F77
:1023F0002F30310571F6B0CF109157010E94C910EE
:102400001817D9F00E94C910809357012A960FB669
:10241000F894DEBF0FBECDBFDF91CF911F910F911A
:10242000FF90EF90DF90CF90BF90AF909F908F90F4
:102430007F906F905F900C9454112A960FB6F89489
:10244000DEBF0FBECDBFDF91CF911F910F91FF90E7
:10245000EF90DF90CF90BF90AF909F908F907F9044
:102460006F905F900895CF93C82F882309F4C1C05F
:10247000823859F40E94C91081FDBBC089E30E94D3
:10248000271C0E94D31D89E30CC0833879F40E9475
:10249000C91080FDAEC083E50E94271C0E94D31D99
:1024A00083E50E94F81CCF910C94D31D843859F415
:1024B0000E94C91082FD9DC087E40E94271C0E94D3
:1024C000D31D87E4EECF8CEF8C0F813A48F48C2F2C
:1024D0000E94562581118DC08C2F0E94271CE3CFAE
:1024E00080E28C0F883048F4C77081E001C0880F0B
:1024F000CA95EAF70E94A51DD6CF8BE58C0F8330D5
:1025000078F4C53A29F0C63A31F482E890E005C083
:1025100081E890E002C083E890E0CF910C941A111A
:1025200088E58C0F833108F064C0C83A39F1C93AA4
:1025300041F1CA3A49F1CB3A51F1CC3A59F1CD3A8D
:1025400061F1C03B69F1CE3A71F1CF3A79F1C13B0B
:1025500081F1C23B89F1C33B91F1C43B99F1C53B89
:10256000A1F1C63BA9F1C73BB1F1C83BB9F1C93BE9
:10257000C1F1CA3BC9F58AE292E038C082EE90E030
:1025800035C089EE90E032C08AEE90E02FC085EB36
:1025900090E02CC086EB90E029C087EB90E026C04D
:1025A0008CEC90E023C08DEC90E020C083E891E0BB
:1025B0001DC08AE891E01AC082E991E017C084E961
:1025C00091E014C081E292E011C083E292E00EC07B
:1025D00084E292E00BC085E292E008C086E292E0DD
:1025E00005C087E292E002C080E090E0CF910C94B9
:1025F0003011CF910895882309F44BC0823859F4E3
:102600000E94C91081FF45C089E30E94271C0E94D7
:10261000D31D89E30CC0833871F40E94C91080FF78
:1026200038C083E50E94271C0E94D31D83E50E94C9
:10263000F81C0C94D31D843859F40E94C91082FFF1
:1026400028C087E40E94271C0E94D31D87E4EFCF97
:102650009CEF980F913A58F390E2980F983050F40D
:10266000877091E001C0990F8A95EAF7892F0E943F
:10267000AB1DDFCF9BE5980F933020F480E090E016
:102680000C941A11885A833120F480E090E00C9465
:1026900030110895882321F00E94A51D0C94D31DAC
:1026A0000895882321F00E94AB1D0C94D31D08953A
:1026B000CF92DF92EF92FF920F931F93CF93DF930E
:1026C000CDB7DEB728970FB6F894DEBF0FBECDBFEB
:1026D0008C0185E0F801DE01119601900D928A953A
:1026E000E1F7F80140813181F280258122952F7038
:1026F00083819481892B31F03F3F31F481E04F3F5A
:1027000019F403C081E001C080E080FD24C3498347
:102710003A8389819A812F830E94E51B9E83888753
:102720000E94E41B0E940C1B4E81E42FE295EF7087
:10273000F0E0E05AFF4F2F8168850C947D2A842FAA
:10274000807F142F1F70882311F01295107FFF20B7
:1027500059F0112309F440C2812F68870E94B51DEA
:102760000E94D31D688538C2862F0E94FB12112358
:1027700009F4F1C2812F0E94BB1D28960FB6F89470
:10278000DEBF0FBECDBFDF91CF911F910F91FF90A4
:10279000EF90DF90CF900C94D31D342F307F842F97
:1027A0008F70303211F08295807F662319F061308E
:1027B00009F12AC0FF20A1F0222381F1213071F517
:1027C00028960FB6F894DEBF0FBECDBFDF91CF9134
:1027D0001F910F91FF90EF90DF90CF900C94C51D4B
:1027E000222319F0213009F4B6C28E830E94C81D3D
:1027F0008E8176C1FF2021F0263008F0ACC20EC0D9
:10280000253008F0A8C26CC1FF20C1F0222331F0AE
:10281000F801958190FFE0C19F70958328960FB6CF
:10282000F894DEBF0FBECDBFDF91CF911F910F9106
:10283000FF90EF90DF90CF900C944A13222309F47D
:102840004FC1DEC1242F26952695237030E0211537
:10285000310521F021303105C9F07DC2FF2021F082
:10286000862F942F937002C080E090E028960FB6D8
:10287000F894DEBF0FBECDBFDF91CF911F910F91B6
:10288000FF90EF90DF90CF900C941A11FF2021F071
:10289000862F942F937002C080E090E028960FB6A8
:1028A000F894DEBF0FBECDBFDF91CF911F910F9186
:1028B000FF90EF90DF90CF900C943011842F8370B5
:1028C00009F076C0F11047C2262F22952695277071
:1028D000220F220F862F8F70C82ED12CE12CF12CC5
:1028E000022E04C0CC0CDD1CEE1CFF1C0A94D2F797
:1028F00064FF10C06FE070E080E090E004C0660FFD
:10290000771F881F991F2A95D2F76095709580953B
:10291000909503C060E070E0CB01242F26952695AA
:102920002370422F50E042305105D1F04330510521
:1029300059F16C297D298E299F294130510541F19A
:1029400028960FB6F894DEBF0FBECDBFDF91CF91B2
:102950001F910F91FF90EF90DF90CF900C94211B6F
:102960006C297D298E299F2928960FB6F894DEBF01
:102970000FBECDBFDF91CF911F910F91FF90EF90D0
:10298000DF90CF900C94331B0E94211BC701B6012E
:1029900028960FB6F894DEBF0FBECDBFDF91CF9162
:1029A0001F910F91FF90EF90DF90CF900C940F1B31
:1029B000FF2019F0842F817001C08695882309F4C7
:1029C000CAC1262F229526952770220F220F862F07
:1029D0008F70C82ED12CE12CF12C022E04C0CC0C0F
:1029E000DD1CEE1CFF1C0A94D2F764FF10C06FE0E0
:1029F00070E080E090E004C0660F771F881F991F89
:102A00002A95D2F7609570958095909503C060E007
:102A100070E0CB01242F269526952370422F50E09D
:102A200042305105D1F04330510559F16C297D29CF
:102A30008E299F294130510541F128960FB6F8940F
:102A4000DEBF0FBECDBFDF91CF911F910F91FF90E1
:102A5000EF90DF90CF900C94C01B6C297D298E29BC
:102A60009F2928960FB6F894DEBF0FBECDBFDF9129
:102A7000CF911F910F91FF90EF90DF90CF900C942A
:102A8000D21B0E94C01BC701B60128960FB6F8944E
:102A9000DEBF0FBECDBFDF91CF911F910F91FF9091
:102AA000EF90DF90CF900C94AE1B603F49F118F48B
:102AB000603E48F48CC0623F09F451C0E0F1633FCE
:102AC00009F461C084C0162F1F70842F8F71FF20FE
:102AD00021F00E94591B812FA1CE0E94741B812FCF
:102AE00028960FB6F894DEBF0FBECDBFDF91CF9111
:102AF0001F910F91FF90EF90DF90CF900C945113A6
:102B0000FF20A9F0253008F026C1842F8F71289668
:102B10000FB6F894DEBF0FBECDBFDF91CF911F91EE
:102B20000F91FF90EF90DF90CF900C94931B263085
:102B300008F011C1EACFFF20A1F0842F8F712896F1
:102B40000FB6F894DEBF0FBECDBFDF91CF911F91BE
:102B50000F91FF90EF90DF90CF900C94591BFF20C6
:102B600061F3842F8F7128960FB6F894DEBF0FBEE5
:102B7000CDBFDF91CF911F910F91FF90EF90DF902C
:102B8000CF900C94741BFF2091F0842F8F712896A6
:102B90000FB6F894DEBF0FBECDBFDF91CF911F916E
:102BA0000F91FF90EF90DF90CF900C944A1B2896E6
:102BB0000FB6F894DEBF0FBECDBFDF91CF911F914E
:102BC0000F91FF90EF90DF90CF900C94451BFF206A
:102BD000A1F0222309F4B1CF862F28960FB6F894DE
:102BE000DEBF0FBECDBFDF91CF911F910F91FF9040
:102BF000EF90DF90CF900C943312222309F4B1CFE1
:102C0000862F28960FB6F894DEBF0FBECDBFDF919A
:102C1000CF911F910F91FF90EF90DF90CF900C9488
:102C2000FB124F70C8010E940E0728960FB6F89449
:102C3000DEBF0FBECDBFDF91CF911F910F91FF90EF
:102C4000EF90DF90CF900C94741AF11084C066233B
:102C500041F0842F8F70843021F0407F862F8F7059
:102C6000482B942F9F70492F50E04230510509F4B2
:102C700040C0BCF44115510561F14130510509F0E6
:102C80006AC028960FB6F894DEBF0FBECDBFDF91A5
:102C9000CF911F910F91FF90EF90DF90CF900C9408
:102CA0002E2743305105A9F14430510509F053C096
:102CB000862F28960FB6F894DEBF0FBECDBFDF91EA
:102CC000CF911F910F91FF90EF90DF90CF900C94D8
:102CD000C72728960FB6F894DEBF0FBECDBFDF9191
:102CE000CF911F910F91FF90EF90DF90CF900C94B8
:102CF000042728960FB6F894DEBF0FBECDBFDF9134
:102D0000CF911F910F91FF90EF90DF90CF900C9497
:102D10005D2728960FB6F894DEBF0FBECDBFDF91BA
:102D2000CF911F910F91FF90EF90DF90CF900C9477
:102D30008F274F70C80128960FB6F894DEBF0FBEDC
:102D4000CDBFDF91CF911F910F91FF90EF90DF905A
:102D5000CF900C941A0728960FB6F894DEBF0FBEDA
:102D6000CDBFDF91CF911F910F91FF90EF90DF903A
:102D7000CF9008950E94C21D0E94941D0E94D31DF1
:102D800080E090E00E941A1180E090E00C943011F5
:102D90000E94B21D0C94BA160E94E51B292F2295A1
:102DA0002F7030E02C3031054CF42A3031056CF4B2
:102DB000225031092230310570F407C02C30310522
:102DC00031F02F30310519F006C081E0089593FBF2
:102DD000882780F9089580E00895CF93DF9300D08D
:102DE00000D01F92CDB7DEB70F900F900F900F90CD
:102DF0000F90DF91CF910895CF93DF9300D000D053
:102E000000D0CDB7DEB726960FB6F894DEBF0FBE62
:102E1000CDBFDF91CF910895CF93DF93CDB7DEB7CC
:102E20002B970FB6F894DEBF0FBECDBF4F835887E8
:102E300069877A878B87DE01119686E0FD01119202
:102E40008A95E9F785E0FE01379601900D928A9503
:102E5000E1F74F81588569857A858B850E943B090A
:102E600049815A816B817C818D819E810E94C51927
:102E70002B960FB6F894DEBF0FBECDBFDF91CF917A
:102E800008951F93CF93DF93C091640116E0809162
:102E90006501C81799F0D0E01C9FF0011D9FF00D4F
:102EA0001124EA59FE4F40815181628173818481EE
:102EB00095810E94FC162196C770E9CFDF91CF91D2
:102EC0001F9108954091960150919701609198014A
:102ED0007091990180919A0190919B010C94FC163C
:102EE000CF9380919B0182958F7009F05FC0809194
:102EF0009801882309F45AC020916401A0916501CA
:102F000060919601709197018091990190919A0139
:102F100031E06F3F09F030E0B32FC6E02A1709F423
:102F200045C0009721F07F3F21F44B2F03C041E0C3
:102F300001C040E030E040FD35C0C29FF001C39FBA
:102F4000F00D1124EA59FE4F418174132BC04081CA
:102F5000641328C04281411125C043815481481720
:102F6000590710F441505109481B590B483C510571
:102F7000C8F480919B018F70806180939B0186E0F3
:102F8000829FF001839FF00D1124E559FE4F80814F
:102F90008F708061808386E991E00E945813CF9101
:102FA0000C9441172F5F3F4F2770B8CFCF910895F2
:102FB000CF92DF92EF92FF920F931F93CF93DF9305
:102FC000CDB7DEB762970FB6F894DEBF0FBECDBFA8
:102FD0008C0185E0F801DE011D9601900D928A9525
:102FE000E1F7D8014C9111965C91119712966C9172
:102FF00012971396ED90FC90149770919601E091C2
:1030000097012091990130919A012115310531F0F4
:10301000EF3F31F481E07F3F19F403C081E001C04C
:1030200080E0B82FB170CB2E80FD6CC1D09098019C
:10303000DD2009F4F5C0F0919B01E216F30638F0AB
:10304000C701821B930B883C910548F09BC02095DB
:1030500030952E0D3F1D283C310508F093C08F2F71
:10306000807F09F052C0E51314C0741312C0D62E2D
:1030700061110FC0FF70F061F0939B010E94621715
:1030800086E991E00E94581380919B01F8018583A5
:103090006CC1EF2831F05F3F31F481E04F3F19F40C
:1030A00003C081E001C080E080FD03C081E086278D
:1030B00001C080E0F82FF170FF2E80FF1CC08091CE
:1030C00064012091650136E0821709F428C190E07F
:1030D000389FF001399FF00D1124EA59FE4F71819C
:1030E000571306C07081471303C07281671303C072
:1030F00001968770E9CFD62E662309F436C18091F8
:103100009B01816080939B0153C0E51308C0741339
:1031100006C0611104C0D8011596FC93AEC04D875E
:103120005E878D859E856A8B0E94CC166A8988236E
:1031300029F1D62E662311F120919B01822F8295D1
:103140008F7090E002970CF460C08091960190918E
:10315000970198878F831986FB86EA862C87CE0194
:10316000079651C0E51731F14D875E878D859E85A5
:103170006A8B0E94CC166A8981112EC0C8010E94F8
:103180005813A4C08F2F807F69F77E2DF98AE88AB3
:1031900089890E94ED1686E991E00E945813E6E9BC
:1031A000F1E086E0DF011D928A95E9F70E9462173F
:1031B000D12CDBC07413D8CF6111D6CFD8011596AE
:1031C000FC93C8010E945813E6E9F1E086E0DF01B4
:1031D0001D928A95E9F7C9C0D62E662379F220910F
:1031E0009B01822F82958F7090E0029774F08091FE
:1031F0009601909197019A8389831B82FD82EC82CC
:103200002E83CE0101960E94581386E0F801A6E9AC
:10321000B1E001900D928A95E1F70E9470176FC09E
:10322000E216F30628F0C701821B930B9C0104C031
:10323000209530952E0D3F1D283C310508F052C0D9
:10324000D62E662309F49ACFE5132CC074132AC036
:1032500080919B0180FD1DC0982F92959F70C9F0B1
:10326000D80115968C9315979F3039F09F5F9295F2
:10327000907F8F70892B15968C93C8010E945813EC
:1032800086E0F801A6E9B1E001900D928A95E1F798
:1032900036C086E0F801A6E9B1E001900D928A956A
:1032A000E1F763C04D875E878D859E850E94CC16B1
:1032B000882379F086E0F801A6E9B1E001900D924B
:1032C0008A95E1F70E9470170E946217DD24D3945B
:1032D0004CC080919B01816080939B01C8010E943A
:1032E000581343C07E2DF98AE88A89890E94ED1619
:1032F000E6E9F1E086E0DF011D928A95E9F70E9498
:10330000621733C0662309F439CF4D875E878D85F8
:103310009E850E94CC16882309F430CFCBCF4D87F1
:103320005E878D859E850E94E51B292F22952F7033
:1033300030E0223031052CF49F7041F0811106C03D
:103340000CC0243031052CF49F7049F4805E883025
:1033500020F0C8010E945813CF2CDC2C06C0D801E5
:1033600015969C91907F91F7F8CF8D2D62960FB6B0
:10337000F894DEBF0FBECDBFDF91CF911F910F91AB
:10338000FF90EF90DF90CF9008951F93CF93DF933E
:10339000CDB7DEB72C970FB6F894DEBF0FBECDBF0A
:1033A0004F83588769877A878B879C87CE010796DA
:1033B0000E94D8178823D1F02F8138858A859B8574
:1033C000892B31F03F3F31F481E02F3F19F403C0E6
:1033D00081E001C080E080FD47C04F81588569854C
:1033E0007A858B859C850E94FC163EC086E0FE0196
:1033F0003796DE01119601900D928A95E1F7FF81D3
:10340000E8854A855B854115510531F0EF3F31F480
:1034100081E0FF3F19F403C081E001C080E080FD3E
:1034200023C02091650130E0C9010196877099277A
:103430006091640170E086179707F1F1F983EA83E0
:103440005D834C8396E0929FD001939FB00D112431
:10345000AA59BE4FFE01319601900D929A95E1F75F
:10346000809365010E94411716E08091640190915C
:103470006501891779F1189FC00111248A599E4F5F
:103480000E94D817882331F1E09164011E9FF0015A
:103490001124EA59FE4F40815181628173818481F8
:1034A00095810E94FC168091640190E001968770DE
:1034B000992780936401D9CF0E94C81610926501A4
:1034C00010926401E6E9F1E086E0DF011D928A9541
:1034D000E9F7CACF2C960FB6F894DEBF0FBECDBF6A
:1034E000DF91CF911F910895EF92FF920F931F9359
:1034F000CF93DF939C01009709F46FC0F12CEE2469
:10350000E394E9012196F9018491843740F48430F1
:1035100008F054C0813081F0823021F15EC08537DF
:1035200009F447C0B0F19CE7980F903708F055C0F8
:103530008F770E94FB1244C089010E5F1F4FFE016E
:10354000849190E2980F983050F48770FE2D01C05E
:10355000FF0F8A95EAF78F2F0E94B51D15C00E94B4
:10356000331212C089010E5F1F4FFE01849190E259
:10357000980F983058F48770FE2D01C0FF0F8A9580
:10358000EAF78F2F0E94BB1DE8011AC00E94FB12B0
:10359000FBCF2E5F3F4FFE01C491CC2341F08FE95A
:1035A0009FE00197F1F700C00000C150F6CFE9019C
:1035B00007C0FE01F490E901229602C00E94331276
:1035C0008F2D882341F0EFE9FFE03197F1F700C03C
:1035D00000008150F6CF9E0194CFDF91CF911F91D3
:1035E0000F91FF90EF9008956093A0017093A10157
:1035F0008093A2019093A3010E94C4280C94BA1650
:1036000060939C0170939D0180939E0190939F0114
:103610000E9408290C94BA1608950C94F41A0F937A
:103620001F930091A0011091A1012091A20130915E
:10363000A301602B712B822B932B1F910F910C9464
:10364000F41A0F931F930091A0011091A1012091F2
:10365000A2013091A30160237123822393231F9140
:103660000F910C94F41A0F931F930091A0011091E5
:10367000A1012091A2013091A30160277127822727
:1036800093271F910F910C94F41A60E070E0CB0126
:103690000C94001B41E050E060E070E004C0440F77
:1036A000551F661F771F8A95D2F7CB01BA010C947C
:1036B000001B41E050E060E070E004C0440F551F83
:1036C000661F771F8A95D2F780919C0190919D018A
:1036D000A0919E01B0919F01482B592B6A2B7B2B07
:1036E000CB01BA010C94001B41E050E060E070E0B7
:1036F00004C0440F551F661F771F8A95D2F7409567
:1037000050956095709580919C0190919D01A0913C
:103710009E01B0919F01482359236A237B23CB014B
:10372000BA010C94001B41E050E060E070E004C07E
:10373000440F551F661F771F8A95D2F780919C0111
:1037400090919D01A0919E01B0919F01482759271A
:103750006A277B27CB01BA010C94001B0F931F93A0
:1037600000919C0110919D0120919E0130919F013B
:10377000602B712B822B932B1F910F910C94001BAC
:103780000F931F9300919C0110919D0120919E0128
:1037900030919F0160237123822393231F910F9106
:1037A0000C94001B0F931F9300919C0110919D019D
:1037B00020919E0130919F016027712782279327D6
:1037C0001F910F910C94001B0895CF92DF92EF92FE
:1037D000FF920F931F93CF93DF93EC01C090A00152
:1037E000D090A101E090A201F090A30180919C01F2
:1037F00090919D01A0919E01B0919F01C82AD92A64
:10380000EA2AFB2A0FE110E0B701A601002E04C04E
:1038100076956795579547950A94D2F740FF07C06C
:10382000BE01802F0E949B1E8130910539F401500A
:10383000110950F7BE0180E00E949B1EDF91CF91DD
:103840001F910F91FF90EF90DF90CF900895CF924E
:10385000DF92EF92FF920F931F93CF93DF93F82E97
:1038600080910C01882349F18F2D86958695869548
:103870008F3090F4E0910D01F0910E01E80FF11DF1
:103880008F2D877021E030E001C0220F8A95EAF782
:103890008181822B8183A3C08091BA0180FF9FC068
:1038A0001F92FF9287E594E09F938F930E94FD06FD
:1038B0000F900F900F900F9092C0E090B701409141
:1038C000B501E0910D01F0910E01442309F472C09D
:1038D0002091B6018E2D3FEF06E010E0A82FBB2708
:1038E000A7FDB095EF01CA0FDB1F9A819F1509F460
:1038F00076C03F3F19F4911101C0382FCD010196D8
:10390000C6E0D0E0B8010E94692A8213E7CF2E11E9
:1039100051C03F3F71F4822F992787FD9095019602
:10392000BE010E94692A8093B70141504093B501BE
:1039300041C0832F992787FD90950196BE010E9473
:10394000692AEE24E394C6E0D0E0082F112707FD92
:1039500010956F01C00ED11ED60112966C91662390
:10396000A1F0432F552747FD5095CF01840F951F98
:10397000DC0112966C93D60112961C92CA01019634
:10398000BE010E94692A382F01C0E394C801019644
:10399000BE010E94692A8213D8CF822F992787FD02
:1039A00090958E199109069666E070E00E94692A4A
:1039B0008093B6012091B601332727FD3095E20FA1
:1039C000F31FF282C901019666E070E00E94692A45
:1039D0008093B6018091B5018F5F8093B501DF912F
:1039E000CF911F910F91FF90EF90DF90CF900895AE
:1039F000DF92EF92FF920F931F93CF93DF93482FA5
:103A000080910C01882351F1842F869586958695A7
:103A10008F3098F4E0910D01F0910E01E80FF11D47
:103A2000477021E030E0042E01C0220F0A94EAF72B
:103A300020958181282321836FC08091BA0180FF66
:103A40006BC01F924F9389E394E09F938F930E94E2
:103A5000FD060F900F900F900F905EC0E091B701A0
:103A6000D090B501DD2009F457C0C0910D01D0916F
:103A70000E010091B601112707FD109586E0E82E92
:103A8000F12CF0E0DE01AE0FBF1F9D012E5F3F4F16
:103A900012968C91841336C0D9011C92DA94D0927C
:103AA000B501D11004C01092B7011092B601209157
:103AB000B601822F992787FD9095059666E070E004
:103AC0000E94692AE817F90739F54091B701E6E045
:103AD000F0E0822F992787FD90950596BF010E94FF
:103AE000692A9C010596BF010E94692A8C0F9D1FBF
:103AF000DC0112968C91811102C02413EACF20932D
:103B0000B6010AC0CF010196B7010E94692AE82FC9
:103B10008017910709F0B5CFDF91CF911F910F91D9
:103B2000FF90EF90DF90089581E090E0E0910D012B
:103B3000F0910E01E80FF91F108201968031910576
:103B4000A9F708958091B90108959091B901982B32
:103B50009093B901089580959091B901982390931D
:103B6000B90108951092B90108959091B801982B68
:103B70009093B801089580959091B80198239093FF
:103B8000B80108951092B80108958093A401089592
:103B90001092A401089580910C01811103C08091BD
:103BA000B50108950895E0910D01F0910E01809105
:103BB000B9018083E0910D01F0910E018081909117
:103BC000B801892B80839091A401992361F0E09141
:103BD0000D01F0910E018081892B80830E94CB1D05
:103BE00081111092A40180910D0190910E010C940D
:103BF000D5108B3B60F4883A00F5853AA8F4843000
:103C000088F4813009F055C081E090E00895803E4D
:103C100008F44FC0883E30F0803F08F44AC090E07E
:103C20009065089590E00895853A09F445C0863A74
:103C300009F045C082E890E40895883A09F442C04A
:103C4000893A09F442C08A3A09F442C08B3A09F42D
:103C500042C08C3A09F442C08D3A09F442C0803B1C
:103C600009F442C08E3A09F442C08F3A09F442C0C6
:103C7000813B09F442C0823B09F442C0833B09F412
:103C800042C0843B09F442C0853B09F442C0863BF4
:103C900009F442C0873B09F442C0883B09F442C0A2
:103CA000893B09F442C08A3B09F042C08AE296E4AB
:103CB000089580E090E0089581E890E4089583E815
:103CC00090E4089582EE94E4089589EE94E40895D2
:103CD0008AEE94E4089585EB94E4089586EB94E4E9
:103CE000089587EB94E408958CEC94E408958DECAA
:103CF00094E4089583E895E408958AE895E40895A6
:103D000082E995E4089584E995E4089581E296E4D2
:103D1000089583E296E4089584E296E4089585E2A6
:103D200096E4089586E296E4089587E296E408957D
:103D300080E094E408950E943507803EA8F4803C1A
:103D400000F5813309F45CC038F4893209F452C0BB
:103D50008A3209F45BC05FC08933B1F08238A1F0C8
:103D6000853309F441C057C0833E41F128F4803EB9
:103D700099F0823EB9F04FC0863E31F1873E71F135
:103D80004AC00E94390708959091DB0190FD02C05E
:103D900091FF41C080EE3FC08091DB0180FFFACFF0
:103DA00089E339C08091DB0182FF0CC08091DB0187
:103DB00084FF02C080E02FC083EE2DC08091DB0124
:103DC00082FFF4CF82EE27C08091DB0183FF0AC01F
:103DD0008091DB0184FDEECF87EE1DC08091DB0179
:103DE00083FFF6CF86EE17C08091DB0185FF06C00A
:103DF00089E211C08091DB0185FFFACF85E30BC01A
:103E00008091DB0186FF06C08AE205C08091DB015C
:103E100086FFFACF81E30E94F91D08959093BC01BB
:103E20008093BB010895CF92DF92EF92FF920F93A0
:103E30001F936C01EE24FF24C114D104E104F104AA
:103E400021F46B017C0180E001C080E133272F2D3C
:103E50001E2D0D2D011511052105310519F0885F65
:103E6000680179019701860154E0369527951795E9
:103E700007955A95D1F7011511052105310519F05E
:103E80008C5F680179019701860142E0369527959C
:103E9000179507954A95D1F70115110521053105AB
:103EA00019F08E5F68017901B701A60176956795D3
:103EB00057954795452B462B472B09F08F5F1F9150
:103EC0000F91FF90EF90DF90CF9008958295982FFB
:103ED0009C7C96959695837344E0849F9001112471
:103EE000922B892F8A7A86959575990F892B08953B
:103EF0001F93CF93DF931F92CDB7DEB799830E94B4
:103F0000661F182F9981892F0E94661F212F30E08C
:103F1000322F2227A901482BCA010F90DF91CF91A0
:103F20001F9108959091E001943039F183FF02C010
:103F300090E601C090E48770892B28E130E00FB64D
:103F4000F894A895209360000FBE809360000E94B3
:103F5000C72583B7817F846083BF83B7816083BFB8
:103F60007894889583B78E7F83BF88E10FB6F894E5
:103F700080936000109260000FBE0895CF930E945E
:103F800006070E9480070E940707C0E08C2F0E944E
:103F9000A808892B29F4CF5FC630C1F780E001C0A3
:103FA00081E0CF9108950E94C8160C94F3261F92C9
:103FB0000F920FB60F9211240F900FBE0F901F900B
:103FC000189582E084BD93E095BD9AEF97BD8093EC
:103FD0006E0008952FB7F8948091BD019091BE01B5
:103FE000A091BF01B091C0012FBF08951F920F9201
:103FF0000FB60F9211248F939F93AF93BF9380912D
:10400000BD019091BE01A091BF01B091C001019688
:10401000A11DB11D8093BD019093BE01A093BF016E
:10402000B093C001BF91AF919F918F910F900FBE40
:104030000F901F9018950E94EA0CF8942FEF87EAD2
:1040400091E6215080409040E1F700C0000087E0F9
:1040500090EBDC018093EA019093EB01A093EC01DB
:10406000B093ED012CE088E190E00FB6F894A895AC
:10407000809360000FBE20936000FFCFCF92DF924D
:10408000EF92FF920F931F93CF93DF93C82ED12C03
:1040900001E010E08D2D0E94A8087C01C0E0D0E076
:1040A00098010C2E02C0220F331F0A94E2F72E2132
:1040B0003F21232B29F42196CF30D10589F709C060
:1040C0006C2F7D2D80E00E943507C812F4CF81E06F
:1040D00005C0D39486E0D812DDCF80E0DF91CF9188
:1040E0001F910F91FF90EF90DF90CF900895CF93A5
:1040F000C82F8CE20E943E20882321F08C2FCF9184
:104100000C943E2080E0CF910895CF930E94E2214D
:10411000811102C00E94BD218CE794E00E946406D8
:10412000C5E6C15049F00E9480078FE39CE90197E2
:10413000F1F700C00000F5CF85E794E00E94640627
:1041400089E20E947720811116C18AE20E947720BD
:10415000882331F00E94DC210E94BD210E94ED29BC
:1041600085E00E94772081110E941B200E94ED2192
:104170008093BA0187E00E947720882399F18BE130
:104180000E947720882351F09091BA0191FB8827F3
:1041900080F921E0822780FB91F922C08EE00E9405
:1041A0007720882351F09091BA0192FB882780F9FB
:1041B00021E0822780FB92F913C080E10E947720E2
:1041C0009091BA01882341F093FB882780F921E080
:1041D000822780FB93F904C0892F809580FB90F99A
:1041E0009093BA018091BA010E94F1210E94FF21AF
:1041F0008093DB0180EE0E947720882341F080913C
:10420000DB01982F909590FB80F98093DB0189E387
:104210000E947720882359F09091DB0191FB882739
:1042200080F921E0822780FB91F99093DB0182EEF7
:104230000E947720882359F09091DB0192FB882718
:1042400080F921E0822780FB92F99093DB0186EED2
:104250000E947720882359F09091DB0193FB8827F7
:1042600080F921E0822780FB93F99093DB0183EEB4
:104270000E947720882359F09091DB0194FB8827D6
:1042800080F921E0822780FB94F99093DB0185E39C
:104290000E947720882359F09091DB0195FB8827B5
:1042A00080F921E0822780FB95F99093DB0181E37F
:1042B0000E947720882359F09091DB0196FB882794
:1042C00080F921E0822780FB96F99093DB0181E160
:1042D0000E947720882359F09091DB0197FB882773
:1042E00080F921E0822780FB97F99093DB01809190
:1042F000DB010E9403228091DB0187FB882780F984
:1043000080930C0187E20E947720C82F8EE10E94E3
:1043100077208111C2608FE10E9477208111C460F3
:1043200080E20E9477208111C86081E20E9477209C
:104330008111C06182E20E9477208111C06283E214
:104340000E9477208111C06484E20E947720882334
:1043500011F0C06802C0CC2329F08C2F0E94FA21F2
:104360006C2F03C00E94F621682F70E080E090E07F
:10437000CF910C940D1BCF9108956DEE7EEF80E0F0
:1043800090E00E94B32A60E082E090E00E94A52ABB
:1043900060E083E090E00E94A52A60E084E090E085
:1043A0000E94A52A60E085E090E00E94A52A60E0D6
:1043B00086E090E00C94A52A6FEF7FEF80E090E01C
:1043C0000C94B32A80E090E00E949F2A21E08D3E69
:1043D0009E4F09F020E0822F089582E090E00C9437
:1043E000972A682F82E090E00C94A52A83E090E061
:1043F0000C94972A682F83E090E00C94A52A84E01F
:1044000090E00C94972A682F84E090E00C94A52A01
:1044100086E090E00C94972A682F86E090E00C9458
:10442000A52ACF93C82F88EB94E00E946406609180
:10443000A0017091A1018091A2019091A3010E941D
:10444000131F1F928F9325EB34E03F932F930E940D
:10445000FD0680EB94E00E9464061F92CF932DEA44
:1044600034E03F932F930E94FD068BEA94E00E9474
:10447000640661E070E080E090E004C0660F771FA2
:10448000881F991FCA95D2F70E940D1B8DB79EB742
:1044900008960FB6F8949EBF0FBE8DBFCF910C94B7
:1044A000C816CF93482F50E0FA013697E334F10550
:1044B00008F0F0C2E059FF4F0C947D2A8EE39BE098
:1044C0000E94640684E498E00E9464060E94F6213B
:1044D0001F928F9381E498E09F938F930E94FD0633
:1044E0008FE398E00E9464060E94ED21C82F8CE2C1
:1044F00098E00E9464061F92CF9327E238E03F9332
:104500002F930E94FD0685E298E00E9464068BE1ED
:1045100098E00E9464068C2F81701F928F9328E18F
:1045200038E03F932F930E94FD0686E198E00E94B9
:1045300064068CE098E00E946406C1FB882780F93D
:104540001F928F9329E038E03F932F930E94FD063E
:1045500087E098E00E9464068BEF97E00E94640673
:10456000C2FB882780F91F928F9328EF37E03F9393
:104570002F930E94FD0686EF97E00E9464068DEE61
:1045800097E00E946406C3FBCC27C0F91F92CF932B
:104590008AEE97E09F938F930E94FD0688EE97E046
:1045A0000E9464060E94FF21C82F84ED97E00E94BC
:1045B00064061F92CF932FEC37E03F932F930E9416
:1045C000FD068DEC97E00E94640684EB97E00E9464
:1045D00064068C2F81701F928F9321EB37E03F93FD
:1045E0002F930E94FD068DB79EB780960FB6F89464
:1045F0009EBF0FBE8DBF8FEA97E00E94640688E9D8
:1046000097E00E946406C1FB882780F91F928F9370
:1046100025E937E03F932F930E94FD0683E997E059
:104620000E94640681E897E00E946406C2FB882726
:1046300080F91F928F932EE737E03F932F930E94CC
:10464000FD068CE797E00E9464068AE697E00E94E8
:104650006406C3FB882780F91F928F9327E637E013
:104660003F932F930E94FD0685E697E00E94640623
:104670008BE597E00E946406C4FB882780F91F92AF
:104680008F9328E537E03F932F930E94FD0686E540
:1046900097E00E94640684E497E00E946406C5FBEC
:1046A000882780F91F928F9321E437E03F932F935F
:1046B0000E94FD068FE397E00E94640683E297E084
:1046C0000E946406C6FB882780F91F928F9320E220
:1046D00037E03F932F930E94FD068EE197E00E9402
:1046E000640686E197E00E946406C7FBCC27C0F908
:1046F0001F92CF9383E197E09F938F930E94FD06D3
:1047000081E197E00E9464060E940822C82F8AEF88
:1047100096E00E9464061F92CF9325EF36E03F9308
:104720002F930E94FD068DB79EB780960FB6F89422
:104730009EBF0FBE8DBF83EF96E00E94640689EE98
:1047400096E00E9464068C2F81701F928F9326EE54
:1047500036E03F932F930E94FD0684EE96E00E9480
:1047600064068BED96E00E946406C6951F92CF9377
:1047700088ED96E09F938F930E94FD0686ED96E06C
:104780000E9464068DB79EB708960FB6F8949EBF38
:104790000FBE8DBF1BC00E94C410892B69F00E9400
:1047A000C4109093C3018093C20180E090E00E9406
:1047B000BF1085E39BE008C08091C2019091C301C6
:1047C0000E94BF108AE29BE00E946406C1E067C1BC
:1047D0008AEB96E00E94640683EA96E00E946406F3
:1047E0008BE896E00E94640683E796E00E946406E8
:1047F00089E596E00E94640682E496E00E946406E1
:1048000082E296E00E9464068CE096E00E946406D4
:104810008BEF95E00E94640683EE95E00E946406AB
:1048200083ED95E00E94640689EB95E00E946406A2
:1048300080EA95E00E94640687E895E00E9464069D
:104840008EE695E00E94640685E595E00E94640688
:1048500084E395E00E94640682E195E00E9464068C
:1048600088EF94E0B1CF8091BA01817F8E7F8093F1
:10487000BA018CED94E00E9464068FEC94E00E94F3
:10488000640685E19BE00E94640681E19BE00E9452
:10489000640681E08093C10199CF0E94C81688EF19
:1048A0009AE00E9464069FEF23ED80E39150204040
:1048B0008040E1F700C000000E941B2088EE9AE0D3
:1048C00083CF8091BA01C82FC17080FF09C085EDE8
:1048D0009AE00E9464068091BA01817F8E7F44C075
:1048E00083EC9AE00E9464068091BA018160809313
:1048F000BA016CCF8091BA0181FBCC27C0F991E05D
:10490000C927C0FB81F98093BA01CC2319F08AEA48
:104910009AE025C080E99AE057CF8091BA0182FBE6
:10492000CC27C0F991E0C927C0FB82F98093BA0176
:10493000CC2319F085E79AE012C089E59AE044CFCC
:104940008091BA0183FBCC27C0F991E0C927C0FB55
:1049500083F98093BA01CC2351F081E49AE00E945C
:1049600064068091BA0181608093BA0198C088E2A0
:104970009AE02ACF81E19AE00E94640687EE99E0EE
:104980000E94640682EB99E00E9464068BE899E03D
:104990000E9464068EE099E00E94640683EE98E02F
:1049A00013CF8091BD019091BE01A091BF01B09144
:1049B000C001BF93AF939F938F938FEC98E09F9329
:1049C0008F930E94FD060F900F900F900F900F9005
:1049D0000F90FCCE89EB98E00E9464060E94C910FB
:1049E0001F928F938FE998E09F938F930E94FD060B
:1049F00080910B011F928F9388E898E09F938F938B
:104A00000E94FD0680913E011F928F9385E798E0FA
:104A10009F938F930E94FD068DB79EB70C960FB69D
:104A2000F8949EBF0FBE8DBFD1CE0E94C816C09114
:104A30000C0181E0C827C0930C01CC2329F086E645
:104A400098E00E9464062BC086E598E0BDCE81E820
:104A500090E00E941A119FEF21EE84E091502040D7
:104A60008040E1F700C0000080E090E00E941A1151
:104A70009FEF29E688E1915020408040E1F700C097
:104A80000000A4CE80E003C08D5101C089530E9474
:104A900011229CCE84E598E00E946406C0E08C2F31
:104AA000CF91089580E0089580E00895CF93C82FB6
:104AB0008091C101882319F0813049F043C0E09111
:104AC0000D01F0910E0180818232F1F507C0E09175
:104AD0000D01F0910E018081823249F48C2F0E94E9
:104AE000522581112CC08C2F0E94512229C08C2F5D
:104AF0000E945425811123C0C431A9F018F4CB3091
:104B000029F018C0C93279F0C833A1F48CED94E0D3
:104B10000E9464068FEC94E00E94640687EA94E0A9
:104B20000E9464060CC083E994E00E94640610921F
:104B3000C1010CC081E994E00E94640607C081E0D5
:104B4000817006C01092C10180E002C080E0F8CF01
:104B5000CF910895E1E8F0E08081886080838081D2
:104B6000816080838FB7F89493E09093890090EDF3
:104B7000909388008FBF0C944C29EFE6F0E0808181
:104B80008260808381E08093D4010C946729EFE6F2
:104B9000F0E080818D7F80831092D40180E00E94BC
:104BA0005A2981E00E945A298091D4010C946729E6
:104BB0008093D0018093D1010895E82FF0E0E05375
:104BC000FE4F4081242F30E08FEF90E0861B91094B
:104BD000821793071CF48FEF80830895640F60831E
:104BE0000895CF93C82F682F80E00E94DD256C2F99
:104BF00081E0CF910C94DD25E82FF0E0E053FE4FEB
:104C00008081861710F410820895861B8083089592
:104C1000CF93C82F682F80E00E94FC256C2F81E085
:104C2000CF910C94FC258091D40108958091CF01FF
:104C300083608093CF0108951092CF0108958093EF
:104C4000CE0108958093CD0108958091CC018360B9
:104C50008093CC0108951092CC0108958093CB01EC
:104C600008951F920F920FB60F9211240F931F9366
:104C70002F933F934F935F936F937F938F939F9364
:104C8000AF93BF93CF93DF93EF93FF938091CA01CC
:104C90008F5F8093CA0181110DC00E944D298091C0
:104CA000D0018093D20181E00E944D298091D101F1
:104CB0008093D3019091CA018091D201981303C0CF
:104CC00080E00E945A299091CA018091D3019813E3
:104CD00003C081E00E945A290091CF01011105C053
:104CE0003091CC01311133C069C08091C9018F5F0F
:104CF000813418F48093C901F3CF1092C9018091D7
:104D0000C8018F5F8093C8019091CD01981740F73B
:104D10001092C801C0E0D0E010E0C8010C2E02C023
:104D2000969587950A94E2F780FF0CC08091CE019A
:104D300061E0882321F08C2F0E94FC2503C08C2F7A
:104D40000E94DD252196C230D10551F2E6CF809137
:104D5000C7018F5F813418F48093C7012FC0109270
:104D6000C7018091C6018F5F8093C6019091CB01EE
:104D7000981720F51092C6012091C501E22FF0E0AE
:104D8000E75BF44FE491832F30FDE093D00181FD88
:104D9000E093D1018091C401882339F0211103C02F
:104DA0001092C4010BC0215007C02F3721F481E0BD
:104DB0008093C40103C02F5F2093C501FF91EF9141
:104DC000DF91CF91BF91AF919F918F917F916F9123
:104DD0005F914F913F912F911F910F910F900FBEB7
:104DE0000F901F9018950E94E221811102C00E942D
:104DF000BD210E9408228093E90180FF02C08695B0
:104E000001C080E00C94F8088091E901982F9695F4
:104E1000292F30E0283031054CF49F5F990F8170C5
:104E2000892B81608093E9010E940C228091BA0154
:104E300080FF0FC08091E90186951F928F938BE0D0
:104E40009CE09F938F930E94FD060F900F900F9010
:104E50000F908091E90186950C94F8088091E90102
:104E6000982F969591F09158990F8170892B809386
:104E7000E9018E7F91E009F490E08091E90190FBD7
:104E800080F98093E9010E940C228091BA0180FF91
:104E90000FC08091E90186951F928F9383EF9BE06D
:104EA0009F938F930E94FD060F900F900F900F908D
:104EB0008091E90186950C94F8088091E901982F7A
:104EC0009095917090FB80F98093E901992339F0D6
:104ED000982F9E7F21F4817082608093E9018091F8
:104EE000E9010E940C228091BA0180FF0FC08091DD
:104EF000E90181701F928F938DED9BE09F938F93BB
:104F00000E94FD060F900F900F900F908091E90185
:104F100080FF02C0869501C080E00C94F8083091B3
:104F2000E901232F26952F5F2F77822F90E0317094
:104F300009972CF4220F232B2093E90102C0309310
:104F4000E9018091E9018E7F91E009F490E0809180
:104F5000E90190FB80F98093E9010E940C22809185
:104F6000BA0180FF0FC08091E90186951F928F934F
:104F700089EC9BE09F938F930E94FD060F900F900A
:104F80000F900F908091E90186950C94F808880F96
:104F90009091E9019170982B9093E9019E7F21E017
:104FA00009F420E08091E90120FB80F98093E90178
:104FB0000E940C228091E90186950C94F808DF92FA
:104FC000EF92FF920F931F93CF93DF93F82EE62E6D
:104FD0000091DA010827611101C0B1F1C0E0D0E011
:104FE00010E0DC2E0E941326882359F02091D60170
:104FF00030E00C2E02C0369527950A94E2F720FD8A
:105000001DC0E11009C098010C2E02C036952795ED
:105010000A94E2F720FF12C02091D5012F2530E03D
:105020000C2E02C0369527950A94E2F78D2D20FFAD
:1050300003C00E94750902C00E947E092196C230F9
:10504000D10579F6F092DA01DF91CF911F910F919E
:10505000FF90EF90DF9008950F931F93CF93DF930E
:10506000C0E0D0E001E010E08C2F0E94670994FFBF
:105070000BC08091D50198010C2E01C0220F0A941B
:10508000EAF7822B8093D50195FF0BC08091D60162
:1050900098010C2E01C0220F0A94EAF7822B80930C
:1050A000D6019F70892F90E08230910589F083307E
:1050B0009105D1F08130910511F50C2E01C0880FBA
:1050C0000A94EAF79091D801982B9093D80117C0D1
:1050D0002091D701C8010C2E01C0880F0A94EAF76D
:1050E000282B2093D7010BC02091D901C8010C2E89
:1050F00001C0880F0A94EAF7282B2093D901219642
:10510000C230D10509F0B0CF0E94700961E080E0A3
:10511000DF91CF911F910F910C94DF27CF93DF93F5
:10512000D82F8091D901882361F1C091DA0180FFE5
:105130000FC080E00E9467094D2F50E002C05595D6
:1051400047958A95E2F740FD02C0CE7F01C0C1605D
:105150008091D90181FF0FC081E00E9467092D2F46
:1051600030E002C0359527958A95E2F720FD02C010
:10517000CD7F01C0C26060E08C2FDF91CF910C9495
:10518000DF27DF91CF910895CF92DF92EF92FF92C8
:10519000CF936B017C018091D801882399F1C09154
:1051A000DA0180FF11C080E00E946709A701960123
:1051B00004C056954795379527958A95D2F720FDD7
:1051C00002C0CE7F01C0C1608091D80181FF11C0B3
:1051D00081E00E946709A701960104C05695479592
:1051E000379527958A95D2F720FD02C0CD7F01C063
:1051F000C26060E08C2FCF91FF90EF90DF90CF9056
:105200000C94DF27CF91FF90EF90DF90CF9008951F
:10521000CF92DF92EF92FF92CF936B017C0180914E
:10522000D701882399F1C091DA0180FF11C080E095
:105230000E946709A701960104C0569547953795C6
:1052400027958A95D2F720FD02C0CE7F01C0C160AC
:105250008091D70181FF11C081E00E946709A701F9
:10526000960104C056954795379527958A95D2F7AC
:1052700020FD02C0CD7F01C0C26060E08C2FCF91C5
:10528000FF90EF90DF90CF900C94DF27CF91FF90AD
:10529000EF90DF90CF90089508952091D60130E0EF
:1052A000082E02C0369527950A94E2F720FD0C944B
:1052B000750908952091D60130E0082E02C0369578
:1052C00027950A94E2F720FD0C947E090895811138
:1052D00005C061E08091DA010C94DF270895DF9228
:1052E000EF92FF920F931F93CF93DF9381E190E0B2
:1052F0000E949F2A7C01C0E0D0E00DEE1EEF0E94CC
:105300005007D82E0E945207D89EC001112423E0D6
:10531000880F991F2A95E1F79C01205C3F4FC21727
:10532000D30770F4CE0143960E94972A282F30E0CD
:10533000C0FF02C0322F2227020F131F2196DFCF9A
:1053400081E0E016F10609F080E0DF91CF911F9136
:105350000F91FF90EF90DF90089590E0880F991FD4
:1053600043960C949F2A90E0880F991F43960C94C3
:10537000B32AEF92FF920F931F93CF93DF9300D046
:10538000CDB7DEB7082F4A8369830E945007089F74
:10539000800111240E945207809F7001819FF00CB0
:1053A00011240E94520769819701689F200D311DC9
:1053B0001124C9014A81840F911D8D5A9F4F0F906E
:1053C0000F90DF91CF911F910F91FF90EF900C9470
:1053D000972A8D5A9F4F0C94A52A8F929F92AF9235
:1053E000BF92CF92DF92EF92FF920F931F93CF93D2
:1053F000DF930E9440077C010E943D075C01E1149D
:10540000F104F1F00E940B074C01C0E0D0E00DEE7A
:105410001EEFC815D90520F4F701C590D49002C03D
:10542000C12CD12CB6018C2F0E94B3290C0D1D1D4F
:10543000219682E0E80EF11CC032D10551F702C07E
:105440000DEE1EEFA114B10461F10E9408077C016A
:10545000C0E0D0E00E945007D82E0E945207D89E8C
:10546000C001112423E0880F991F2A95E1F7C8177E
:10547000D907B8F4CE15DF0528F4F501EC0FFD1FB0
:10548000D49001C0D12C6D2DCE010E94E9296D2D43
:1054900070E0C0FF02C0762F6627060F171F219607
:1054A000D9CFB80181E190E0DF91CF911F910F91A9
:1054B000FF90EF90DF90CF90BF90AF909F908F9034
:1054C0000C94B32A0E946F29811102C00C94ED291B
:1054D000089597FB072E16F4009407D077FD09D0A6
:1054E0000E94832A07FC05D03EF4909581959F4F3A
:1054F0000895709561957F4F0895EE0FFF1F0590F9
:10550000F491E02D0994AA1BBB1B51E107C0AA1F0F
:10551000BB1FA617B70710F0A61BB70B881F991F54
:105520005A95A9F780959095BC01CD010895F999F8
:10553000FECF92BD81BDF89A992780B50895A8E164
:10554000B0E042E050E00C94BA2A262FF999FECF41
:105550001FBA92BD81BD20BD0FB6F894FA9AF99A90
:105560000FBE019608950E94A52A272F0C94A62A03
:10557000DC01CB01FC01F999FECF06C0F2BDE1BD13
:10558000F89A319600B40D9241505040B8F7089502
:04559000F894FFCFBD
:10559400058709530A8A09200AEC090101A5013F7C
:1055A400362039C603900370033703C302DC02F5C7
:0455B40002150300D9
:00000001FF
