:100000000C94D5010C9419020C9419020C94190249
:100010000C9419020C9419020C9419020C941902F4
:100020000C9419020C9419020C94DE060C94AE0781
:100030000C9447180C9419020C9419020C94190290
:100040000C9419020C94741F0C9419020C9419024C
:100050000C9419020C9490180C9419020C94190227
:100060000C9419020C9419020C9419020C941902A4
:100070000C9419020C9419020C9419020C94190294
:100080000C9419020C9419020C9419020C94190284
:100090000C9419020C9419020C9419020C94190274
:1000A0000C9419020C9419020C94190223094509A5
:1000B000340A4509340A8A09AE09340A030A160AC1
:1000C000BE0CBE0CEB0CEB0C420D7C0DE90FE90FE6
:1000D000940DE90F910E910E4C0F620FE90FD50FA1
:1000E000BB1DD31DA01D461E461EF01D461E461EEE
:1000F000F21D461EFC1D061E461E461E461E461EC0
:10010000F01DF01D461EF01D461EDE1D461E461E3D
:100110002F1E2F1E2F1E2F1E2F1E2F1E2F1E2F1E77
:100120002F1E2A1E461E2A1E461E461E461E461EFE
:10013000461E461E461E461E461E461E461E2A1EBB
:10014000461E461EF01DA71D311E311E311E311EDA
:10015000311E311E311E311E311E311E311E311E27
:100160000F1E461EC51D00D3293EC02A53545556A6
:100170005F6061575C5D5E58595A5B58620063006E
:10018000001080FF002300200E0341004D004A00B4
:100190005000610064000000120367006500650004
:1001A0006B006800610063006B0000000403090439
:1001B00009026D00040100A03209040000010301DE
:1001C0000100092111010001223F000705810308F8
:1001D000000A0904010001030102000921110100C4
:1001E00001224D000705820308000A0904020001EC
:1001F00003000000092111010001223600070583D8
:100200000308000A0904030001030000000921118A
:1002100001000122390007058403100001120110BA
:100220000100000008EDFE101002000102000105AF
:10023000010906A101050719E029E7150025019527
:1002400008750181020508190129059505750191B7
:1002500002950175039101050719002977150025FD
:1002600001957875018102C005010980A10185020F
:1002700016010026B7001A01002AB7007510950173
:100280008100C0050C0901A1018503160100269C0F
:10029000021A01002A9C02751095018100C0050117
:1002A0000902A1010901A10005091901290515008B
:1002B00025019505750181029501750381010501EF
:1002C000093009311581257F9502750881060938A5
:1002D0001581257F950175088106050C0A380215E0
:1002E00081257F950175088106C0C005010906A119
:1002F00001050719E029E715002501950875018119
:1003000002950175088101050819012905950575F2
:100310000191029501750391010507190029FF1547
:100320000025FF950675088100C000000000000050
:10033000000000000101010202020303040405059C
:100340000606070808090A0B0B0C0D0E0F101112F8
:1003500013151617191A1B1D1E2022232527292BBA
:100360002D2F313335383A3D3F4244474A4D5053A3
:1003700056595C5F6266696C7074777B7E82868A90
:100380008E9195999DA1A5A9ADB0B4B8BCC0C3C7C5
:10039000CBCED2D5D8DBDFE2E4E7EAECEFF1F3F540
:1003A000F7F8FAFBFCFDFEFFFFFF11241FBECFEFA5
:1003B000DAE0DEBFCDBF04B603FE24C08091F201B7
:1003C0009091F301A091F401B091F5018730904B29
:1003D000A740B04BB9F41092F2011092F3011092C1
:1003E000F4011092F50114BE84B7877F84BF88E1C1
:1003F0000FB6F89480936000109260000FBEE0E0AA
:10040000F8E3099511E0A0E0B1E0E8E5FAE402C004
:1004100005900D92A433B107D9F711E0A4E3B1E040
:1004200001C01D92A23FB107E1F70E9437050C946D
:100430002A250C9400000895089588E190E008951D
:1004400081E090E00895462F672F0C94F422805CA1
:100450000E94E822089588E691E0089586E691E0FA
:1004600008958AB18E7D8AB98BB18E7D8BB980B3A8
:100470008F7080BB81B38F7081BB089586E0089533
:1004800084E0089580E885BF85BF0E94310280B373
:100490008C7F80BB81B3836081BB6E98769A3F98D6
:1004A000479AA4E3B1E0EAE3F1E086E08E0F11920F
:1004B0001D928E13FCCF0895FF920F931F93CF933D
:1004C000DF9304E311E0C0E0D1E085E0F82EC33013
:1004D00099F028F4C13051F0C23059F004C0C43052
:1004E00071F0C53079F0879A8F980EC0869A8E98F1
:1004F0000BC0859A8D9808C0849A8C9805C0559A2F
:100500005D9802C0509A589880EA8A95F1F78FB1A9
:10051000869581708D27789902C092E001C090E0A5
:10052000892B669902C094E001C090E0282F292B06
:1005300096B19095892F881F8827881F880F880F6C
:10054000880F822BF8019081981719F08083F09220
:1005500000010E943102CF5F0F5F1F4FC63009F0CC
:10056000B6CF809100018823B1F0815080930001C3
:10057000882339F08FE99FE00197F1F700C0000070
:100580000AC0AAE3B1E0E4E3F1E0CF018A5F919110
:100590009D938E13FCCF81E0DF91CF911F910F913E
:1005A000FF900895E82FF0E0E65CFE4F2081822F57
:1005B00090E021E030E002C0220F331F6A95E2F79D
:1005C0002823392381E0232B09F480E00895E82FC4
:1005D000F0E0E65CFE4F808108950895CF93C82F28
:1005E00080934001873090F48430E0F4813090F1C2
:1005F0000E94001F0E945F1F0E946E1FEC2FF0E000
:10060000E058FE4F8491CF910C941B1F8730A9F0C6
:10061000883001F50E94001F0E94591F0E946E1F22
:1006200081E012C00E94001F0E945F1F0E94681F8D
:1006300086E08C1BCF910C94711F0E94001F0E94BA
:10064000591F0E946E1F80E00E94621F83E0CF91BD
:100650000C94651F0E945F1F0E946E1FCF910C9427
:100660000A1F1F93CF93DF9300D000D01F92CDB706
:10067000DEB7162F80914001873029F4662319F0E8
:1006800080E20E944B1F80914001883069F4112361
:1006900059F080E20F900F900F900F900F90DF9124
:1006A000CF911F910C94341F0F900F900F900F90CB
:1006B0000F90DF91CF911F910895E82FF0E0EE0F9A
:1006C000FF1FEC57FE4F859194910895569A5E9ABC
:1006D000269A2E980895882319F0813019F00895EC
:1006E0005E9808952E9A0895882319F0813019F0A4
:1006F00008955E9A08952E98089580915201089564
:10070000CF93DF9300D01F92CDB7DEB79C018091CD
:10071000E801843019F593E099833B832A83909311
:10072000E9008FEF9091E800815095FD06C095EDAE
:100730009A95F1F700008111F5CF8091E80085FFCF
:100740000DC040E050E063E070E0CE0101960E94F1
:10075000F2078091E8008E778093E8000F900F9069
:100760000F90DF91CF910895CF93DF9300D01F9228
:10077000CDB7DEB72091E801243021F522E02983AE
:100780009B838A8383E08093E9008FEF9091E80058
:10079000815095FD06C095ED9A95F1F70000811105
:1007A000F5CF8091E80085FF0DC040E050E063E0A8
:1007B00070E0CE0101960E94F2078091E8008E77EA
:1007C0008093E8000F900F900F90DF91CF910895E4
:1007D0002091E8012430F1F422E02093E9002FEF8A
:1007E0003091E800215035FD06C035ED3A95F1F71E
:1007F00000002111F5CF2091E80025FF0BC040E05B
:1008000050E065E070E00E94F2078091E8008E778A
:100810008093E8000895CF93DF93EC019091E80175
:10082000943009F042C080910C018823B9F0909374
:10083000E9008FEF9091E800815095FD06C095E1A9
:100840009A95F1F700008111F5CF8091E80085FFBE
:100850002CC040E050E060E170E017C081E0809380
:10086000E9008FEF9091E800815095FD06C095ED6D
:100870009A95F1F700008111F5CF8091E80085FF8E
:1008800014C040E050E068E070E0CE010E94F20742
:100890008091E8008E778093E80080E1FE01A2E479
:1008A000B1E001900D928A95E1F7DF91CF91089523
:1008B0008091E701811107C00E94C5068091E20086
:1008C00084608093E20008950895089508950C943B
:1008D0004318089542E061EC81E00E94E20542E0A5
:1008E00061EC82E00E94E20542E061EC83E00E945C
:1008F000E20542E161EC84E00C94E2058091EA01BA
:10090000833009F455C030F4813071F0823009F43D
:1009100095C008958A3009F481C08B3009F460C015
:10092000893009F0A3C020C08091E901813A09F023
:100930009DC08091E800877F8093E8008091ED0161
:100940009091EE01892B21F460E182E491E003C0F3
:1009500060E080E090E070E00E943D088091E80057
:100960008B778093E80008958091E901813209F046
:100970007DC08091ED019091EE01009719F00397F1
:1009800009F074C08091E800877F8093E80080912F
:10099000E80082FD05C08091E8018111F8CF66C0B2
:1009A0008091F100809352018091E8008B775AC0CA
:1009B0008091E901813A09F059C08091ED0190914F
:1009C000EE01892B09F052C08091E800877F809367
:1009D000E8008091E80080FFFCCF80910B013DC0D2
:1009E0008091E901813209F041C08091ED0190913F
:1009F000EE01892BD9F58091E800877F8093E8008C
:100A00000E9417069091EB0181E0911101C080E0F6
:100A100080930B0180930C010C940A108091E901E2
:100A2000813221F58091E800877F8093E8000E9461
:100A300017068091EC018093410108958091E901AE
:100A4000813AA1F48091E800877F8093E80080914B
:100A5000E80080FFFCCF809141018093F1008091FC
:100A6000E8008E778093E8000C941706089584B709
:100A7000877F84BF88E10FB6F8948093600010925E
:100A800060000FBE90E080E80FB6F894809361009C
:100A9000909361000FBE0E9468060E94C506809177
:100AA000E20084608093E20078948091E8018430D1
:100AB000E1F70E94A50A81E091E00E944D0A809131
:100AC000E801853071F483E00E9405188091E60109
:100AD0008823A9F30E942F18882389F30E94CC054C
:100AE000EECF0E94B50AEBCF292F332723303105F3
:100AF000C9F064F42130310581F02230310509F06C
:100B000043C08DE690E020EB31E042C02132310558
:100B1000F1F02232310541F137C082E190E02DE160
:100B200032E036C099278130910541F0823091053D
:100B300041F0892B49F5ECEAF1E005C0E8E9F1E084
:100B400002C0E8E8F1E0849190E09F0121C06430A8
:100B5000D8F4E62FF0E0EE0FFF1FEF5DFE4F20818F
:100B6000318189E090E014C0643070F470E0FB01E2
:100B7000EE0FFF1FE75EFE4F20813181FB01EB5E30
:100B8000FE4F808190E004C080E090E020E030E003
:100B9000FA0131832083089580E189BD82E189BD16
:100BA00009B400FEFDCF8091D8008F7D8093D800DE
:100BB0008091E00082608093E0008091E00081FD00
:100BC000FCCF0895982F973058F59093E900981727
:100BD00039F07091EC002091ED005091F00003C0CD
:100BE000242F762F50E021FF19C03091EB003E7F7B
:100BF0003093EB003091ED003D7F3093ED0030916C
:100C0000EB0031603093EB007093EC002093ED002B
:100C10005093F0002091EE0027FF07C09F5FD3CFD5
:100C20008F708093E90081E0089580E008958091BD
:100C3000E90187FF11C08091E80082FD05C0809125
:100C4000E8018111F8CF11C08091E8008B770BC0CB
:100C50008091E801882349F08091E80080FFF8CF77
:100C60008091E8008E778093E80008952091E40059
:100C70003091E50095E64091EC00842F817040FFB3
:100C800022C08091E80080FD1CC08091E80188238B
:100C900091F0853091F08091EB0085FD10C040917E
:100CA000E4005091E5004217530729F39A0191504F
:100CB00011F784E0089582E0089583E0089581E0CB
:100CC000089580E008954091E80042FFDECF089546
:100CD0000E94D1060E94D906E0EEF0E0808181609A
:100CE0008083E8EDF0E080818F77808319BCA7EDE9
:100CF000B0E08C918E7F8C9380818F7E8083109268
:100D0000E70108950F931F93CF93DF930E94D106BD
:100D10000E94D906C8EDD0E088818F7788838881CA
:100D20008068888388818F7D888319BC1092E80150
:100D30001092E4011092E6011092E50100EE10E03D
:100D4000F80180818B7F808388818160888342E085
:100D500060E080E00E94E205E1EEF0E080818E7FBD
:100D60008083E2EEF0E08081816080838081886012
:100D70008083F80180818E7F808388818061888371
:100D8000DF91CF911F910F910895E7EDF0E0808101
:100D90008160808384E082BF81E08093E7010C94CE
:100DA0008206E8EDF0E080818E7F80831092E20081
:100DB00008951092DA001092E10008951F920F92A8
:100DC0000FB60F9211242F933F934F935F936F931E
:100DD0007F938F939F93AF93BF93EF93FF938091F4
:100DE000E10082FF0BC08091E20082FF07C080918A
:100DF000E1008B7F8093E1000E9469048091DA001A
:100E000080FF1FC08091D80080FF1BC08091DA0056
:100E10008E7F8093DA008091D90080FF0DC080E141
:100E200089BD82E189BD09B400FEFDCF81E08093D8
:100E3000E8010E94580405C019BC1092E8010E9404
:100E400064048091E10080FF19C08091E20080FF7E
:100E500015C08091E2008E7F8093E2008091E200D5
:100E600080618093E2008091D80080628093D800F6
:100E700019BC85E08093E8010E9466048091E1003E
:100E800084FF2EC08091E20084FF2AC080E189BDEA
:100E900082E189BD09B400FEFDCF8091D8008F7D2D
:100EA0008093D8008091E1008F7E8093E100809153
:100EB000E2008F7E8093E2008091E2008160809367
:100EC000E2008091E401811106C08091E30087FD7A
:100ED00002C081E001C084E08093E8010E946704C1
:100EE0008091E10083FF29C08091E20083FF25C04B
:100EF0008091E100877F8093E10082E08093E801A8
:100F00001092E4018091E1008E7F8093E100809156
:100F1000E2008E7F8093E2008091E2008061809306
:100F2000E20042E060E080E00E94E2058091F00093
:100F300088608093F0000E946504FF91EF91BF915B
:100F4000AF919F918F917F916F915F914F913F9161
:100F50002F910F900FBE0F901F9018951F920F9218
:100F60000FB60F9211242F933F934F935F936F937C
:100F70007F938F939F93AF93BF93CF93DF93EF9321
:100F8000FF93C091E900CF708091EC00D82FD17011
:100F900080FDD0E81092E9008091F000877F809377
:100FA000F00078940E94F9081092E9008091F00016
:100FB00088608093F000CD2BCF70C093E900FF9143
:100FC000EF91DF91CF91BF91AF919F918F917F91E1
:100FD0006F915F914F913F912F910F900FBE0F90A6
:100FE0001F901895CF92DF92EF92FF920F931F936D
:100FF000CF93DF93EC018B016A010E9436068111C9
:1010000033C0C114D10439F0F60180819181081BED
:10101000190BC80FD91FE12CF12C0115110519F17D
:101020008091E80085FD16C08091E8008E7780935E
:10103000E800C114D10449F0F60180819181E80EE5
:10104000F91EF182E08285E00FC00E9436068823F7
:1010500021F30AC089918093F10001501109FFEF3B
:10106000EF1AFF0ADACF80E0DF91CF911F910F9145
:10107000FF90EF90DF90CF9008952091EF01309195
:10108000F0012617370748F06115710539F42091F2
:10109000E8002E772093E80001C0B90140E0611517
:1010A0007105A9F12091E801222309F441C02530FE
:1010B00009F440C02091E80023FD38C02091E800E9
:1010C00022FD2EC02091E80020FFE9CF4091F300DF
:1010D0002091F20030E0342BFC01CF016115710545
:1010E00059F02830310540F481918093F10061502E
:1010F00071092F5F3F4FF1CF41E02830310509F0F2
:1011000040E02091E8002E772093E800C8CF4111FD
:10111000C9CF06C08091E801882351F0853051F095
:101120008091E80082FFF6CF80E0089581E0089585
:1011300082E0089583E008952091EF013091F0015D
:101140002617370748F06115710539F42091E8003A
:101150002E772093E80001C0B901FC0120E0611561
:10116000710591F18091E801882309F43EC0853032
:1011700009F43DC08091E80083FD35C08091E8000E
:1011800082FD2BC08091E80080FFE9CF2091F30021
:101190008091F20090E0922B6115710559F0883032
:1011A000910540F424912093F1003196615071092A
:1011B0000196F2CF21E0089709F020E08091E80045
:1011C0008E778093E800CBCF2111CCCF06C08091E1
:1011D000E801882351F0853051F08091E80082FFCA
:1011E000F6CF80E0089581E0089582E0089583E0DD
:1011F00008950F931F93CF93DF93CDB7DEB7AA97D0
:101200000FB6F894DEBF0FBECDBFE9EEF1E088E087
:101210008E0F9091F10091938E13FBCF0E947E046C
:101220008091E80083FF20C18091E9019091EA015B
:10123000492F50E04A30510508F016C1FA01EA5A28
:10124000FF4F0C94DF24803881F0823809F00CC104
:101250008091ED018F708093E9008091EB0085FB18
:10126000882780F91092E90006C08091E5019091ED
:10127000E601911182609091E800977F9093E800D9
:101280008093F1001092F100C9C0282F2D7F09F042
:10129000EBC0882319F0823061F0E6C08091EB0149
:1012A000813009F0E1C0933009F080E08093E601DD
:1012B0002BC08091EB01811127C08091ED018F70CF
:1012C00009F4D2C08093E9002091EB0020FF1CC0FC
:1012D000933021F48091EB00806214C09091EB0078
:1012E00090619093EB0021E030E0A90102C0440F2F
:1012F000551F8A95E2F74093EA001092EA00809128
:10130000EB0088608093EB001092E9008091E80088
:10131000877F87C08111A8C01091EB011F770FB79D
:10132000F8948091E800877F8093E8000E94170678
:101330008091E80080FFFCCF8091E3008078812BD2
:101340008093E30080688093E300111102C082E083
:1013500001C083E08093E8010FBF86C080588230CF
:1013600008F082C08091EB019091EC018C3D53E03C
:10137000950779F583E08A838AE289834FB7F894E9
:10138000DE01139620E03EE051E2E32FF0E05093BF
:101390005700E49120FF03C0E295EF703F5FEF70CC
:1013A0008E2F90E0EA3010F0C79601C0C0968D9362
:1013B0009D932F5F243149F74FBF8091E800877FCD
:1013C0008093E8006AE270E0CE0101960E943D0839
:1013D00014C0AE014F5F5F4F6091ED010E94740534
:1013E000BC01009709F440C09091E800977F90936A
:1013F000E80089819A810E949C088091E8008B779F
:101400008093E80031C0803879F58091E800877FCB
:101410008093E8008091E4018093F1008091E800DE
:101420008E778093E8000E9417061EC081111CC0B1
:101430009091EB019230C0F48091E800877F809317
:10144000E8009093E4010E9417068091E401811165
:1014500006C08091E30087FD02C081E001C084E006
:101460008093E8010E946A048091E80083FF0AC02B
:101470008091EB0080628093EB008091E800877F91
:101480008093E800AA960FB6F894DEBF0FBECDBFDA
:10149000DF91CF911F910F91089590935801809300
:1014A0005701089580915701909158010895E09156
:1014B0005701F0915801309721F00190F081E02D13
:1014C000099480E00895E0915701F0915801309718
:1014D00021F00280F381E02D09940895E0915701F5
:1014E000F0915801309721F00480F581E02D0994A6
:1014F000089520915501309156018217930771F09C
:101500009093560180935501E0915701F091580155
:10151000309721F00680F781E02D099408952091FD
:101520005301309154018217930771F09093540145
:1015300080935301E0915701F0915801309721F0C9
:101540000084F185E02D099408950E9451180E94AD
:1015500042020E9418190E9460220E9421210E94CA
:10156000ED1E0E9436200C94A223CF92DF92EF92C0
:10157000FF920F931F93CF93DF93CDB7DEB72B97D7
:101580000FB6F894DEBF0FBECDBF0E945C028AE5A5
:10159000C82E81E0D82E00E010E0E02E802F0E94BF
:1015A000E702F60141916F01F42EF826B1F40F5FC6
:1015B0001F4F0630110589F78FEF89838A831B82BD
:1015C0000E945A188160782F9D838C8349815A81AB
:1015D0006B818D810E944D1040C09091B60191FFAA
:1015E00004C08B870E94ED028B8520E030E04F2DF8
:1015F00050E0922FBA01022E02C0759567950A94A9
:10160000E2F760FF24C02E83EF8221E030E0690121
:1016100002C0CC0CDD1C9A95E2F790E08C219D2154
:10162000892B09F420E028870E945A188160782FBE
:101630009A8789874E815F8168858A850E944D10CF
:10164000F801E65AFE4F8081C826C08206C02F5F8F
:101650003F4F2430310569F6AACF0E941A1C109121
:1016600059010E94570A1817A1F00E94570A809347
:1016700059012B960FB6F894DEBF0FBECDBFDF9198
:10168000CF911F910F91FF90EF90DF90CF900C942E
:1016900083212B960FB6F894DEBF0FBECDBFDF912E
:1016A000CF911F910F91FF90EF90DF90CF90089511
:1016B000CF93882309F4C2C0C82F823859F40E94FE
:1016C000570A81FDBBC089E30E943C150E94C616E3
:1016D00089E30CC0833879F40E94570A80FDAEC0BC
:1016E00083E50E943C150E94C61683E50E940216FF
:1016F000CF910C94C616843859F40E94570A82FD83
:101700009DC087E40E943C150E94C61687E4EECF78
:101710008CEF8C0F813A48F48C2F0E944E1E811161
:101720008DC08C2F0E943C15E3CF80E28C0F883057
:1017300048F4C77081E001C0880FCA95EAF70E949B
:101740009816D6CF8BE58C0F833078F4C53A29F004
:10175000C63A31F083E890E005C081E890E002C02D
:1017600082E890E0CF910C94790A88E58C0F833160
:1017700008F064C0C83A39F1C93A41F1CA3A49F1AE
:10178000CB3A51F1CC3A59F1CD3A61F1C03B69F114
:10179000CE3A71F1CF3A79F1C13B81F1C23B89F187
:1017A000C33B91F1C43B99F1C53BA1F1C63BA9F103
:1017B000C73BB1F1C83BB9F1C93BC1F1CA3BC9F163
:1017C00080E090E038C082EE90E035C089EE90E095
:1017D00032C08AEE90E02FC085EB90E02CC086EB03
:1017E00090E029C087EB90E026C08CEC90E023C00D
:1017F0008DEC90E020C083E891E01DC08AE891E084
:101800001AC082E991E017C084E991E014C081E236
:1018100092E011C083E292E00EC084E292E00BC03D
:1018200085E292E008C086E292E005C087E292E09D
:1018300002C08AE292E0CF910C948F0ACF91089572
:10184000882309F44BC0823859F40E94570A81FF5B
:1018500045C089E30E943C150E94C61689E30CC06E
:10186000833871F40E94570A80FF38C083E50E94D4
:101870003C150E94C61683E50E9402160C94C616FB
:10188000843859F40E94570A82FF28C087E40E94D6
:101890003C150E94C61687E4EFCF9CEF980F913A53
:1018A00058F390E2980F983050F4877091E001C09F
:1018B000990F8A95EAF7892F0E949E16DFCF9BE544
:1018C000980F933020F480E090E00C94790A885AC5
:1018D000833120F480E090E00C948F0A08958823EF
:1018E00021F00E9498160C94C6160895882321F0C2
:1018F0000E949E160C94C6160895CF92DF92EF9226
:10190000FF920F931F93CF93DF93CDB7DEB7279747
:101910000FB6F894DEBF0FBECDBF25E0FC01DE019F
:10192000119601900D922A95E1F7FC0140813181D9
:101930000281258122952F7063817481672B09F4C0
:1019400048C33F3F19F44F3F09F443C37C01498327
:101950003A8389819A812F830E94FB14182F9E83DA
:101960000E94FA140E940A149E81E92FE295EF70FA
:10197000F0E0E05AFF4F2F810C94DF24892F807F05
:101980009F70F92E882319F0F29480EFF82200233B
:1019900049F0FF2009F45BC28F2D0E94A8160E9417
:1019A000C61655C2812F0E94200CFF2009F411C3D6
:1019B0008F2D0E94AE1627960FB6F894DEBF0FBE8D
:1019C000CDBFDF91CF911F910F91FF90EF90DF90EE
:1019D000CF900C94C616892F807F9F70803211F4AF
:1019E000892F03C0892F8295807F112319F0113030
:1019F00009F12AC00023A1F0222381F1213071F5E1
:101A000027960FB6F894DEBF0FBECDBFDF91CF9102
:101A10001F910F91FF90EF90DF90CF900C94B8162C
:101A2000222319F0213009F4D4C28E830E94BB1600
:101A30008E8191C1002321F0263008F0CAC20EC069
:101A4000253008F0C6C287C10023C1F0222331F03F
:101A5000F701958190FFFBC19F70958327960FB684
:101A6000F894DEBF0FBECDBFDF91CF911F910F91D4
:101A7000FF90EF90DF90CF900C946F0C222309F42D
:101A80006AC1F9C1292F26952695237030E02115CA
:101A9000310521F021303105C1F09BC2002319F03E
:101AA000812F937002C080E090E027960FB6F894E3
:101AB000DEBF0FBECDBFDF91CF911F910F91FF9081
:101AC000EF90DF90CF900C94790A002319F0812FCA
:101AD000937002C080E090E027960FB6F894DEBFC6
:101AE0000FBECDBFDF91CF911F910F91FF90EF906F
:101AF000DF90CF900C948F0A812F002319F00E9461
:101B0000221B02C00E948A1B27960FB6F894DEBFE4
:101B10000FBECDBFDF91CF911F910F91FF90EF903E
:101B2000DF90CF900C940F1C892F837009F079C03F
:101B300001114FC2812F829586958770880F880F7B
:101B4000212F2F70C22ED12CE12CF12C082E04C095
:101B5000CC0CDD1CEE1CFF1C0A94D2F714FF12C043
:101B60004FE050E060E070E004C0440F551F661F76
:101B7000771F8A95D2F78A019B01009510952095D1
:101B8000309503C000E010E098019695969593700B
:101B9000492F50E0C901B80142305105D1F043301E
:101BA000510559F16C297D298E299F294130510514
:101BB00041F127960FB6F894DEBF0FBECDBFDF917F
:101BC000CF911F910F91FF90EF90DF90CF900C94E9
:101BD0001F146C297D298E299F2927960FB6F8940A
:101BE000DEBF0FBECDBFDF91CF911F910F91FF9050
:101BF000EF90DF90CF900C9431140E941F14C70116
:101C0000B60127960FB6F894DEBF0FBECDBFDF91A9
:101C1000CF911F910F91FF90EF90DF90CF900C9498
:101C20000D14002319F0892F817001C08695882337
:101C300009F4CFC1812F829586958770880F880F10
:101C4000212F2F70C22ED12CE12CF12C082E04C094
:101C5000CC0CDD1CEE1CFF1C0A94D2F714FF12C042
:101C60004FE050E060E070E004C0440F551F661F75
:101C7000771F8A95D2F78A019B01009510952095D0
:101C8000309503C000E010E098019695969593700A
:101C9000492F50E0C901B80142305105D1F043301D
:101CA000510559F16C297D298E299F294130510513
:101CB00041F127960FB6F894DEBF0FBECDBFDF917E
:101CC000CF911F910F91FF90EF90DF90CF900C94E8
:101CD000D6146C297D298E299F2927960FB6F89452
:101CE000DEBF0FBECDBFDF91CF911F910F91FF904F
:101CF000EF90DF90CF900C94E8140E94D614C701A7
:101D0000B60127960FB6F894DEBF0FBECDBFDF91A8
:101D1000CF911F910F91FF90EF90DF90CF900C9497
:101D2000C414103F41F118F4103E48F48BC0123F28
:101D300009F450C0D8F1133F09F460C083C01F708C
:101D4000892F8F71002321F00E945D14812F86CE90
:101D50000E947E14812F27960FB6F894DEBF0FBE27
:101D6000CDBFDF91CF911F910F91FF90EF90DF904A
:101D7000CF900C94760C0023A9F0253008F029C1EF
:101D8000892F8F7127960FB6F894DEBF0FBECDBF97
:101D9000DF91CF911F910F91FF90EF90DF90CF9047
:101DA0000C94A314263008F014C1EACF0023A1F04C
:101DB000892F8F7127960FB6F894DEBF0FBECDBF67
:101DC000DF91CF911F910F91FF90EF90DF90CF9017
:101DD0000C945D14002361F3892F8F7127960FB641
:101DE000F894DEBF0FBECDBFDF91CF911F910F9151
:101DF000FF90EF90DF90CF900C947E14002391F031
:101E0000892F8F7127960FB6F894DEBF0FBECDBF16
:101E1000DF91CF911F910F91FF90EF90DF90CF90C6
:101E20000C94481427960FB6F894DEBF0FBECDBFB2
:101E3000DF91CF911F910F91FF90EF90DF90CF90A6
:101E40000C9443140023A1F0222309F4B1CF812F75
:101E500027960FB6F894DEBF0FBECDBFDF91CF91AE
:101E60001F910F91FF90EF90DF90CF900C94580B43
:101E7000222309F4B1CF812F27960FB6F894DEBF45
:101E80000FBECDBFDF91CF911F910F91FF90EF90CB
:101E9000DF90CF900C94200C492F4F70612FC70119
:101EA0000E94011827960FB6F894DEBF0FBECDBF73
:101EB000DF91CF911F910F91FF90EF90DF90CF9026
:101EC0000C947713011185C0112341F0892F8F7075
:101ED000843021F0907F212F2F70922B9F70492FFB
:101EE00050E04230510509F440C0BCF441155105A1
:101EF00061F14130510509F06CC027960FB6F89496
:101F0000DEBF0FBECDBFDF91CF911F910F91FF902C
:101F1000EF90DF90CF900C94602043305105A9F1F1
:101F20004430510509F055C0812F27960FB6F8941B
:101F3000DEBF0FBECDBFDF91CF911F910F91FF90FC
:101F4000EF90DF90CF900C94BB2027960FB6F894BB
:101F5000DEBF0FBECDBFDF91CF911F910F91FF90DC
:101F6000EF90DF90CF900C94472027960FB6F8940F
:101F7000DEBF0FBECDBFDF91CF911F910F91FF90BC
:101F8000EF90DF90CF900C94792027960FB6F894BD
:101F9000DEBF0FBECDBFDF91CF911F910F91FF909C
:101FA000EF90DF90CF900C949820492F4F70612FC5
:101FB000C70127960FB6F894DEBF0FBECDBFDF91E5
:101FC000CF911F910F91FF90EF90DF90CF900C94E5
:101FD000041827960FB6F894DEBF0FBECDBFDF9171
:101FE000CF911F910F91FF90EF90DF90CF900895C8
:101FF0000E94B5160E948A160E94C6160E94C01C36
:102000000E940F1C80E090E00E94790A80E090E03E
:102010000C948F0A0E94A5160C94F80F0E94FB14D2
:10202000292F22952F7030E02C3031054CF42A30C6
:10203000310594F4225031092230310538F40CC0B6
:102040002C30310529F02F30310511F080E0089552
:1020500093FB882780F9089581E00895CF93DF935B
:1020600000D000D01F92CDB7DEB70F900F900F9029
:102070000F900F90DF91CF910895CF93DF9300D011
:1020800000D000D0CDB7DEB726960FB6F894DEBFED
:102090000FBECDBFDF91CF910895CF93DF93CDB722
:1020A000DEB72B970FB6F894DEBF0FBECDBF4F83C0
:1020B000588769877A878B87DE01119686E0FD0154
:1020C00011928A95E9F785E0FE01379601900D920D
:1020D0008A95E1F74F81588569857A858B850E94BD
:1020E000310349815A816B817C818D819E810E945F
:1020F000D3122B960FB6F894DEBF0FBECDBFDF9183
:10210000CF9108951F93CF93DF93C091600116E0A4
:1021100080916101C81799F0D0E01C9FF0011D9FCC
:10212000F00D1124EE59FE4F40815181628173817F
:10213000848195810E943D102196C770E9CFDF917F
:10214000CF911F9108954091920150919301609118
:1021500094017091950180919601909197010C9452
:102160003D108091970182958F7009F054C0809145
:102170009401882309F44FC080916001A09161010E
:102180006091920170919301409195015091960157
:10219000B6E08A1709F43FC090E041155105C1F13E
:1021A0007F3F11F46F3FA1F1B89FF001B99FF00D8F
:1021B0001124EE59FE4F218172132AC0208162132F
:1021C00027C02281211124C023813481241735079F
:1021D00010F421503109241B350B283C3105C0F483
:1021E000209197012F7020612093970126E0289F6E
:1021F000F001299FF00D1124E959FE4F80818F7065
:102200008061808382E991E00E947D0C0C948210B1
:1022100001968770BECF0895CF92DF92EF92FF9222
:102220000F931F93CF93DF93CDB7DEB762970FB6AF
:10223000F894DEBF0FBECDBF8C0185E0F801DE0152
:102240001D9601900D928A95E1F7D8014C91119657
:102250005C91119712966C9112971396CD90DC9029
:102260001497309192017091930180919501909112
:102270009601009709F46BC17F3F19F43F3F09F4C1
:1022800066C1E0909401EE2009F4C0C0209197014E
:10229000C816D90628F0F601E81BF90BCF0104C0D7
:1022A000809590958C0D9D1DFF24F394883C91059D
:1022B00078F0F12C207F09F0C6C07C2DD98AC88A1D
:1022C00089890E942E1082E991E00E947D0CB1C0A4
:1022D000822F807F09F046C0751314C0341312C0DA
:1022E000611110C02F702061209397010E94A310EC
:1022F00082E991E00E947D0C80919701D8011596AA
:102300008C932EC0CD2819F15F3F11F44F3FF9F0A7
:10231000F62E61111CC0809160012091610136E0B0
:10232000821709F45AC090E0389FF001399FF00DF0
:102330001124EE59FE4F7181571306C07081471367
:1023400003C07281711103C001968770E9CFF62E28
:10235000662309F418C180919701816080939701E9
:10236000F12C11C1751308C0341306C0611104C0EB
:1023700080919701D801C3C04D875E878D859E856A
:102380006A8B0E940E106A898823E1F16623D1F1DD
:1023900020919701822F82958F7090E0029774F0C0
:1023A000809192019091930198878F831986DB86A3
:1023B000CA862C87CE0107960E947D0C86E0F80124
:1023C000A2E9B1E001900D928A95E1F70E94B11067
:1023D0000E94A310FF24F394D6C04D875E878D859D
:1023E0009E850E94FB14292F22952F7030E0223009
:1023F00031050CF0BCC09F7009F0B6C0805E88301B
:1024000008F4C1C0C8010E947D0CE4CFC816D906EB
:1024100008F453C0F601E81BF90BCF01883C910585
:1024200008F450C0F12C7C2DD98AC88A89890E9471
:102430002E10E2E9F1E086E0DF011D928A95E9F7CE
:102440000E94A310A0C0751314C0341312C06111F0
:1024500010C080919701F8018583C8010E947D0C0E
:1024600086E0E2E9F1E0DF011D928A95E9F7FE2CB2
:102470008AC04D875E878D859E856A8B0E940E106F
:102480006A89882309F4BECF662309F4BBCF209163
:102490009701822F82958F7090E002970CF48ECF77
:1024A00080919201909193019A8389831B82DD82AE
:1024B000CC822E83CE0101967FCF809590958C0D96
:1024C0009D1DACCFF62E662309F49CCF75132EC04C
:1024D00034132CC02091970120FD1FC0822F8295BC
:1024E0008F70D9F0D80115962C9315978F3049F03D
:1024F0008F5F982F9295907F822F8F70892B1596E2
:102500008C93C8010E947D0C86E0F801A2E9B1E03D
:1025100001900D928A95E1F793CF86E0F801A2E948
:10252000B1E001900D928A95E1F72DC04D875E874D
:102530008D859E850E940E10811140CF809197015C
:10254000816080939701C8010E947D0C1CC06623A6
:1025500009F458CF4D875E878D859E850E940E10A9
:10256000882309F44FCF2ACF811148CF0CC02430E3
:1025700031050CF047CF9F7009F440CFF8019581E9
:10258000907F09F03BCF8F2D62960FB6F894DEBF97
:102590000FBECDBFDF91CF911F910F91FF90EF90B4
:1025A000DF90CF9008951F93CF93DF93CDB7DEB721
:1025B0002C970FB6F894DEBF0FBECDBF4F83588760
:1025C00069877A878B879C87CE0107960E940C11BA
:1025D000882369F08F8198852A853B85232BF1F12B
:1025E0009F3F09F063C08F3F09F060C037C086E0AD
:1025F000FE013796DE01119601900D928A95E1F762
:102600006F817885EA85FB85309741F17F3F11F432
:102610006F3F21F12091610130E0C901019687707F
:1026200099274091600150E08417950709F447C04D
:1026300069837A83FD83EC8396E0929FD001939F18
:10264000B00D1124AE59BE4FFE01319601900D928E
:102650009A95E1F7809361010E94821016E08091C3
:102660006001909161018917C1F1189FC001112487
:102670008E599E4F0E940C11882379F1E0916001E0
:102680001E9FF0011124EE59FE4F4081518162815D
:102690007381848195810E943D108091600190E05A
:1026A00001968770992780936001D9CF4F81588513
:1026B00069857A858B859C850E943D10CFCF0E94CD
:1026C0000A101092610110926001E2E9F1E086E0E7
:1026D000DF011D928A95E9F7C1CF2C960FB6F894C9
:1026E000DEBF0FBECDBFDF91CF911F910895EF9256
:1026F000FF920F931F93CF93DF938C01009709F400
:102700006AC0F12CEE24E394E8012196F80184914B
:10271000843740F4843008F04FC0813081F082303B
:1027200019F159C0853709F442C098F19CE7980F18
:10273000903708F050C08F770E94200C3FC00E5F8A
:102740001F4FFE01C49180E28C0F883048F4C7709F
:102750008E2D01C0880FCA95EAF70E94A8162FC0D7
:102760008C2F0E94580B2BC00E5F1F4FFE01C4918F
:1027700080E28C0F883048F4C7708E2D01C0880F1E
:10278000CA95EAF70E94AE161AC08C2F0E94200C40
:1027900016C00E5F1F4FFE01C491CC2381F08FE95C
:1027A0009FE00197F1F700C00000C150F6CF0E5F27
:1027B0001F4FFE01F49003C00E94580B8E018F2D15
:1027C000882309F4A1CFEFE9FFE03197F1F700C0CA
:1027D00000008150F5CFDF91CF911F910F91FF90B5
:1027E000EF90089560939C0170939D0180939E01EA
:1027F00090939F010E94B9210C94F80F6093980167
:102800007093990180939A0190939B010E94FB2100
:102810000C94F80F08950C94F2130F931F930091EA
:102820009C0110919D0120919E0130919F01602B90
:10283000712B822B932B1F910F910C94F2130F93FA
:102840001F9300919C0110919D0120919E01309158
:102850009F0160237123822393231F910F910C9476
:10286000F2130F931F9300919C0110919D012091F1
:102870009E0130919F0160277127822793271F9126
:102880000F910C94F21360E070E0CB010C94FE13F6
:102890000F931F9341E050E060E070E08A019B01DC
:1028A00004C0000F111F221F331F8A95D2F7C901E0
:1028B000B8011F910F910C94FE130F931F9341E0E9
:1028C00050E060E070E004C0440F551F661F771FA2
:1028D0008A95D2F78091980190919901A0919A01DF
:1028E000B0919B018A019B01082B192B2A2B3B2BB2
:1028F000C901B8011F910F910C94FE130F931F9300
:1029000041E050E060E070E004C0440F551F661FD6
:10291000771F8A95D2F74095509560957095809174
:10292000980190919901A0919A01B0919B018A011F
:102930009B01082319232A233B23C901B8011F91B6
:102940000F910C94FE130F931F9341E050E060E051
:1029500070E004C0440F551F661F771F8A95D2F799
:102960008091980190919901A0919A01B0919B0159
:102970008A019B01082719272A273B27C901B8018B
:102980001F910F910C94FE130F931F9300919801C8
:102990001091990120919A0130919B01602B712B2C
:1029A000822B932B1F910F910C94FE130F931F9367
:1029B000009198011091990120919A0130919B0109
:1029C00060237123822393231F910F910C94FE1394
:1029D0000F931F93009198011091990120919A01F2
:1029E00030919B0160277127822793271F910F91B8
:1029F0000C94FE130895CF92DF92EF92FF920F9303
:102A00001F93CF93DF938C01C0909C01D0909D01C8
:102A1000E0909E01F0909F014091980150919901A2
:102A200060919A0170919B01C42AD52AE62AF72A5F
:102A3000CFE1D0E0D701C6010C2E04C0B695A79512
:102A4000979587950A94D2F780FF07C0B8018C2F1D
:102A50000E948E178130910531F4219758F7B80103
:102A600080E00E948E17DF91CF911F910F91FF9010
:102A7000EF90DF90CF900895CF92DF92EF92FF9288
:102A80000F931F93CF93DF93C82F80910C0188235E
:102A9000C9F08C2F8695869586958F3008F0A9C051
:102AA000E0910D01F0910E01E80FF11DC77081E07A
:102AB00090E00C2E01C0880F0A94EAF79181892BCF
:102AC000818397C0D090B3013091B101E0910D01A5
:102AD000F0910E01332309F477C04091B2018D2D9E
:102AE0002FEF96E0E92EF12C082F112707FD109506
:102AF000BF01600F711FDB0112969C919C1709F4B6
:102B000078C02F3F19F4911101C0282FC8010196F8
:102B100006E010E0B7010E94CB248413E5CFD22F4A
:102B20004D1152C02F3F71F4842F992787FD909546
:102B30000196B8010E94CB248093B30131503093A9
:102B4000B10142C0822F992787FD90950196B80167
:102B50000E94CB24282FFF24F39406E010E03327B3
:102B600027FD30956F01C20ED31ED60112965C91DF
:102B7000552399F08D2F992787FD9095BF01680FF8
:102B8000791FDB0112965C93D60112961C92019676
:102B9000B8010E94CB24D82F01C0F394C90101963B
:102BA000B8010E94CB24282F8413D9CF242F332798
:102BB00027FD30952F193109C901069666E070E0AE
:102BC0000E94CB248093B2012091B201332727FDCC
:102BD0003095E20FF31FC283C901019666E070E0F1
:102BE0000E94CB248093B2018091B1018F5F8093CA
:102BF000B101DF91CF911F910F91FF90EF90DF9086
:102C0000CF900895EF92FF920F931F93CF93C82F09
:102C100080910C018823D1F08C2F8695869586951E
:102C20008F3008F071C0E0910D01F0910E01E80FB6
:102C3000F11DC77081E090E00C2E01C0880F0A944E
:102C4000EAF780959181892381835EC02091B30149
:102C50004091B101442309F457C0E0910D01F09176
:102C60000E010091B201112707FD109586E0E82EB4
:102C7000F12C30E0DF01A20FB31FCD0102961296B6
:102C80005C915C1337C0DC011C9241504093B10150
:102C9000411104C01092B3011092B2014091B201EF
:102CA000842F992787FD9095059666E070E00E9435
:102CB000CB242817390741F5C091B30106E010E095
:102CC000842F992787FD90950596B8010E94CB2403
:102CD0009C01482F0596B8010E94CB24DF01A80F64
:102CE000B91F12968C91811102C02C13E9CF209349
:102CF000B2010AC0C9010196B7010E94CB24282F56
:102D00008017910709F0B5CFCF911F910F91FF90D8
:102D1000EF90089581E090E0E0910D01F0910E01B7
:102D2000E80FF91F1082019680319105A9F70895E7
:102D30009091B501892B8093B5010895809590916C
:102D4000B50189238093B50108951092B5010895C6
:102D50009091B401892B8093B4010895809590914E
:102D6000B40189238093B40108951092B4010895A9
:102D70008093A00108951092A001089580910C0104
:102D8000811103C08091B10108950895E0910D0172
:102D9000F0910E018091B5018083E0910D01F091D9
:102DA0000E0190818091B401892B80838091A001D4
:102DB000882361F0E0910D01F0910E019081892B43
:102DC00080830E94BE1681111092A00180910D0196
:102DD00090910E010C94630A8B3B50F4883AE8F40E
:102DE000853A90F4843070F4813009F455C007C0FE
:102DF000803E28F0883E30F0803F08F04AC080E0F6
:102E000090E0089590E00895853A09F448C0863A24
:102E100009F448C083E890E40895883A09F445C06D
:102E2000893A09F445C08A3A09F445C08B3A09F455
:102E300045C08C3A09F445C08D3A09F445C0803B41
:102E400009F445C08E3A09F445C08F3A09F445C0EB
:102E5000813B09F445C0823B09F445C0833B09F43A
:102E600045C0843B09F445C0853B09F445C0863B19
:102E700009F445C0873B09F445C0883B09F445C0C7
:102E8000893B09F445C08A3B09F445C080E094E4DD
:102E9000089590E09065089581E090E0089581E8BC
:102EA00090E4089582E890E4089582EE94E4089511
:102EB00089EE94E408958AEE94E4089585EB94E411
:102EC000089586EB94E4089587EB94E408958CECE0
:102ED00094E408958DEC94E4089583E895E40895CE
:102EE0008AE895E4089582E995E4089584E995E4F3
:102EF000089581E296E4089583E296E4089584E2D9
:102F000096E4089585E296E4089586E296E40895AD
:102F100087E296E408958AE296E408950E942302E7
:102F2000803EA8F4803C00F5813309F45CC038F49D
:102F3000893209F452C08A3209F45BC05FC0893318
:102F4000B1F08238A1F0853309F441C057C0833E07
:102F500041F128F4803E99F0823EB9F04FC0863EA0
:102F600031F1873E71F14AC00E9427020895909185
:102F7000E30190FD02C091FF41C080EE3FC080910F
:102F8000E30180FFFACF89E339C08091E30182FF3A
:102F90000CC08091E30184FF02C080E02FC083EE6B
:102FA0002DC08091E30182FFF4CF82EE27C0809193
:102FB000E30183FF0AC08091E30184FDEECF87EE39
:102FC0001DC08091E30183FFF6CF86EE17C080918C
:102FD000E30185FF06C089E211C08091E30185FF0E
:102FE000FACF85E30BC08091E30186FF06C08AE239
:102FF00005C08091E30186FFFACF81E30E94EC16C1
:10300000089580E090E0089508959091E80194304B
:1030100029F183FD02C090E401C090E68770892BFE
:1030200028E130E00FB6F894A895209360000FBE19
:103030008093600083B7817F846083BF83B78160A2
:1030400083BF7894889583B78E7F83BF88E10FB65E
:10305000F89480936000109260000FBE0895CF93A3
:103060000E941B020E945C020E941C02C0E08C2F86
:103070000E94E702811104C0CF5FC630C1F701C0D2
:1030800081E0CF9108950E940A100C9436201F927F
:103090000F920FB60F9211240F900FBE0F901F903A
:1030A000189582E084BD93E095BD9AEF97BD80931B
:1030B0006E0008952FB7F8948091B7019091B801F0
:1030C000A091B901B091BA012FBF0895CF92DF92BC
:1030D000EF92FF920F931F932FB7F8944091B7018F
:1030E0005091B8016091B9017091BA012FBF6A0186
:1030F0007B01EE24FF248C0120E030E0C016D106D5
:10310000E206F30610F4415051099A01281B390BCD
:10311000C9011F910F91FF90EF90DF90CF9008951C
:103120001F920F920FB60F9211248F939F93AF931C
:10313000BF938091B7019091B801A091B901B0916E
:10314000BA010196A11DB11D8093B7019093B801FA
:10315000A093B901B093BA01BF91AF919F918F91A4
:103160000F900FBE0F901F9018950E946806F8945C
:103170002FEF87EA91E6215080409040E1F700C0B0
:10318000000087E090EBDC018093F2019093F30163
:10319000A093F401B093F5012CE088E190E00FB624
:1031A000F894A895809360000FBE20936000FFCF35
:1031B000EF92FF920F931F93CF93DF93D82FC0E02E
:1031C0008C2F0E94E70200E010E0E82EF12CC701EE
:1031D000002E02C0959587950A94E2F780FD06C0FF
:1031E0000F5F1F4F0430110591F709C0602F7C2F2E
:1031F00080E00E942302D813F3CF81E004C0CF5FA8
:10320000C630F1F680E0DF91CF911F910F91FF90D2
:10321000EF900895CF93C82F80EC0E94D818882390
:1032200021F08C2FCF910C94D81880E0CF91089585
:10323000CF930E94711A811102C00E944C1AC5E6F8
:10324000C15049F00E945C028FE39CE90197F1F7BD
:1032500000C00000F5CF89E20E940A1981111AC14D
:103260008AE20E940A19882341F00E946B1A0E9488
:103270004C1A0E9428230E948D2285E00E940A1980
:1032800081110E94B5180E947C1A8093B60187E0D4
:103290000E940A198823A9F18BE10E940A19882348
:1032A00051F08091B60181FB222720F991E092270D
:1032B00090FB81F90EC08EE00E940A19882361F00C
:1032C0008091B60182FB222720F991E0922790FBA2
:1032D00082F98093B60115C080E10E940A1990918D
:1032E000B601882341F093FB222720F981E0822751
:1032F00080FB93F904C0892F809580FB90F990930F
:10330000B6018091B6010E94801A0E948E1A8093A5
:10331000E30180EE0E940A19882341F08091E301C5
:10332000982F909590FB80F98093E30189E30E94A8
:103330000A19882359F08091E30181FB222720F9A3
:1033400091E0922790FB81F98093E30182EE0E9445
:103350000A19882359F08091E30182FB222720F982
:1033600091E0922790FB82F98093E30186EE0E9420
:103370000A19882359F08091E30183FB222720F961
:1033800091E0922790FB83F98093E30183EE0E9402
:103390000A19882359F08091E30184FB222720F940
:1033A00091E0922790FB84F98093E30185E30E94EA
:1033B0000A19882359F08091E30185FB222720F91F
:1033C00091E0922790FB85F98093E30181E30E94CD
:1033D0000A19882359F08091E30186FB222720F9FE
:1033E00091E0922790FB86F98093E30181E10E94AE
:1033F0000A19882359F08091E30187FB222720F9DD
:1034000091E0922790FB87F98093E3018091E3019B
:103410000E94921A8091E30187FB882780F98093AC
:103420000C0187E20E940A19C82F8EE10E940A1936
:103430008111C2608FE10E940A198111C46080E28B
:103440000E940A198111C86081E20E940A19811143
:10345000C06182E20E940A198111C06283E20E9467
:103460000A198111C06484E20E940A19882311F0AC
:10347000C06802C0CC2329F08C2F0E94891A6C2FBF
:1034800003C00E94851A682F70E080E090E0CF9121
:103490000C940B14CF9108956DEE7EEF80E090E0D8
:1034A0000E94152560E082E090E00E94072560E020
:1034B00083E090E00E94072560E084E090E00E94B5
:1034C000072560E085E090E00E94072560E086E047
:1034D00090E00C9407256FEF7FEF80E090E00C9474
:1034E000152580E090E00E94012521E08D3E9E4F51
:1034F00009F020E0822F089582E090E00C94F924F6
:10350000682F82E090E00C94072583E090E00C9413
:10351000F924682F83E090E00C94072584E090E084
:103520000C94F924682F84E090E00C94072586E041
:1035300090E00C94F924682F86E090E00C94072525
:103540008091BD0180FF0BC06091120185E0689FF2
:10355000B001112475956795759567952BC081FF0E
:1035600009C06091120185E0689FB0011124759532
:10357000679520C082FF07C06091120185E0689FB7
:10358000B001112417C09091BE019923D1F0609130
:103590001101961788F72091120185E0289F90016C
:1035A0001124929FA001939F500D112470E0CA0135
:1035B0000E94CB246038710540F46115710539F023
:1035C00002C065E070E0862F08958FE7089581E0DE
:1035D00008958091BD0180FF08C06091100170E0E6
:1035E000759567957595679521C081FF06C06091B7
:1035F000100170E07595679519C082FF04C0609155
:10360000100170E010C09091BE019923C1F060914B
:103610000F019617A0F780911001899FC001112416
:1036200070E00E94CB246038710528F461157105A3
:1036300021F0862F08958FE7089581E0089561E0D5
:1036400070E0F4CF803F21F40E94A01A819504C05D
:10365000813F29F40E94A01A8093C1010895823FFE
:1036600021F40E94A01A819504C0833F29F40E948E
:10367000A01A8093C0010895893F19F40E94E91AA5
:1036800005C08A3F31F40E94E91A81958093C201F6
:1036900008958B3F21F40E94E91A819504C08C3F64
:1036A00029F40E94E91A8093C3010895843F21F40C
:1036B0008091BF01816017C0853F21F48091BF01D7
:1036C000826011C0863F21F48091BF0184600BC0ED
:1036D000873F21F48091BF01886005C0883F31F4A5
:1036E0008091BF0180618093BF0108958D3F21F4D7
:1036F0008091BD0181600BC08E3F21F48091BD019E
:10370000826005C08F3F29F48091BD018460809361
:10371000BD010895803F39F48091C10187FF6CC0DD
:103720001092C10169C0813F29F48091C10118162E
:10373000BCF362C09091C001823F29F497FF5CC046
:103740001092C00159C0833F19F41916CCF354C02C
:10375000893F41F48091C20118160CF04DC01092BF
:10376000C2014AC08A3F29F48091C20187FF44C048
:10377000F6CF8B3F39F48091C30187FF3DC0109293
:10378000C3013AC08C3F29F48091C3011816BCF3E1
:1037900033C0843F21F48091BF018E7F17C0853FE5
:1037A00021F48091BF018D7F11C0863F21F480916B
:1037B000BF018B7F0BC0873F21F48091BF01877FC2
:1037C00005C0883F31F48091BF018F7E8093BF0197
:1037D00013C08D3F21F48091BD018E7F0BC08E3FC1
:1037E00021F48091BD018D7F05C08F3F29F4809128
:1037F000BD018B7F8093BD018091C00181110EC0FE
:103800008091C10181110AC08091C201811106C05D
:103810008091C301811102C01092BE0108958FEB07
:1038200091E00E946E0A0E945A189093BC01809306
:10383000BB0108951F93CF93DF938091BB019091BB
:10384000BC010E946618AC019091BE01992321F041
:103850002091130130E006C0209114018AE0289FD6
:10386000900111244217530708F486C08091C001CB
:10387000C091C101D091C2011091C301811107C053
:10388000C11176C0D11174C0111172C075C09F3FB3
:1038900019F09F5F9093BE01181624F40E94A01A9D
:1038A0008093C0018091C00187FF05C00E94A01ACB
:1038B00081958093C0011C1624F40E94A01A809365
:1038C000C1018091C10187FF05C00E94A01A8195A6
:1038D0008093C1016091C001662339F1C091C1019B
:1038E000CC2319F1772767FD7095872F972F0E94BA
:1038F000DC2323E333E343E35FE30E9440240E949D
:10390000A9236093C0016C2F772767FD7095872FDF
:10391000972F0E94DC2323E333E343E35FE30E941A
:1039200040240E94A9236093C1011D1624F40E9423
:10393000E91A8093C2018091C20187FF05C00E94ED
:10394000E91A81958093C201111624F40E94E91AA4
:103950008093C3018091C30187FF05C00E94E91ACB
:1039600081958093C301DF91CF911F910C940F1C1F
:103970009F3F09F08ECF96CFDF91CF911F91089591
:10398000EFEBF1E085E0DF011D928A95E9F71092F7
:10399000BE011092BD010895833081F128F4813079
:1039A00059F08230D1F00895853009F449C0B8F15A
:1039B000863009F456C0089580911401262F30E016
:1039C000280F311D2F3F310524F4680F6093140137
:1039D00008958FEF80931401089580911301262F8D
:1039E00030E0280F311D2F3F310524F4680F60931C
:1039F000130108958FEF80931301089580911201B0
:103A0000262F30E0280F311D2F3F310524F4680F99
:103A10006093120108958FEF8093120108958091B1
:103A20001101262F30E0280F311D2F3F310524F4DE
:103A3000680F6093110108958FEF8093110108952D
:103A400080911001262F30E0280F311D2F3F3105C6
:103A500024F4680F6093100108958FEF8093100194
:103A6000089580910F01262F30E0280F311D2F3F40
:103A7000310524F4680F60930F0108958FEF809350
:103A80000F010895833011F128F4813049F082301C
:103A900091F00895853081F120F18630C1F10895CB
:103AA00080911401681720F4861B809314010895F7
:103AB00010921401089580911301681720F4861B59
:103AC00080931301089510921301089580911201BB
:103AD000681720F4861B809312010895109212013A
:103AE000089580911101681720F4861B80931101BD
:103AF000089510921101089580911001681720F423
:103B0000861B8093100108951092100108958091F2
:103B10000F01681720F4861B80930F0108951092FF
:103B20000F0108950F931F93482F50E0FA01369725
:103B3000E334F10508F0AAC0E059FF4F0C94DF24EC
:103B40000E947C1A0E948E1A0E94971A49C00E94F5
:103B5000520A892B49F00E94520A9093C601809321
:103B6000C50180E090E004C08091C5019091C6013C
:103B70000E944D0A35C08091B601817F8E7F80936F
:103B8000B60181E08093C40182C00E940A100FEF49
:103B900013ED20E3015010402040E1F700C0000089
:103BA0000E94B5181DC09091B601892F817090FFB9
:103BB00012C0917F9E7F9093B60169C08091B6013B
:103BC00081FB222720F991E0922790FB81F98093D5
:103BD000B601992329F08091B60181608093B601E6
:103BE00081E055C08091B60182FB222720F991E047
:103BF000922790FB82F9EBCF8091B60183FB2227BD
:103C000020F991E0922790FB83F9E1CF0E940A10FE
:103C100090910C0181E0892780930C01E1CF81E82C
:103C200090E00E94790A3FEF81EE94E031508040AD
:103C30009040E1F700C0000080E090E00E94790A27
:103C40000FEF19E628E1015010402040E1F700C0D5
:103C50000000C6CF61E070E080E090E012C08D51BE
:103C600001C0895341E050E060E070E08A019B01AF
:103C700004C0000F111F221F331F8A95D2F7C901FC
:103C8000B8010E940B140E940A10AACF80E01F9175
:103C90000F91089580E0089580E00895CF93C82F94
:103CA0008091C4018130A1F020F0823009F444C039
:103CB0008AC060E080E00E94D202882309F485C0B7
:103CC00063E080E00E94D202882309F47EC00CC029
:103CD00060E080E00E94D202882391F063E080E0FF
:103CE0000E94D202882361F08C2F0E944A1E81110B
:103CF00004C08C2F0E94921D1DC081E090E01AC06C
:103D00008C2F0E944C1E811114C0C43179F048F4EC
:103D1000CB3079F0C03109F05CC082E08093C401FF
:103D200008C0C93219F0C83321F053C01092C40141
:103D300050C081E081704FC0C93291F120F5C4318B
:103D400079F1B0F4C73009F042C08EE180931401DC
:103D500082E3809313018AE08093120184E18093CF
:103D6000110188E08093100188E280930F012FC039
:103D7000CE51CA3060F5EC2FF0E0E75DFE4F808158
:103D80008093C70124C0CE34C1F020F4CB34F9F4C1
:103D90006AE00EC0C13551F0C235C9F461E008C017
:103DA0001092C70181E08093C40115C061E006C094
:103DB0008091C7010E94CC1C0AC06AE08091C701B3
:103DC0000E94421D04C01092C40180E004C081E042
:103DD00002C080E0AFCFCF910895E1E8F0E08081AC
:103DE000886080838081816080838FB7F89493E0BE
:103DF0009093890090ED909388008FBF0C943D22A2
:103E0000EFE6F0E080818260808381E08093D801DA
:103E10000C945822EFE6F0E080818D7F8083109231
:103E2000D80180E00E944B2281E00E944B228091C9
:103E3000D8010C945822E4EDF1E080838183089549
:103E4000E82FF0E0EC52FE4F2081422F50E08FEF40
:103E500090E0861B9109841795071CF48FEF8083EF
:103E60000895620F60830895CF93C82F682F80E074
:103E70000E94201F6C2F81E0CF910C94201FE82F0F
:103E8000F0E0EC52FE4F8081861710F41082089506
:103E9000861B80830895CF93C82F682F80E00E94EF
:103EA0003F1F6C2F81E0CF910C943F1F8091D80170
:103EB00008958091D30183608093D3010895109277
:103EC000D30108958093D20108958093D10108957C
:103ED0008091D00183608093D00108951092D00129
:103EE00008958093CF0108951F920F920FB60F92FD
:103EF00011240F931F932F933F934F935F936F93CF
:103F00007F938F939F93AF93BF93CF93DF93EF9361
:103F1000FF938091CE018F5F8093CE0181110DC000
:103F20000E943E228091D4018093D60181E00E94BC
:103F30003E228091D5018093D7019091CE0180914E
:103F4000D601981303C080E00E944B229091CE01CD
:103F50008091D701981303C081E00E944B22009109
:103F6000D301011105C09091D001911133C069C0F6
:103F70008091CD018F5F813418F48093CD01F3CF10
:103F80001092CD018091CC018F5F8093CC019091F4
:103F9000D101981740F71092CC01C0E0D0E010E0BA
:103FA000C8010C2E02C0969587950A94E2F780FF0F
:103FB0000CC08091D20161E0882321F08C2F0E94F7
:103FC0003F1F03C08C2F0E94201F219761F2C1E088
:103FD000D0E0E6CF8091CB018F5F813418F48093DD
:103FE000CB012FC01092CB018091CA018F5F8093CB
:103FF000CA012091CF01281720F51092CA018091A3
:10400000C901E82FF0E0E65DFC4FE491292F90FD17
:10401000E093D40121FDE093D5019091C80199234B
:1040200039F0811103C01092C8010BC0815007C044
:104030008F3721F481E08093C80103C08F5F8093A4
:10404000C901FF91EF91DF91CF91BF91AF919F9106
:104050008F917F916F915F914F913F912F911F9120
:104060000F910F900FBE0F901F9018950E94711A1C
:10407000811102C00E944C1A0E94971A8093F1018C
:1040800080FF02C0869501C080E00C94EE02809112
:10409000F10180FF14C0982F9695292F30E0283029
:1040A000310544F49F5F990F8170892B8093F10152
:1040B0000E949B1A8091F10186950C94EE0208955E
:1040C0008091F10180FF14C0982F9695292F30E040
:1040D0002230310544F09158990F8170892B8093DB
:1040E000F1010E949B1A8091F10186950C94EE02D9
:1040F00008958091F101982F9095917090FB80F92F
:104100008093F101992339F0982F9E7F21F48170DB
:1041100082608093F1018091F1010E949B1A80914D
:10412000F10180FF02C0869501C080E00C94EE0290
:104130009091F101892F86958F5F8F7791708930EB
:1041400028F4880F892B8093F10102C09093F1012C
:104150008091F1018E7F91E009F490E08091F1016E
:1041600090FB80F98093F1010E949B1A8091F101EC
:1041700086950C94EE02880F9091F1019170892B35
:104180008093F1018E7F91E009F490E08091F1013C
:1041900090FB80F98093F1010E949B1A8091F101BC
:1041A00086950C94EE02DF92EF92FF920F931F938D
:1041B000CF93DF930091DE010827611101C0C9F19F
:1041C000C0E0D0E0E62EF82E10E0DC2E0E94561F54
:1041D000882359F02091DA0130E00C2E02C0369588
:1041E00027950A94E2F720FD1DC0E11009C0C8011F
:1041F0000C2E02C0969587950A94E2F780FF12C0B4
:104200002091D9012F2530E00C2E02C0369527953C
:104210000A94E2F78D2D20FF03C00E946B0302C0B9
:104220000E947403219719F0C1E0D0E0CECFF09244
:10423000DE01DF91CF911F910F91FF90EF90DF9002
:1042400008950F931F93CF93DF93C0E0D0E001E078
:1042500010E08C2F0E949D2294FF0BC08091D90109
:1042600098010C2E01C0220F0A94EAF7282B209304
:10427000D90195FF0BC08091DA0198010C2E01C085
:10428000220F0A94EAF7282B2093DA019F70892FD6
:1042900090E08230910589F083309105D1F0813032
:1042A000910511F50C2E01C0880F0A94EAF7909140
:1042B000DC01892B8093DC0117C02091DB01C80150
:1042C0000C2E01C0880F0A94EAF7822B8093DB0141
:1042D0000BC02091DD01C8010C2E01C0880F0A948B
:1042E000EAF7822B8093DD01219719F0C1E0D0E03D
:1042F000B0CF0E94660361E080E0DF91CF911F9113
:104300000F910C94D320CF93DF939091DD019923EB
:1043100069F1D82FC091DE0190FF0FC080E00E94AC
:104320009D222D2F30E002C0359527958A95E2F722
:1043300020FD02C0CE7F01C0C1608091DD0181FF00
:104340000FC081E00E949D222D2F30E002C03595E4
:1043500027958A95E2F720FD02C0CD7F01C0C2609B
:1043600060E08C2FDF91CF910C94D320DF91CF911F
:104370000895CF92DF92EF92FF92CF932091DC01CC
:10438000222399F16B017C01C091DE0120FF11C055
:1043900080E00E949D22A701960104C05695479592
:1043A000379527958A95D2F720FD02C0CE7F01C0B0
:1043B000C1608091DC0181FF0FC081E00E949D22DD
:1043C00004C0F694E794D794C7948A95D2F7C0FCBA
:1043D00002C0CD7F01C0C26060E08C2FCF91FF9002
:1043E000EF90DF90CF900C94D320CF91FF90EF907F
:1043F000DF90CF900895CF92DF92EF92FF92CF930C
:104400002091DB01222399F16B017C01C091DE0137
:1044100020FF11C080E00E949D22A701960104C0E8
:1044200056954795379527958A95D2F720FD02C076
:10443000CE7F01C0C1608091DB0181FF0FC081E0B0
:104440000E949D2204C0F694E794D794C7948A955D
:10445000D2F7C0FC02C0CD7F01C0C26060E08C2FEB
:10446000CF91FF90EF90DF90CF900C94D320CF911D
:10447000FF90EF90DF90CF90089508952091DA019A
:1044800030E0082E02C0369527950A94E2F720FD09
:104490000C946B0308952091DA0130E0082E02C0DD
:1044A000369527950A94E2F720FD0C94740308953D
:1044B000811105C061E08091DE010C94D320089544
:1044C00087E090E00E9401259093E0018093DF0156
:1044D000019661F480E00E945D039093E001809377
:1044E000DF01BC0187E090E00E94152589E090E0A3
:1044F0000E9401259093E2018093E101019661F40D
:1045000081E00E945D039093E2018093E101BC0190
:1045100089E090E00C941525089580E00E945D03E9
:10452000BC0187E090E00E94152581E00E945D03B8
:10453000BC0189E090E00C941525E82FF0E0EE0F27
:10454000FF1FE152FE4F808191810895CF92DF924B
:10455000EF92FF920F931F93CF9381E190E00E941F
:1045600001258C01C12CD12C2DEEE22E2EEFF22E46
:104570000E943E02C82F0E944002C89FC001112421
:104580009C0185E0220F331F8A95E1F7205C3F4FA5
:10459000C216D30680F4C60143960E94F924282F40
:1045A00030E0C0FE02C0322F2227E20EF31E8FEF52
:1045B000C81AD80ADDCF81E00E151F0509F080E08A
:1045C000CF911F910F91FF90EF90DF90CF900895C2
:1045D00090E0880F991F43960C94012590E0880F76
:1045E000991F43960C941525EF92FF920F931F93FA
:1045F000CF93DF9300D0CDB7DEB7082F4A8369830E
:104600000E943E02089F800111240E944002809F68
:104610007001819FF00C11240E9440026981970172
:10462000689F200D311D1124C9014A81840F911DFD
:104630008D5A9F4F0F900F90DF91CF911F910F9147
:10464000FF90EF900C94F9248D5A9F4F0C940725FE
:104650008F929F92AF92BF92CF92DF92EF92FF9292
:104660000F931F93CF93DF930E942E026C010E9441
:104670002B027C01C114D10409F10E9420024C01DB
:10468000A12CB12C0DEE1EEFA814B90420F4F601F4
:10469000C591D49102C0C0E0D0E0BE018A2D0E9435
:1046A000EE220C0F1D1F8FEFA81AB80A82E0C80E69
:1046B000D11C80E2A816B10439F702C00DEE1EEF3E
:1046C000E114F10471F10E941D026C01A12CB12CC6
:1046D0000E943E02C82F0E944002C89FC0011124C0
:1046E00025E0880F991F2A95E1F7A816B906C8F4A6
:1046F000AC14BD0428F4F701EA0DFB1DC49101C000
:10470000C0E06C2FC5010E942423EC2FF0E0A0FE36
:1047100002C0FE2FEE270E0F1F1F8FEFA81AB80A38
:10472000D7CFB80181E190E0DF91CF911F910F9138
:10473000FF90EF90DF90CF90BF90AF909F908F90C1
:104740000C9415250E94A622811102C00C942823E6
:10475000089504D06894B1118DC0089570D088F088
:104760009F5790F0B92F9927B751A0F0D1F0660F5D
:10477000771F881F991F1AF0BA95C9F712C0B13078
:1047800081F077D0B1E0089574C0672F782F882723
:10479000B85F39F0B93FCCF3869577956795B395B7
:1047A000D9F73EF490958095709561957F4F8F4F26
:1047B0009F4F0895E89409C097FB3EF4909580952B
:1047C000709561957F4F8F4F9F4F9923A9F0F92FD7
:1047D00096E9BB279395F695879577956795B79555
:1047E000F111F8CFFAF4BB0F11F460FF1BC06F5F3B
:1047F0007F4F8F4F9F4F16C0882311F096E911C04D
:10480000772321F09EE8872F762F05C0662371F06D
:1048100096E8862F70E060E02AF09A95660F771F81
:10482000881FDAF7880F9695879597F9089557FDB1
:104830009058440F551F59F05F3F71F04795880F0E
:1048400097FB991F61F09F3F79F0879508951216A5
:1048500013061406551FF2CF4695F1DF08C0161651
:1048600017061806991FF1CF869571056105089402
:104870000895E894BB2766277727CB0197F9089519
:104880000BD078C069D028F06ED018F0952309F0CD
:104890005AC05FC01124EECFCADFA0F3959FD1F3B9
:1048A000950F50E0551F629FF001729FBB27F00DDE
:1048B000B11D639FAA27F00DB11DAA1F649F662733
:1048C000B00DA11D661F829F2227B00DA11D621F82
:1048D000739FB00DA11D621F839FA00D611D221F3C
:1048E000749F3327A00D611D231F849F600D211D20
:1048F000822F762F6A2F11249F5750408AF0E1F0C3
:1049000088234AF0EE0FFF1FBB1F661F771F881F0B
:1049100091505040A9F79E3F510570F014C0AACFA6
:104920005F3FECF3983EDCF3869577956795B795F6
:10493000F795E7959F5FC1F7FE2B880F911D969520
:10494000879597F9089597F99F6780E870E060E090
:1049500008959FEF80EC089500240A941616170618
:1049600018060906089500240A9412161306140660
:1049700005060895092E0394000C11F4882352F0C3
:10498000BB0F40F4BF2B11F460FF04C06F5F7F4F7B
:104990008F4F9F4F089597FB072E16F4009407D072
:1049A00077FD09D00E94E52407FC05D03EF49095E0
:1049B00081959F4F0895709561957F4F0895EE0FF3
:1049C000FF1F0590F491E02D0994AA1BBB1B51E138
:1049D00007C0AA1FBB1FA617B70710F0A61BB70B6F
:1049E000881F991F5A95A9F780959095BC01CD0114
:1049F0000895F999FECF92BD81BDF89A992780B5A7
:104A00000895A8E1B0E042E050E00C941C25262F68
:104A1000F999FECF1FBA92BD81BD20BD0FB6F894A3
:104A2000FA9AF99A0FBE019608950E940725272F3A
:104A30000C940825DC01CB01FC01F999FECF06C0DE
:104A4000F2BDE1BDF89A319600B40D92415050404C
:084A5000B8F70895F894FFCFB8
:104A5800057D030B04E803B40380030101A10128C9
:104A680008140A321E3F4D3639EB029E0268022FA7
:104A780002C201DB01F4010D02010203040506076D
:044A88000809000019
:00000001FF
